:100000000C942A000C9447000C9447000C94470071
:100010000C9447000C9447000C9447000C94470044
:100020000C9447000C9447000C9447000C94470034
:100030000C94CD020C9400030C9447000C942903FB
:100040000C9447000C9447000C9447000C94470014
:100050000C94470011241FBECFE5D8E0DEBFCDBF12
:1000600011E0A0E6B0E0E8EBFCE002C005900D92E4
:10007000AA37B107D9F721E0AAE7B1E001C01D9284
:10008000A038B207E1F70E945B010C945A060C9469
:10009000000061E08CE00E9439020E94BB020895DA
:1000A000CF93DF93C82FD62F60E08CE00E943902F7
:1000B00086E00E94C80261E08CE00E94390283ED74
:1000C00090E30197F1F700C0000060E08CE00E942F
:1000D000390282E00E94C4028D2F0E94C4028C2F3C
:1000E0000E94C40261E08CE00E943902DF91CF914E
:1000F0000895CF93C82F60E08CE00E94390283E01E
:100100000E94C4028C2F0E94C40280E00E94C80298
:10011000C82F61E08CE00E9439028C2FCF910895A6
:100120000E94F6020E9449000895CF92DF92EF925A
:10013000FF920F931F93CF93DF9300D000D01F92B5
:10014000CDB7DEB780E690E00E945A038DE00E94B2
:1001500052030E945603182F8DE00E945203173558
:1001600059F020F4123509F44FC090C0123709F449
:100170004BC0173709F08AC087EA90E00E945A0303
:100180000E945603C82E0E945603082F0E94560351
:10019000E82E8DE20E9452030E945603D82E0E9440
:1001A0005603182F0E945603F82E8DE00E9452032A
:1001B00080ED8C0D24E660ED6E0DE62E829FE00C46
:1001C0001124000F60EA600F962F990F990F690FA5
:1001D0006E0D70E080ED8D0D90ED9F0DF92E829FDC
:1001E000F00C1124912F990F9056892F880F880FAA
:1001F000890F8F0D0E94500083EE90E00E945A03F9
:100200008DE00E94520349C08CEF90E00E945A0397
:100210000E945603F82E0E945603182F0E94560380
:10022000082F8DE00E94520380ED8F0D005394E65D
:10023000899F000D1124912F990F9056892F880FB7
:10024000880F980F802F890F90E00E947900182F57
:100250008FE191E00E945A031F921F9387E391E080
:100260009F938F938E010F5F1F4F1F930F930E94D9
:100270007003C8010E945A038DE00E9452030F9040
:100280000F900F900F900F900F9007C08AE391E0AE
:100290000E945A038DE00E9452030F900F900F901E
:1002A0000F900F90DF91CF911F910F91FF90EF90E2
:1002B000DF90CF9008950E9462010E9490000E94FA
:1002C0009500FDCFEAE5F1E080E041E050E091915A
:1002D000282F269526952695382F37709130C9F10D
:1002E00020F0923009F47DC0BFC0213089F028F0A1
:1002F0002230C9F0233011F1B7C09AB3BA0102C05D
:10030000660F771F3A95E2F79B01292B2ABBACC0F9
:1003100097B3BA0102C0660F771F3A95E2F79B01C7
:10032000292B27BBA1C094B3BA0102C0660F771F67
:100330003A95E2F79B01292B24BB96C091B3BA01F1
:1003400002C0660F771F3A95E2F79B01292B21BB6C
:100350008BC02130B1F028F0223019F1233089F11F
:1003600083C09AB3BA0102C0660F771F3A95E2F7CD
:100370009B01362F309593239ABB9BB3292B2BBB24
:1003800073C097B3BA0102C0660F771F3A95E2F7C0
:100390009B01362F3095932397BB98B3292B28BB0D
:1003A00063C094B3BA0102C0660F771F3A95E2F7B3
:1003B0009B01362F3095932394BB95B3292B25BBF6
:1003C00053C091B3BA0102C0660F771F3A95E2F7A6
:1003D0009B01362F3095932391BB92B3292B22BBDF
:1003E00043C02130A9F028F0223009F1233071F107
:1003F0003BC09AB3BA0102C0660F771F3A95E2F785
:100400009B01209592239ABB9BB329232BBB2CC025
:1004100097B3BA0102C0660F771F3A95E2F79B01C6
:100420002095922397BB98B3292328BB1DC094B372
:10043000BA0102C0660F771F3A95E2F79B0120953B
:10044000922394BB95B3292325BB0EC091B3BA0167
:1004500002C0660F771F3A95E2F79B012095922321
:1004600091BB92B3292322BB8F5F803209F02FCF3B
:100470000895982F9770869586958695813021F1FD
:1004800030F08230F1F1833009F458C008956130C2
:1004900069F44BB321E030E0B90102C0660F771F69
:1004A0009A95E2F7CB01842B8BBB08954BB321E0E7
:1004B00030E0B90102C0660F771F9A95E2F7CB01D1
:1004C000809584238BBB0895613069F448B321E0A3
:1004D00030E0B90102C0660F771F9A95E2F7CB01B1
:1004E000842B88BB089548B321E030E0B90102C0F5
:1004F000660F771F9A95E2F7CB018095842388BB1E
:100500000895613069F445B321E030E0B90102C0DB
:10051000660F771F9A95E2F7CB01842B85BB089570
:1005200045B321E030E0B90102C0660F771F9A950C
:10053000E2F7CB018095842385BB0895613069F48F
:1005400042B321E030E0B90102C0660F771F9A95EF
:10055000E2F7CB01842B82BB089542B321E030E067
:10056000B90102C0660F771F9A95E2F7CB0180951B
:10057000842382BB08956D986C9A6B9A6A9A8DB1A8
:100580008DB970986E9A08958FB9779BFECF0895B4
:100590008FB9779BFECF8FB108951F920F920FB640
:1005A0000F9211242F933F934F935F936F937F93F9
:1005B0008F939F93AF93BF93EF93FF93E0917A0153
:1005C000F0917B01309709F00995FF91EF91BF9170
:1005D000AF919F918F917F916F915F914F913F91DB
:1005E0002F910F900FBE0F901F9018955998529809
:1005F00086E880BD10BC83E389B9549A539A089564
:100600001F920F920FB60F9211242F933F934F9387
:100610005F936F937F938F939F93AF93BF93EF936A
:10062000FF93E0917E01F0917F01309709F00995E9
:10063000FF91EF91BF91AF919F918F917F916F91BA
:100640005F914F913F912F910F900FBE0F901F9090
:1006500018951F920F920FB60F9211242F933F936C
:100660004F935F936F937F938F939F93AF93BF93BA
:10067000EF93FF93E0917C01F0917D01309709F0B9
:100680000995FF91EF91BF91AF919F918F917F91CC
:100690006F915F914F913F912F910F900FBE0F90EF
:1006A0001F9018955D9BFECF8CB908955F9BFECF80
:1006B0008CB108950F931F93CF93FC018081882301
:1006C00059F08F01C0E00E945203CF5FF801EC0F98
:1006D000F11D80818111F7CFCF911F910F91089566
:1006E000AEE0B0E0E6E7F3E00C9431060D891E8938
:1006F00086E08C831A8309838FEF9FE79E838D8327
:10070000AE01475E5F4F6F89788DCE0101960E94E2
:100710009203EF81F885E00FF11F10822E96E4E03E
:100720000C944D06ABE0B0E0E8E9F3E00C9423064E
:100730006C017B018A01FC0117821682838181FF93
:10074000CCC1CE0101963C01F6019381F70193FDE6
:10075000859193FF81917F01882309F4BAC1853285
:1007600039F493FD859193FF81917F01853229F4BE
:10077000B60190E00E948905E7CF912C212C312C05
:10078000FFE1F315D8F08B3279F038F4803279F04C
:100790008332A1F4232D20611DC08D3261F080339E
:1007A00069F4232D216016C0832D8260382EE32D3D
:1007B000E4603E2E2AC0F32DF8601DC037FC2DC02A
:1007C00020ED280F2A3040F08E32B9F436FC81C17A
:1007D000232D2064322E19C036FE06C08AE0989E72
:1007E000200D1124922E11C0EAE02E9E200D11241E
:1007F000222EF32DF0623F2E08C08C3621F4832D7B
:100800008068382E02C0883641F4F70193FD859147
:1008100093FF81917F018111B3CF982F9F7D9554D4
:10082000933028F40C5F1F4F9FE399830DC08336EC
:1008300031F0833771F0833509F059C021C0F801D8
:10084000808189830E5F1F4F88248394912C5301EC
:1008500013C02801F2E04F0E511CF801A080B180B6
:1008600036FE03C0692D70E002C06FEF7FEFC50157
:100870000E947E054C018201F32DFF773F2E16C0AA
:10088000280122E0420E511CF801A080B18036FE02
:1008900003C0692D70E002C06FEF7FEFC5010E94B9
:1008A00073054C01F32DF0683F2E820133FC1BC011
:1008B000822D90E088169906B0F4B60180E290E0AF
:1008C0000E9489052A94F4CFF50137FC859137FE03
:1008D00081915F01B60190E00E94890521102A9460
:1008E00021E0821A91088114910471F7E8C08436DE
:1008F00011F0893641F5F80137FE07C0608171813A
:10090000828193810C5F1F4F08C060817181072E27
:10091000000C880B990B0E5F1F4FF32DFF763F2EB7
:1009200097FF09C090958095709561957F4F8F4F87
:100930009F4FF0683F2E2AE030E0A3010E94C505DA
:10094000882E861845C0853731F4232D2F7EB22E90
:100950002AE030E025C0932D997FB92E8F36C1F063
:1009600018F4883579F0B5C0803719F0883721F050
:10097000B0C0E92FE061BE2EB4FE0DC0FB2DF460C7
:10098000BF2E09C034FE0AC0292F2660B22E06C031
:1009900028E030E005C020E130E002C020E132E094
:1009A000F801B7FE07C060817181828193810C5F7D
:1009B0001F4F06C06081718180E090E00E5F1F4F85
:1009C000A3010E94C505882E8618FB2DFF773F2EB8
:1009D00036FE0DC0232D2E7FA22E891458F434FE2E
:1009E0000BC032FC09C0832D8E7EA82E05C0B82C0A
:1009F000A32C03C0B82C01C0B92CA4FE0FC0FE016B
:100A0000E80DF11D8081803321F49A2D997EA92E65
:100A100009C0A2FE06C0B394B39404C08A2D8678A0
:100A200009F0B394A3FC11C0A0FE06C0B21488F470
:100A3000280C922C9B180EC0B21460F4B60180E210
:100A400090E00E948905B394F7CFB21418F42B18E4
:100A500002C0982C212CA4FE10C0B60180E390E0C7
:100A60000E948905A2FE17C0A1FC03C088E790E0A0
:100A700002C088E590E0B6010CC08A2D867859F056
:100A8000A1FE02C08BE201C080E2A7FC8DE2B601AC
:100A900090E00E948905891438F4B60180E390E063
:100AA0000E9489059A94F7CF8A94F301E80DF11D0D
:100AB0008081B60190E00E9489058110F5CF222047
:100AC00009F442CEB60180E290E00E9489052A94A2
:100AD000F6CFF6018681978102C08FEF9FEF2B96AC
:100AE000E2E10C943F06FC0105906150704001105A
:100AF000D8F7809590958E0F9F1F0895FC01615047
:100B0000704001900110D8F7809590958E0F9F1F2F
:100B100008950F931F93CF93DF93FB01238121FD52
:100B200003C08FEF9FEF2CC022FF16C04681578174
:100B3000248135814217530744F4A081B1819D017E
:100B40002F5F3F4F318320838C93268137812F5F26
:100B50003F4F3783268314C08B01EC01FB010084D7
:100B6000F185E02D0995892BE1F6D80116968D9136
:100B70009C911797019617969C938E931697CE018A
:100B8000DF91CF911F910F910895FA01AA27283084
:100B900051F1203181F1E8946F936E7F6E5F7F4F4A
:100BA0008F4F9F4FAF4FB1E03ED0B4E03CD0670FC6
:100BB000781F891F9A1FA11D680F791F8A1F911D19
:100BC000A11D6A0F711D811D911DA11D20D009F469
:100BD00068943F912AE0269F11243019305D3193AB
:100BE000DEF6CF010895462F4770405D4193B3E094
:100BF0000FD0C9F7F6CF462F4F70405D4A3318F03B
:100C0000495D31FD4052419302D0A9F7EACFB4E0EB
:100C1000A6959795879577956795BA95C9F70097A3
:100C20006105710508959B01AC010A2E0694579544
:100C3000479537952795BA95C9F7620F731F841F9B
:100C4000951FA01D08952F923F924F925F926F9231
:100C50007F928F929F92AF92BF92CF92DF92EF924C
:100C6000FF920F931F93CF93DF93CDB7DEB7CA1BCD
:100C7000DB0B0FB6F894DEBF0FBECDBF09942A88F8
:100C8000398848885F846E847D848C849B84AA84A0
:100C9000B984C884DF80EE80FD800C811B81AA812D
:100CA000B981CE0FD11D0FB6F894DEBF0FBECDBFF8
:080CB000ED010895F894FFCF57
:100CB800506C6561736520456E74657220572074A9
:100CC8006F205772697465204461746120746F20C5
:100CD800454550524F4D206F72205220746F20525C
:100CE80065616420446174612046726F6D204545DA
:100CF80050524F4D3A2000506C6561736520507218
:100D08006F766964652041646472657373205B3033
:100D1800202D203132375D20466F6C6C6F7765640B
:100D280020427920446174615B302D3235355D2075
:100D38003A20005772697465204F70657261746952
:100D48006F6E20446F6E65203A3A2000506C6561E2
:100D580073652050726F76696465204164647265BA
:100D68007373205B30202D203132375D3A200041EB
:100D780064647265737320686173204461746120D0
:100D88006F66203A20200025640057726F6E672036
:100D9800496E70757420506C656173652054727962
:100DA80020416761696E203A3A000202020200029D
:100DB8000000000001000000020002020202000020
:0A0DC800000002000101000000001D
:00000001FF
