S017000053656375726974795F53797374656D2E73726563D1
S11300000C942A000C9447000C9447000C9447006D
S11300100C9447000C9447000C9447000C94470040
S11300200C9447000C9447000C9447000C94470030
S11300300C9447000C9447000C9447000C94470020
S11300400C9447000C9447000C9447000C94470010
S11300500C94470011241FBECFE5D8E0DEBFCDBF0E
S113006010E0A0E6B0E0EAEAF8E002C005900D92E4
S1130070AC39B107D9F720E0ACE9B0E001C01D927A
S1130080A03AB207E1F70E94FB020C9453040C94CB
S11300900000CF93DF93C0E6D0E040E0698188811F
S11300A00E94920140E06D818C810E94920140E0A7
S11300B06B818A810E94920140E06F818E810E944F
S11300C09201DF91CF910895E0E6F0E040E0618194
S11300D080810E94B2010895E0E6F0E041E0618190
S11300E080810E94B2010895E0E6F0E040E067817B
S11300F086810E94B2010895E0E6F0E041E0678164
S113010086810E94B20108951F93CF93DF931AE072
S1130110C0E6D0E040E0698188810E94B20140E0FD
S11301206B818A810E94B20140E06D818C810E94C2
S1130130B2012FE38DE093E0215080409040E1F73D
S113014000C0000041E0698188810E94B20141E061
S11301506B818A810E94B20141E06D818C810E9491
S1130160B2012FE38DE093E0215080409040E1F70D
S113017000C00000115071F6DF91CF911F910895D6
S1130180CF93DF93C8E6D0E042E0698188810E9482
S1130190BD0242E06B818A810E94BD0242E06D8112
S11301A08C810E94BD02DF91CF910895CF93DF939C
S11301B0E8E6F0E0618180810E94DD02813051F443
S11301C0C8E6D0E0698188810E94DD028130D1F3E4
S11301D081E037C0E8E6F0E0638182810E94DD02BD
S11301E0813051F4C8E6D0E06B818A810E94DD023F
S11301F08130D1F382E025C0E8E6F0E065818481B6
S11302000E94DD02813051F4C8E6D0E06B818C811C
S11302100E94DD028130D1F383E013C0E8E6F0E010
S1130220678186810E94DD02813051F4C8E6D0E006
S11302306F818E810E94DD028130D1F384E001C0A0
S113024080E0DF91CF91089580E00E94F20181E087
S11302500E94F20110929D0010929C0010929F0047
S113026010929E000895CF93C82F662319F0613031
S113027069F017C0E0E7F0E040E0608987850E94FC
S1130280B0036C2F80E00E9426020BC0E0E7F0E090
S113029040E061A180A10E94B0036C2F81E00E9424
S11302A02602CF91089580919C0090919D00019623
S11302B08A3091052CF490939D0080939C000895BE
S11302C010929D0010929C00089580919E00909140
S11302D09F0001968A3091052CF490939F0080939F
S11302E09E00089510929F0010929E0008958091A0
S11302F09E0090919F009C01220F331F880F991F2D
S1130300880F991F880F991F820F931F20919C00BB
S113031030919D00280F391F81E02133310509F404
S113032080E00895813061F028F0823079F08330E4
S113033099F00895677040E080E00E9439030895C1
S1130340677040E081E00E9439030895677040E0DF
S113035082E00E9439030895677040E083E00E94C0
S1130360390308958130A1F028F08230F9F0833008
S113037059F10895411106C0677041E080E00E9480
S1130380B0030895677040E080E00E94B0030895D0
S1130390411106C0677041E081E00E94B0030895F6
S11303A0677040E081E00E94B0030895411106C0E7
S11303B0677041E082E00E94B0030895677040E0F6
S11303C082E00E94B0030895411106C0677041E0C5
S11303D083E00E94B0030895677040E083E00E94C8
S11303E0B0030895CF93DF9321E1829FC0011124CC
S11303F0EC01C059DF4F40E06A8189810E943903D2
S113040040E06C818B810E94390340E06E818D81D4
S11304100E94390340E068858F810E94390340E0DF
S11304206A8589850E94390340E06C858B850E942A
S1130430390340E06E858D850E94390340E0688968
S11304408F850E943903DF91CF9108951F93CF9335
S1130450DF93282F30E091E1899FF0011124E059C6
S1130460FF4F808181113EC0E62FF0E0EE56FF4F32
S11304701081412F417081E1829FE001839FD00D63
S11304801124C059DF4F6A8189810E94B00311FB96
S1130490442740F96C818B810E94B00312FB4427EE
S11304A040F96E818D810E94B00313FB442740F90B
S11304B068858F810E94B00314FB442740F96A8544
S11304C089850E94B00315FB442740F96C858B8510
S11304D00E94B00316FB442740F96E858D850E9467
S11304E0B00347C0813009F044C0E62FF0E0EE5677
S11304F0FF4F1081412F4170409581E1829FE001BF
S1130500839FD00D1124C059DF4F6A8189810E94D5
S1130510B00311FB442740F940956C818B810E9404
S1130520B00312FB442740F940956E818D810E94EF
S1130530B00313FB442740F9409568858F810E94DE
S1130540B00314FB442740F940956A8589850E94CD
S1130550B00315FB442740F940956C858B850E94B8
S1130560B00316FB442740F940956E858D850E94A3
S1130570B003DF91CF911F910895813061F028F08D
S1130580823079F0833099F00895677042E080E01A
S11305900E9439030895677042E081E00E943903A4
S11305A00895677042E082E00E94390308956770FD
S11305B042E083E00E9439030895813059F028F025
S11305C0823069F0833081F014C0677080E00E944B
S11305D025040895677081E00E94250408956770DA
S11305E082E00E9425040895677083E00E94250438
S11305F0089580E008950E9449000E94C0000E946E
S113060024010CE910E0CEE9D0E00E94D60082304B
S113061039F0833041F0813011F50E945301F5CF58
S11306200E946501F2CF0E947701882319F081307E
S113063079F0EBCF0E9464002FE382E49FE0215025
S113064080409040E1F700C000000E946C00DDCFC4
S11306500E9474000E9484000E947C00D6CF60E057
S1130660F80180810E94330161E088810E94330196
S1130670CCCF813019F130F08230E1F1833009F4CC
S113068054C0089541110BC02AB381E090E002C028
S1130690880F991F6A95E2F7822B8ABB089542302E
S11306A009F05DC02AB381E090E002C0880F991F71
S11306B06A95E2F7809582238ABB089541110BC0A5
S11306C027B381E090E002C0880F991F6A95E2F792
S11306D0822B87BB0895423009F041C027B381E0E3
S11306E090E002C0880F991F6A95E2F780958223F3
S11306F087BB089541110BC024B381E090E002C090
S1130700880F991F6A95E2F7822B84BB08954230C3
S113071031F524B381E090E002C0880F991F6A95F7
S1130720E2F78095822384BB089541110BC021B365
S113073081E090E002C0880F991F6A95E2F7822B4E
S113074081BB0895423059F421B381E090E002C0A6
S1130750880F991F6A95E2F78095822381BB0895DB
S1130760813011F130F08230D1F1833009F452C07C
S11307700895413059F42BB381E090E002C0880F12
S1130780991F6A95E2F7822B8BBB089541115CC0D7
S11307902BB381E090E002C0880F991F6A95E2F7BD
S11307A0809582238BBB0895413059F428B381E0AE
S11307B090E002C0880F991F6A95E2F7822B88BBEC
S11307C00895411141C028B381E090E002C0880F30
S11307D0991F6A95E2F78095822388BB089541307A
S11307E059F425B381E090E002C0880F991F6A95FF
S11307F0E2F7822B85BB0895411126C025B381E021
S113080090E002C0880F991F6A95E2F780958223D1
S113081085BB0895413059F422B381E090E002C0D1
S1130820880F991F6A95E2F7822B82BB08954111C4
S11308300BC022B381E090E002C0880F991F6A9533
S1130840E2F78095822382BB0895813079F028F005
S11308508230A9F08330E1F024C089B390E002C073
S1130860959587956A95E2F78170089586B390E02F
S113087002C0959587956A95E2F78170089583B3D0
S113088090E002C0959587956A95E2F78170089586
S113089080B390E002C0959587956A95E2F78170E0
S10D08A0089580E00895F894FFCF56
S11308AA00000001000200030210021102120213E6
S11308BA00030003010302030303040305030601FF
S11308CA00000004000500060007010201030104F8
S10F08DA01013F065B4F666D7D077F6FD8
S9030000FC
