:100000000C942A000C9447000C9447000C94470071
:100010000C945C050C9433050C9447000C940A0571
:100020000C9447000C94E1040C94B8040C948F04D5
:100030000C9447000C94C0060C9447000C94E906FD
:100040000C9447000C9447000C9447000C94470014
:100050000C94470011241FBECFE5D8E0DEBFCDBF12
:1000600010E0A0E6B0E0ECE7FEE002C005900D92E3
:10007000A639B107D9F720E0A6E9B0E001C01D928A
:10008000A43BB207E1F70E94C6020C943C070C9413
:1000900000008091AB008F5F8093AB000895DC017E
:1000A00081E08093B10090E040E010C0292F30E063
:1000B000FD01E20FF31F5081FB01E20FF31F2081CE
:1000C000521719F01092B10041E09F5F953010F483
:1000D000442361F38091B1000895EF92FF920F9352
:1000E0001F93CF937C01C0E00EC087010C0F111D40
:1000F0000E941607F801808383EC99E00197F1F7DD
:1001000000C00000CF5FC53080F3CF911F910F91E9
:10011000FF90EF9008950E941607833FE1F784EF68
:100120000E9412070E9416078093B20085EF0E947A
:1001300012078091B2000895CF93C82F83EF0E94D9
:1001400012070E941607843FE1F78C2F0E941207C6
:100150000E941607853FE1F7CF910895CF93DF9373
:10016000CDB7DEB72B970FB6F894DEBF0FBECDBF6D
:100170008BE0E4E6F0E0DE01119601900D928A95A5
:10018000E1F7CE0101960E94850561E089E490E0E7
:100190000E941E062B960FB6F894DEBF0FBECDBF91
:1001A000DF91CF9108950E94AE0061E080E80E9447
:1001B0008D028091AB008F30E1F71092AB0063E0CD
:1001C00080E80E948D028091AB008330E1F71092AD
:1001D000AB0062E080E80E948D028091AB008F301E
:1001E000E1F71092AB0063E080E80E948D0281E0AD
:1001F0000E94330608950F931F93CF938C01C0E0A4
:1002000010C08C2F90E0B801680F791F8F5E9C4F53
:100210000E942B028FE19EE40197F1F700C00000DD
:10022000CF5FC53070F3CF911F910F9108950F9359
:100230001F93CF938C01C0E011C08C2F90E0F80188
:10024000E80FF91F60818F5E9C4F0E94F4018FE1DF
:100250009EE40197F1F700C00000CF5FC53068F35E
:10026000CF911F910F9108951092B10026C00E9466
:100270008B00863FE1F786EA90E00E946D000E94C5
:100280008B00873FE1F781EA90E00E946D0061EA10
:1002900070E086EA90E00E944F008093B1008111E7
:1002A00003C00E949C0009C0813039F486EA90E0C6
:1002B0000E94170181E00E949C008091B100882378
:1002C000B1F208958091B3008F5F8093B3008330C3
:1002D00079F40E94AE000E94E8018091AB008C335B
:1002E000E1F71092AB001092B30081E00E94330658
:1002F0000E94EE010895CF93DF9300D000D000D08C
:10030000CDB7DEB70E94CB0278940E94AE0686E09D
:10031000EFE6F0E0DE01119601900D928A95E1F78B
:10032000CE0101960E9469060E947D0226960FB6B4
:10033000F894DEBF0FBECDBFDF91CF9108950E942C
:1003400034010E948B00883FE1F786EA90E00E942A
:100350006D000E948B008B3219F08D32E9F0F1CFE5
:100360008CEA90E00E94FB006CEA70E086EA90E084
:100370000E944F008093B100813031F48BE20E94E3
:100380009C000E94D300DDCF8111DBCF81EF0E9462
:100390009C000E946201D5CF8CEA90E00E94FB0095
:1003A0006CEA70E086EA90E00E944F008093B10012
:1003B000813031F482EF0E949C000E943401C1CF51
:1003C0008111BFCF81EF0E949C000E946201B9CFD2
:1003D00061E0809196000E94BC03089560E08091E6
:1003E00096000E94BC0308951F93CF93DF93EC0106
:1003F000162F0E9494060E94AB06883009F5CE01A4
:1004000088279770880F892F881F990B9195806A8C
:100410000E949D060E94AB068831A1F48C2F0E9499
:100420009D060E94AB06883279F4812F0E949D06BA
:100430000E94AB06883251F40E949A0681E007C000
:1004400080E005C080E003C080E001C080E0DF9173
:10045000CF911F910895EF92FF920F931F93CF9327
:10046000DF93EC018B010E9494060E94AB0688305A
:1004700091F57E01EE2487E0F822EE0CEF2CEE1CC5
:10048000FF08F1948E2D806A0E949D060E94AB06A3
:10049000883119F58C2F0E949D060E94AB06883288
:1004A000F1F40E9494060E94AB068031D1F48E2DA7
:1004B000816A0E949D060E94AB068034A1F40E94CE
:1004C000A406F80180830E94AB06883571F40E946F
:1004D0009A0681E00BC080E009C080E007C080E0A0
:1004E00005C080E003C080E001C080E0DF91CF91D3
:1004F0001F910F91FF90EF900895CF93DF93C0E687
:10050000D0E0888190E00E943E0440E062E0888173
:100510000E946504DF91CF9108950F931F93CF93AD
:10052000C82F623081F06330D9F0613029F500E6E0
:1005300010E0F80182810E94BC0360E0F801838131
:100540000E94BC0319C000E610E060E0F80182815F
:100550000E94BC0361E0F80183810E94BC030CC0CF
:1005600000E610E060E0F80182810E94BC0360E0D8
:10057000F80183810E94BC034C2F62E080916000EF
:100580000E946504CF911F910F9108950E947B01F5
:100590000E949F01FFCF80E0EBC0E82FF0E0EB5816
:1005A000FF4F9081282F269526952695382F377056
:1005B000913009F441C020F0923009F48DC0D7C0C9
:1005C000213099F028F02230E9F0233041F1CFC0FA
:1005D0009AB341E050E0BA0102C0660F771F3A9526
:1005E000E2F79B01292B2ABBC2C097B341E050E040
:1005F000BA0102C0660F771F3A95E2F79B01292BDB
:1006000027BBB5C094B341E050E0BA0102C0660F09
:10061000771F3A95E2F79B01292B24BBA8C091B321
:1006200041E050E0BA0102C0660F771F3A95E2F749
:100630009B01292B21BB9BC02130C1F028F0223027
:1006400039F12330B9F193C09AB341E050E0BA01D7
:1006500002C0660F771F3A95E2F79B01362F30955F
:1006600093239ABB9BB3292B2BBB81C097B341E04B
:1006700050E0BA0102C0660F771F3A95E2F79B017E
:10068000362F3095932397BB98B3292B28BB6FC087
:1006900094B341E050E0BA0102C0660F771F3A956B
:1006A000E2F79B01362F3095932394BB95B3292B0A
:1006B00025BB5DC091B341E050E0BA0102C0660FB6
:1006C000771F3A95E2F79B01362F3095932391BB24
:1006D00092B3292B22BB4BC02130B9F028F0223035
:1006E00029F12330A1F143C09AB341E050E0BA01AF
:1006F00002C0660F771F3A95E2F79B01209592237F
:100700009ABB9BB329232BBB32C097B341E050E087
:10071000BA0102C0660F771F3A95E2F79B01209558
:10072000922397BB98B3292328BB21C094B341E0FF
:1007300050E0BA0102C0660F771F3A95E2F79B01BD
:100740002095922394BB95B3292325BB10C091B368
:1007500041E050E0BA0102C0660F771F3A95E2F718
:100760009B012095922391BB92B3292322BB8F5FDB
:10077000803208F412CF0895982F97708695869549
:100780008695813021F130F08230F1F1833009F427
:1007900058C00895613069F44BB321E030E0B901ED
:1007A00002C0660F771F9A95E2F7CB01842B8BBBB3
:1007B00008954BB321E030E0B90102C0660F771F06
:1007C0009A95E2F7CB01809584238BBB0895613025
:1007D00069F448B321E030E0B90102C0660F771F29
:1007E0009A95E2F7CB01842B88BB089548B321E0AA
:1007F00030E0B90102C0660F771F9A95E2F7CB018E
:100800008095842388BB0895613069F445B321E065
:1008100030E0B90102C0660F771F9A95E2F7CB016D
:10082000842B85BB089545B321E030E0B90102C0B7
:10083000660F771F9A95E2F7CB018095842385BBDD
:100840000895613069F442B321E030E0B90102C09B
:10085000660F771F9A95E2F7CB01842B82BB089530
:1008600042B321E030E0B90102C0660F771F9A95CC
:10087000E2F7CB018095842382BB0895813091F00B
:1008800018F08230E9F008958EB59FB59F739FBD33
:100890008EBD8EB59FB5826091689FBD8EBD1BBC1D
:1008A0001ABC08958EB59FB59F7C9FBD8EBD8EB539
:1008B0009FB5826091629FBD8EBD19BC18BC089522
:1008C00085B5826685BD13BC0895813091F018F01E
:1008D0008230E9F008958EB59FB5887F9FBD8EBDAB
:1008E0008EB59FB5862B9FBD8EBD50E05BBD4ABDCA
:1008F00008958EB59FB5887F9FBD8EBD8EB59FB57F
:10090000862B9FBD8EBD50E059BD48BD089585B56D
:10091000887F85BD85B5682B65BD43BD08951F9251
:100920000F920FB60F9211242F933F934F935F9323
:100930006F937F938F939F93AF93BF93EF93FF93A7
:10094000E0919B00F0919C00309709F00995FF9190
:10095000EF91BF91AF919F918F917F916F915F9137
:100960004F913F912F910F900FBE0F901F901895B0
:100970001F920F920FB60F9211242F933F934F9314
:100980005F936F937F938F939F93AF93BF93EF93F7
:10099000FF93E0919B00F0919C00309709F009953E
:1009A000FF91EF91BF91AF919F918F917F916F9147
:1009B0005F914F913F912F910F900FBE0F901F901D
:1009C00018951F920F920FB60F9211242F933F93F9
:1009D0004F935F936F937F938F939F93AF93BF9347
:1009E000EF93FF93E0919900F0919A00309709F00E
:1009F0000995FF91EF91BF91AF919F918F917F9159
:100A00006F915F914F913F912F910F900FBE0F907B
:100A10001F9018951F920F920FB60F9211242F93CB
:100A20003F934F935F936F937F938F939F93AF9376
:100A3000BF93EF93FF93E0919900F0919A00309764
:100A400009F00995FF91EF91BF91AF919F918F911F
:100A50007F916F915F914F913F912F910F900FBEBA
:100A60000F901F9018951F920F920FB60F9211249E
:100A70002F933F934F935F936F937F938F939F93A6
:100A8000AF93BF93EF93FF93E0919700F09198009D
:100A9000309709F00995FF91EF91BF91AF919F9128
:100AA0008F917F916F915F914F913F912F910F9017
:100AB0000FBE0F901F9018951F920F920FB60F92B6
:100AC00011242F933F934F935F936F937F938F9353
:100AD0009F93AF93BF93EF93FF93E0919700F091B3
:100AE0009800309709F00995FF91EF91BF91AF9170
:100AF0009F918F917F916F915F914F913F912F9136
:100B00000F900FBE0F901F901895FC0180818130CF
:100B1000C1F120F0823009F45FC0089583B7806886
:100B200083BF23B79181892F90E0880F991F880F89
:100B3000991F880F991F922F977F892B83BF83B7A7
:100B40009681887F892B83BF29B781E090E001805F
:100B500002C0880F991F0A94E2F7822B89BF828115
:100B600082BF8181813031F487818CBF89B78260F7
:100B700089BF0895813009F060C089B7816089BF5D
:100B800008958CE08FBD86818EBD2EB59181892F11
:100B900090E0880F991F880F991F880F991F922F37
:100BA000977F892B8EBD82819381A481B5819DBD64
:100BB0008CBD8181813051F487819085A185B2857A
:100BC0009BBD8ABD89B7806189BF08958130A9F531
:100BD00089B7846089BF089583B7806883BF25B5CE
:100BE0009181892F90E0880F991F880F991F880F96
:100BF000991F922F977F892B85BD85B59681887F18
:100C0000892B85BD29B781E090E0018002C0880F63
:100C1000991F0A94E2F7822B89BF828184BD81816A
:100C2000813031F487818CBF89B7806889BF08958E
:100C3000813019F489B7806489BF0895613049F023
:100C400018F0623059F0089590939C0080939B00B7
:100C5000089590939A008093990008959093980036
:100C6000809397000895813089F018F0823021F147
:100C7000089583B713BE82B712BE8CB71CBE89B766
:100C8000827089BF89B7817089BF08958FB51FBCF5
:100C90008EB51EBC8CB59DB51DBC1CBC8AB59BB564
:100CA0001BBC1ABC89B7807189BF89B7887089BF9E
:100CB00089B7847089BF089585B515BC84B514BC07
:100CC00083B513BC89B7807889BF89B7807489BF21
:100CD00008951F93CF93DF93EC018C8181B9288114
:100CE00039814A815B8160E072E18AE790E00E948D
:100CF0001A07CA01B90160517109810991092C8152
:100D000014E0212730E0220F331F032E000C440B88
:100D1000550B0E941A0720B98D81880F82B916BF22
:100D2000DF91CF911F91089584EA86BF06B607FE32
:100D3000FDCF089584E986BF089583B984E886BF0E
:100D400006B607FEFDCF089584E886BF06B607FE07
:100D5000FDCF83B1089581B1887F08958BB18D7FD8
:100D60008BB98AB18B7F8AB986E880BD10BC83E3DA
:100D700089B98AB180618AB98AB188608AB90895CF
:100D80001F920F920FB60F9211242F933F934F9300
:100D90005F936F937F938F939F93AF93BF93EF93E3
:100DA000FF93E0919F00F091A000309709F0099522
:100DB000FF91EF91BF91AF919F918F917F916F9133
:100DC0005F914F913F912F910F900FBE0F901F9009
:100DD00018951F920F920FB60F9211242F933F93E5
:100DE0004F935F936F937F938F939F93AF93BF9333
:100DF000EF93FF93E0919D00F0919E00309709F0F2
:100E00000995FF91EF91BF91AF919F918F917F9144
:100E10006F915F914F913F912F910F900FBE0F9067
:100E20001F9018955D9BFECF8CB908955F9BFECFF8
:100E30008CB10895A1E21A2EAA1BBB1BFD010DC0A7
:100E4000AA1FBB1FEE1FFF1FA217B307E407F5077A
:100E500020F0A21BB30BE40BF50B661F771F881F56
:100E6000991F1A9469F760957095809590959B01EC
:0C0E7000AC01BD01CF010895F894FFCF44
:100E7C00021F080901010000000005851E0000800A
:100E8C001A06000001000000000000000000000035
:100E9C000000000000000000000000000002000143
:060EAC000100000000003F
:00000001FF
