:100000000C942A000C9447000C9447000C94470071
:100010000C9447000C9447000C9447000C949707ED
:100020000C9447000C9447000C9447000C94470034
:100030000C9447000C9447000C9447000C94470024
:100040000C9447000C9447000C9447000C94470014
:100050000C94470011241FBECFE5D8E0DEBFCDBF12
:1000600010E0A0E6B0E0EEEAF3E302C005900D92E6
:10007000A83AB107D9F713E0A8EAB0E001C01D9291
:10008000A63AB107E1F70E9471190C94D5190C94A6
:100090000000DF93CF93CDB7DEB727970FB6F89464
:1000A000DEBF0FBECDBF9D838C836E834F838AE1FD
:1000B00090E00E9421039A83898389819A81009725
:1000C00009F46FC08091A8009091A900009741F4B5
:1000D00089819A819093A9008093A8000E94B00220
:1000E0008E81823010F081E08E83E981FA81118E59
:1000F000108EE981FA818E81868BE981FA818F8168
:10010000878BE981FA818C819D81918380838981AC
:100110009A8102960E94B70389819A810C960E9467
:10012000B703E981FA8189819A8191878087E98182
:10013000FA8189819A81938B828B8E81282F30E07E
:1001400085E090E0821B930BE981FA819587848793
:10015000E981FA8196898091AA00891728F4E981BA
:10016000FA8186898093AA00E981FA818689282FFD
:1001700030E0C901880F991F880F991F880F991FB8
:10018000820F931FAC014F545F4F89819A819C016C
:100190002E5F3F4FCA01B9010E94C70381E08B83E4
:1001A00002C08FEF8B838B8127960FB6F894DEBF4A
:1001B0000FBECDBFCF91DF910895DF93CF9300D0D5
:1001C00000D000D0CDB7DEB79C838B837E836D8358
:1001D0002091AB003091AC008B819C81820F931FEA
:1001E0009A8389838091A8009091A90002960E9429
:1001F0007F04E091A800F091A90089819A819383FE
:1002000082832091AB003091AC0089819A81821762
:10021000930770F48091D7009091D8002091A800A6
:100220003091A9002E5F3F4FB9010E9413040DC009
:100230008091D5009091D6002091A8003091A9001E
:100240002E5F3F4FB9010E9413048D819E8100975C
:1002500061F08091A8009091A9009C01245F3F4F1C
:100260008D819E81B9010E94130426960FB6F894E1
:10027000DEBF0FBECDBFCF91DF910895DF93CF9347
:1002800000D0CDB7DEB73AC0F894E091DE00F0912F
:10029000DF00868197819A83898389819A810C9670
:1002A0000E947F04789489819A8102960E947F043B
:1002B000E981FA8196898091AA00891728F4E98159
:1002C000FA8186898093AA00E981FA818689282F9C
:1002D00030E0C901880F991F880F991F880F991F57
:1002E000820F931FAC014F545F4F89819A819C010B
:1002F0002E5F3F4FCA01B9010E94C7038091D90008
:10030000882309F0C1CF0F900F90CF91DF9108950E
:10031000DF93CF9300D000D0CDB7DEB70E94ED0EB3
:100320002091AD003091AE00821B930B9093B000F2
:100330008093AF0085C08091AB009091AC00019696
:100340009093AC008093AB008091AF009091B0008F
:1003500001979093B0008093AF008091AB00909193
:10036000AC00009709F064C08091D5009091D60050
:100370009A8389838091D7009091D8009093D6007A
:100380008093D50089819A819093D8008093D7007B
:100390004FC0E091D500F091D6000580F681E02DA8
:1003A000868197819C838B83EB81FC8122813381C1
:1003B0008091AB009091AC008217930708F440C085
:1003C000F8948B819C8102960E947F04EB81FC81D2
:1003D00084899589009729F08B819C810C960E94D5
:1003E0007F047894EB81FC8196898091AA0089171B
:1003F00028F4EB81FC8186898093AA00EB81FC8143
:100400008689282F30E0C901880F991F880F991F0E
:10041000880F991F820F931FAC014F545F4F8B8140
:100420009C819C012E5F3F4FCA01B9010E94C70306
:10043000E091D500F091D6008081882309F0A9CF02
:100440008091AF009091B000009709F074CF809137
:10045000AB009091AC009093AE008093AD000F90F4
:100460000F900F900F90CF91DF910895DF93CF936E
:1004700000D0CDB7DEB70E943E010E9488010AC0BD
:100480008091AA00882309F466C08091AA00815057
:100490008093AA008091AA00282F30E0C901880F1C
:1004A000991F880F991F880F991F820F931FFC01B6
:1004B000EF54FF4F8081882319F38091AA00282FE1
:1004C00030E0C901880F991F880F991F880F991F65
:1004D000820F931F8F549F4F9A838983E981FA81FA
:1004E0000180F281E02D82819381E981FA819283FA
:1004F0008183E981FA812181328189819A81039600
:100500002817390759F4E981FA810180F281E02D39
:1005100082819381E981FA8192838183E981FA81E1
:100520000180F281E02D868197819093A9008093CC
:10053000A800E091A800F091A9004081518180912C
:10054000A8009091A900E091A800F091A900278946
:10055000622FFA0109950F900F90CF91DF910895C6
:10056000DF93CF930F92CDB7DEB7198213C0898185
:10057000282F30E0C901880F991F880F991F880F15
:10058000991F820F931F8F549F4F0E948D03898163
:100590008F5F89838981823050F383EC90E00E94E1
:1005A0008D038CEC90E00E948D0389ED90E00E9419
:1005B0008D0383EC90E09093D6008093D5008CEC73
:1005C00090E09093D8008093D7000F90CF91DF9167
:1005D0000895DF93CF9300D000D00F92CDB7DEB750
:1005E0009D838C83EC81FD810580F681E02D8681E1
:1005F00097819B838A838A819B810C960E947F04CA
:100600008A819B819C01245F3F4F89ED90E0B90175
:100610000E94C703EA81FB819689E091A800F091CE
:10062000A9008689981718F081E0898301C0198292
:1006300089810F900F900F900F900F90CF91DF91C5
:100640000895DF93CF9300D000D0CDB7DEB79C8361
:100650008B831A8219820E94570E8091E20090913A
:10066000E3002B813C81820F931F22E088359207A3
:1006700018F52091E2003091E3008B819C81280FD6
:10068000391F8091E2009091E30082179307A0F454
:100690008091E2009091E3008C519F4F9A8389836F
:1006A0002091E2003091E3008B819C81820F931FA7
:1006B0009093E3008093E2000E94630E89819A8107
:1006C0000F900F900F900F90CF91DF910895DF93CF
:1006D000CF9300D0CDB7DEB79A8389830F900F9068
:1006E000CF91DF910895DF93CF93CDB7DEB710920E
:1006F000E3001092E200CF91DF910895DF93CF9352
:10070000CDB7DEB72091E2003091E30088E592E0BA
:10071000821B930BCF91DF910895DF93CF9300D08D
:10072000CDB7DEB79A83898389819A810396E9815F
:10073000FA8192838183E981FA818FEF9FEF94831D
:10074000838389819A810396E981FA8196838583DF
:1007500089819A810396E981FA8190878783E9816B
:10076000FA8110820F900F90CF91DF910895DF935F
:10077000CF9300D0CDB7DEB79A838983E981FA8120
:10078000118610860F900F90CF91DF910895DF931F
:10079000CF9300D000D000D0CDB7DEB79C838B8341
:1007A0007E836D83EB81FC81818192819A83898331
:1007B000E981FA8182819381ED81FE819383828335
:1007C000EB81FC8181819281ED81FE81958384831F
:1007D000E981FA810280F381E02D8D819E819583EC
:1007E00084838D819E81E981FA81938382838D81C7
:1007F0009E81EB81FC8192838183ED81FE818B81DF
:100800009C8191878087EB81FC8180818F5FEB8168
:10081000FC81808326960FB6F894DEBF0FBECDBF55
:10082000CF91DF910895DF93CF93CDB7DEB72897AF
:100830000FB6F894DEBF0FBECDBF9E838D83788741
:100840006F83EF81F885808191819A838983898183
:100850009A812FEF8F3F920739F4ED81FE818781D6
:1008600090859C838B8318C08D819E8103969C8389
:100870008B8306C0EB81FC81828193819C838B8377
:10088000EB81FC810280F381E02D2081318189811F
:100890009A818217930770F7EB81FC8182819381A3
:1008A000EF81F88593838283EF81F8850280F3815D
:1008B000E02D8F81988595838483EF81F8858B81E6
:1008C0009C81958384838F819885EB81FC819383C0
:1008D0008283EF81F8858D819E8191878087ED816C
:1008E000FE8180818F5FED81FE81808328960FB627
:1008F000F894DEBF0FBECDBFCF91DF910895DF9397
:10090000CF9300D000D0CDB7DEB79C838B83EB8133
:10091000FC81A281B381EB81FC8184819581159654
:100920009C938E931497EB81FC81A481B581EB811C
:10093000FC818281938113969C938E931297EB8115
:10094000FC81808591859A838983E981FA8121815F
:1009500032818B819C812817390741F4EB81FC811E
:1009600084819581E981FA8192838183EB81FC8185
:1009700011861086E981FA8180818150E981FA81AE
:1009800080830F900F900F900F90CF91DF9108957B
:10099000DF93CF93CDB7DEB728970FB6F894DEBFBD
:1009A0000FBECDBF9C838B837E836D8358874F831F
:1009B000EB81FC8181E180838B819C8101979C8309
:1009C0008B83EB81FC8182E280838B819C81019708
:1009D0009C838B83EB81FC8183E380838B819C816F
:1009E00001979C838B838D819E819A8389838981E2
:1009F000EB81FC8180838B819C8101979C838B831D
:100A000089819A81892F99279A8389838981EB81AA
:100A1000FC8180838B819C8101979C838B83EB81FC
:100A2000FC8110828B819C8101979C838B83EB815D
:100A3000FC8180E880838B819C8101979C838B83E0
:100A4000EB81FC8110828B819C8101979C838B833D
:100A5000EB81FC8182E080838B819C8101979C8368
:100A60008B83EB81FC8183E080838B819C81019768
:100A70009C838B83EB81FC8184E080838B819C81D0
:100A800001979C838B83EB81FC8185E080838B8144
:100A90009C8101979C838B83EB81FC8186E0808322
:100AA0008B819C8101979C838B83EB81FC8187E008
:100AB00080838B819C8101979C838B83EB81FC815C
:100AC00088E080838B819C8101979C838B83EB8161
:100AD000FC8189E080838B819C8101979C838B833F
:100AE000EB81FC8180E180838B819C8101979C83D9
:100AF0008B83EB81FC8181E180838B819C810197D9
:100B00009C838B83EB81FC8182E180838B819C8140
:100B100001979C838B83EB81FC8183E180838B81B4
:100B20009C8101979C838B83EB81FC8184E1808392
:100B30008B819C8101979C838B83EB81FC8185E178
:100B400080838B819C8101979C838B83EB81FC81CB
:100B500086E180838B819C8101979C838B83EB81D1
:100B6000FC8187E180838B819C8101979C838B83AF
:100B7000EB81FC8188E180838B819C8101979C8340
:100B80008B83EB81FC8189E180838B819C81019740
:100B90009C838B83EB81FC8180E280838B819C81B1
:100BA00001979C838B83EB81FC8181E280838B8125
:100BB0009C8101979C838B83EB81FC8182E2808303
:100BC0008B819C8101979C838B83EB81FC8183E2E9
:100BD00080838B819C8101979C838B838F819885F7
:100BE0009A8389838981EB81FC8180838B819C81BD
:100BF00001979C838B8389819A81892F99279A8376
:100C000089838981EB81FC8180838B819C81019721
:100C10009C838B83EB81FC8186E280838B819C812A
:100C200001979C838B83EB81FC8187E280838B819E
:100C30009C8101979C838B83EB81FC8188E280837C
:100C40008B819C8101979C838B83EB81FC8189E262
:100C500080838B819C8101979C838B83EB81FC81BA
:100C600080E380838B819C8101979C838B83EB81C4
:100C7000FC8181E380838B819C8101979C838B83A2
:100C80008B819C8128960FB6F894DEBF0FBECDBF36
:100C9000CF91DF910895DF93CF93CDB7DEB70E9458
:100CA0003B07A0913C03B0913D03CD91CDBFDD91B9
:100CB000DEBFFF91EF91DF91CF91BF91AF919F91F7
:100CC0008F917F916F915F914F913F912F911F91E4
:100CD0000F91FF90EF90DF90CF90BF90AF909F90DB
:100CE0008F907F906F905F904F903F902F901F90CC
:100CF0000F900FBE0F90089581E0CF91DF9108957E
:100D0000DF93CF93CDB7DEB7CF91DF9108950F92E8
:100D10000FB6F8940F921F9211242F923F924F9288
:100D20005F926F927F928F929F92AF92BF92CF927B
:100D3000DF92EF92FF920F931F932F933F934F9366
:100D40005F936F937F938F939F93AF93BF93CF9353
:100D5000DF93EF93FF93A0913C03B0913D030DB659
:100D60000D920EB60D920E94F70FA0913C03B09128
:100D70003D03CD91CDBFDD91DEBFFF91EF91DF91BE
:100D8000CF91BF91AF919F918F917F916F915F9123
:100D90004F913F912F911F910F91FF90EF90DF9016
:100DA000CF90BF90AF909F908F907F906F905F900B
:100DB0004F903F902F901F900F900FBE0F9008956F
:100DC0000F920FB6F8940F921F9211242F923F9218
:100DD0004F925F926F927F928F929F92AF92BF924B
:100DE000CF92DF92EF92FF920F931F932F933F9337
:100DF0004F935F936F937F938F939F93AF93BF9323
:100E0000CF93DF93EF93FF93A0913C03B0913D0309
:100E10000DB60D920EB60D920E94220F0E94F70F92
:100E2000A0913C03B0913D03CD91CDBFDD91DEBFDC
:100E3000FF91EF91DF91CF91BF91AF919F918F91F2
:100E40007F916F915F914F913F912F911F910F91E2
:100E5000FF90EF90DF90CF90BF90AF909F908F90DA
:100E60007F906F905F904F903F902F901F900F90CA
:100E70000FBE0F900895DF93CF9300D000D000D025
:100E8000CDB7DEB780E49FE1A0E0B0E08B839C8328
:100E9000AD83BE838B819C81AD81BE81689415F842
:100EA000B695A795979587951694D1F78B839C83D4
:100EB000AD83BE838B819C81AD81BE810197A109E9
:100EC000B1098B839C83AD83BE838B8189838B81A6
:100ED0009C81AD81BE81892F9A2FAB2FBB278B833D
:100EE0009C83AD83BE838B818A83EBE4F0E08A81AF
:100EF0008083EAE4F0E0898180838BE08983EEE4FB
:100F0000F0E089818083E9E5F0E08081898389814F
:100F100080618983E9E5F0E08981808326960FB6B8
:100F2000F894DEBF0FBECDBFCF91DF9108950E9430
:100F3000E0061895DF93CF93CDB7DEB728970FB6AD
:100F4000F894DEBF0FBECDBF8F8368871A821982E7
:100F50008F81882309F48CC08FE190E00E942103E7
:100F60009E838D838D819E81009709F481C08F813E
:100F7000282F30E08885882F90E0AC01249FC001A5
:100F8000259F900D349F900D112401969C838B8397
:100F90008B819C810E942103ED81FE81918380835E
:100FA000ED81FE8180819181009709F45DC0ED8122
:100FB000FE81408151818F81282F30E08885882FE4
:100FC00090E0BC01269FC001279F900D369F900D99
:100FD0001124840F951FED81FE8193838283ED811F
:100FE000FE81128EED81FE8180819181ED81FE81F5
:100FF00095838483ED81FE81408151818F81882F8B
:1010000090E09C01215030408885882F90E0BC0101
:10101000269FC001279F900D369F900D1124840FAD
:10102000951FED81FE8197838683ED81FE818F81FF
:10103000838FED81FE818885848FED81FE818FEF26
:10104000858FED81FE818FEF868F8D819E81089641
:101050000E948D038D819E8141960E948D038D811A
:101060009E819A83898304C08D819E810E9467033B
:1010700089819A8128960FB6F894DEBF0FBECDBF46
:10108000CF91DF910895DF93CF93CDB7DEB72C9743
:101090000FB6F894DEBF0FBECDBF9E838D837887D9
:1010A0006F835A8749872B8719820FB6F8940F925E
:1010B000ED81FE81928DED81FE81838D9817D8F4AC
:1010C0008D819E812F813885B9014B850E947E0AD2
:1010D000ED81FE818189882349F08D819E81419631
:1010E0000E949310813011F40E9487060F900FBE6A
:1010F00081E08C875CC089859A85009721F40F90E8
:101100000FBE1C8654C08981882331F4CE0102961B
:101110000E94FB1081E089830F900FBE0E94570E42
:101120000FB6F8940F92ED81FE81858D8F3F19F4F3
:10113000ED81FE81158EED81FE81868D8F3F19F444
:10114000ED81FE81168E0F900FBECE0102969E019C
:10115000275F3F4FB9010E941411882309F58D8143
:101160009E810E94E20B8823A1F08D819E810896CA
:1011700029853A85B9010E945D108D819E810E946A
:101180005B0B0E94630E882309F08FCF0E948706B5
:101190008CCF8D819E810E945B0B0E94630E85CF58
:1011A0008D819E810E945B0B0E94630E1C868C8544
:1011B0002C960FB6F894DEBF0FBECDBFCF91DF9156
:1011C0000895DF93CF93CDB7DEB729970FB6F89484
:1011D000DEBF0FBECDBF9C838B837E836D8358871C
:1011E0004F8329871982EB81FC81928DEB81FC81F1
:1011F000838D981740F58B819C812D813E81B901AB
:1012000049850E947E0AEB81FC81868D8F3F89F49F
:10121000EB81FC818189882399F08B819C814196A7
:101220000E949310882361F0EF81F88581E080832C
:1012300007C0EB81FC81868D8F5FEB81FC81868FFF
:1012400081E08A8301C01A828A8129960FB6F894B8
:10125000DEBF0FBECDBFCF91DF910895DF93CF9357
:10126000CDB7DEB72E970FB6F894DEBF0FBECDBF59
:1012700098878F837A8769875C874B872D871B8246
:101280000FB6F8940F92EF81F885828D882309F4C8
:101290003FC0EF81F885868197819A8389838F810A
:1012A000988529853A85B9010E94130B8D8588237D
:1012B000B1F4EF81F885828D8150EF81F885828FBE
:1012C000EF81F88580858823F1F08F8198850896D5
:1012D0000E9493108130B9F40E94870614C0EF81F8
:1012E000F88589819A8197838683EF81F885818942
:1012F000882349F08F81988541960E949310882316
:1013000011F00E9487060F900FBE81E08E875CC0AF
:101310008B859C85009721F40F900FBE1E8654C0CC
:101320008B81882331F4CE0104960E94FB1081E06A
:101330008B830F900FBE0E94570E0FB6F8940F923A
:10134000EF81F885858D8F3F19F4EF81F885158E33
:10135000EF81F885868D8F3F19F4EF81F885168E21
:101360000F900FBECE0104969E01255F3F4FB9013D
:101370000E941411882309F58F8198850E94AF0B74
:101380008823A1F08F81988541962B853C85B901F2
:101390000E945D108F8198850E945B0B0E94630EF6
:1013A000882309F06DCF0E9487066ACF8F819885C8
:1013B0000E945B0B0E94630E63CF8F8198850E9411
:1013C0005B0B0E94630E1E868E852E960FB6F894D8
:1013D000DEBF0FBECDBFCF91DF910895DF93CF93D6
:1013E000CDB7DEB728970FB6F894DEBF0FBECDBFDE
:1013F0009C838B837E836D8358874F831982EB8117
:10140000FC81828D882371F18B819C812D813E81AD
:10141000B9010E94130BEB81FC81828D8150EB811D
:10142000FC81828FEB81FC81858D8F3F89F4EB817C
:10143000FC818085882399F08B819C8108960E948D
:101440009310882361F0EF81F88581E0808307C0E5
:10145000EB81FC81858D8F5FEB81FC81858F81E045
:101460008A8301C01A828A8128960FB6F894DEBF5B
:101470000FBECDBFCF91DF910895DF93CF9300D002
:101480000F92CDB7DEB79B838A830FB6F8940F9285
:10149000EA81FB81828D89830F900FBE89810F9035
:1014A0000F900F90CF91DF910895DF93CF9300D0ED
:1014B0000F92CDB7DEB79B838A83EA81FB81828D51
:1014C000898389810F900F900F90CF91DF910895BC
:1014D000DF93CF9300D0CDB7DEB79A838983E981BC
:1014E000FA81808191810E94670389819A810E949B
:1014F00067030F900F90CF91DF910895DF93CF9303
:1015000000D000D00F92CDB7DEB79A8389837C8359
:101510006B834D83E981FA81848D882309F474C03B
:101520008D81882399F5E981FA8164817581E9814A
:10153000FA81848D482F50E02B813C81CB01B90189
:101540000E94B619E981FA8124813581E981FA8105
:10155000848D882F90E0820F931FE981FA81958313
:101560008483E981FA8124813581E981FA8182814C
:1015700093812817390708F447C0E981FA818081EF
:101580009181E981FA81958384833EC0E981FA8162
:1015900066817781E981FA81848D482F50E02B8123
:1015A0003C81CB01B9010E94B619E981FA812681FB
:1015B0003781E981FA81848D882F90E0909581951B
:1015C0009F4F820F931FE981FA8197838683E98178
:1015D000FA8126813781E981FA81808191812817FA
:1015E000390790F4E981FA8122813381E981FA8116
:1015F000848D882F90E0909581959F4F820F931F47
:10160000E981FA8197838683E981FA81828D8F5FF0
:10161000E981FA81828F0F900F900F900F900F90B9
:10162000CF91DF910895DF93CF9300D000D0CDB755
:10163000DEB79A8389837C836B83E981FA81808119
:101640009181009789F1E981FA8126813781E981C9
:10165000FA81848D882F90E0820F931FE981FA81AF
:1016600097838683E981FA8126813781E981FA812E
:10167000828193812817390740F0E981FA818081BE
:101680009181E981FA8197838683E981FA81468194
:101690005781E981FA81848D282F30E08B819C81EC
:1016A000BA01A9010E94B6190F900F900F900F90E8
:1016B000CF91DF910895DF93CF9300D0CDB7DEB700
:1016C0009A8389830FB6F8940F9215C0E981FA8145
:1016D00081898823A9F089819A8141960E9493107B
:1016E000882311F00E947111E981FA81868D815061
:1016F000E981FA81868FE981FA81868D181634F3A3
:10170000E981FA818FEF868F0F900FBE0FB6F894A4
:101710000F9215C0E981FA8180858823A9F089811B
:101720009A8108960E949310882311F00E947111EB
:10173000E981FA81858D8150E981FA81858FE9817E
:10174000FA81858D181634F3E981FA818FEF858F40
:101750000F900FBE0F900F90CF91DF910895DF9300
:10176000CF9300D00F92CDB7DEB79B838A830FB69D
:10177000F8940F92EA81FB81828D1982882311F4FB
:1017800081E089830F900FBE89810F900F900F9099
:10179000CF91DF910895DF93CF9300D00F92CDB713
:1017A000DEB79B838A83EA81FB81828D198288233D
:1017B00011F481E0898389810F900F900F90CF9170
:1017C000DF910895DF93CF9300D00F92CDB7DEB7AE
:1017D0009B838A830FB6F8940F92EA81FB81928DE6
:1017E000EA81FB81838D1982981711F481E0898346
:1017F0000F900FBE89810F900F900F90CF91DF91C6
:101800000895DF93CF9300D00F92CDB7DEB79B83BF
:101810008A83EA81FB81928DEA81FB81838D198223
:10182000981711F481E0898389810F900F900F90B0
:10183000CF91DF910895AF92BF92CF92DF92EF9256
:10184000FF920F931F93DF93CF93CDB7DEB76497CB
:101850000FB6F894DEBF0FBECDBF9F838E8379870E
:1018600068875B874A873D872C870E87F88AEF86D3
:10187000DA8AC98ABC8AAB8A8A859B8529893A8992
:10188000B9010E94A0129C838B838B819C8100975D
:1018900009F499C0EB81FC812789308D8A859B856D
:1018A0000197820F931F9A8389838B819C8128855E
:1018B0003985EB89FC89AA85BB85B9014E859F01D5
:1018C0008D010E94851189819A812E813F814C85ED
:1018D0005D85B9010E94C804EB81FC8191838083FE
:1018E0008F859889009731F0EF85F8898B819C81ED
:1018F000918380830FB6F8940F9280913F038F5F9E
:1019000080933F0380913C0390913D03009769F4DD
:101910008B819C8190933D0380933C0380913F0396
:101920008130A9F40E94DC1112C080914403882305
:1019300071F4E0913C03F0913D0396898E858917FF
:1019400030F08B819C8190933D0380933C03EB812D
:10195000FC81968980914203891728F4EB81FC81F0
:10196000868980934203809149038F5F8093490366
:10197000EB81FC81968980914303891728F4EB81E0
:10198000FC81868980934303EB81FC818689282F23
:1019900030E0C901880F991F880F991F880F991F80
:1019A000820F931FAC01465B5C4F8B819C819C0135
:1019B0002E5F3F4FCA01B9010E94C70381E08D83AA
:1019C0000F900FBE02C08FEF8D838D81813071F437
:1019D00080914403882351F0E0913C03F0913D0352
:1019E00096898E85981710F40E9487068D816496DB
:1019F0000FB6F894DEBF0FBECDBFCF91DF911F9120
:101A00000F91FF90EF90DF90CF90BF90AF9008952F
:101A1000DF93CF9300D000D000D0CDB7DEB79C834A
:101A20008B830FB6F8940F9220913C0330913D03C5
:101A30008B819C818217930711F41C821B828B81FE
:101A40009C81009739F480913C0390913D039E83E3
:101A50008D8304C08B819C819E838D838D819E812B
:101A60009A83898389819A8102960E947F04E98101
:101A7000FA8184899589009729F089819A810C9649
:101A80000E947F0489819A819C012E5F3F4F86E9E5
:101A900093E0B9010E94C70380913E038F5F80935A
:101AA0003E03809149038F5F809349030F900FBEDF
:101AB00080914403882331F08B819C81009711F43D
:101AC0000E94870626960FB6F894DEBF0FBECDBFE4
:101AD000CF91DF910895DF93CF93CDB7DEB72897ED
:101AE0000FB6F894DEBF0FBECDBF9E838D8378877F
:101AF0006F8319820E94570EED81FE812081318112
:101B00008F819885820F931F9C838B83ED81FE814B
:101B10002081318180914003909141038217930786
:101B2000A8F4ED81FE81208131818B819C81821717
:101B3000930700F520914003309141038B819C81F4
:101B400028173907B8F481E0898314C0ED81FE813C
:101B5000208131818B819C818217930748F02091ED
:101B60004003309141038B819C812817390710F481
:101B700081E08983ED81FE818B819C8191838083CB
:101B80008981882359F080913C0390913D0302960E
:101B90000E947F048B819C810E9457120E94630ED9
:101BA0008A838A81882311F40E94870628960FB6BB
:101BB000F894DEBF0FBECDBFCF91DF910895DF93C4
:101BC000CF9300D000D00F92CDB7DEB79D838C832A
:101BD00019828C819D810097D1F00E94570E20912F
:101BE0004003309141038C819D81820F931F9B8321
:101BF0008A8380913C0390913D0302960E947F046A
:101C00008A819B810E9457120E94630E8983898179
:101C1000882311F40E9487060F900F900F900F9069
:101C20000F90CF91DF910895AF92BF92CF92DF9244
:101C3000EF92FF920F93DF93CF930F92CDB7DEB762
:101C400020E630E08BE791E1B90145E550E020E086
:101C500030E000E0EE24FF24CC24DD24AA24BB24C1
:101C60000E941B0C89838981813051F4F89481E0B2
:101C70008093440310924103109240030E944B064C
:101C80000F90CF91DF910F91FF90EF90DF90CF9069
:101C9000BF90AF900895DF93CF93CDB7DEB7F894A0
:101CA000109244030E948006CF91DF910895DF9344
:101CB000CF93CDB7DEB7809145038F5F8093450307
:101CC000CF91DF910895DF93CF9300D000D0CDB7AF
:101CD000DEB71A820FB6F8940F92809145038150B7
:101CE0008093450380914503882309F06CC080915F
:101CF0003F03882309F467C0198241C0E091920331
:101D0000F0919303868197819C838B838B819C8147
:101D10000C960E947F048B819C8102960E947F0416
:101D2000EB81FC81968980914303891728F4EB812C
:101D3000FC81868980934303EB81FC818689282F6F
:101D400030E0C901880F991F880F991F880F991FCC
:101D5000820F931F865B9C4F2B813C812E5F3F4FF0
:101D6000B9010E94C703EB81FC819689E0913C0395
:101D7000F0913D038689981710F081E08983809166
:101D80008D03882309F0BACF80914603882371F030
:101D900007C00E94220F8091460381508093460322
:101DA000809146038823A9F781E089838981813066
:101DB00021F080914703813031F481E08A831092D1
:101DC00047030E9487060F900FBE8A810F900F90E5
:101DD0000F900F90CF91DF910895DF93CF9300D0B4
:101DE000CDB7DEB70FB6F8940F9280914003909173
:101DF00041039A8389830F900FBE89819A810F9046
:101E00000F90CF91DF910895DF93CF9300D00F9281
:101E1000CDB7DEB7198280914003909141039B8337
:101E20008A838A819B810F900F900F90CF91DF91D1
:101E30000895DF93CF93CDB7DEB780913F03CF9165
:101E4000DF910895DF93CF9300D000D000D0CDB7BD
:101E5000DEB780914503882309F0BBC08091400321
:101E600090914103019690934103809340038091A8
:101E70004003909141030097D1F58091890390919F
:101E80008A039C838B8380918B0390918C03909326
:101E90008A03809389038B819C8190938C03809328
:101EA0008B03809148038F5F80934803E0918903FF
:101EB000F0918A038081882339F48FEF9FEF90930C
:101EC00066008093650013C0E0918903F0918A0356
:101ED0000580F681E02D868197819E838D83ED813B
:101EE000FE818281938190936600809365002091AA
:101EF000400330914103809165009091660028175E
:101F0000390708F46BC0E0918903F0918A0380815E
:101F1000882339F48FEF9FEF9093660080936500DC
:101F20005DC0E0918903F0918A030580F681E02D80
:101F3000868197819E838D83ED81FE81828193814D
:101F40009A838983209140033091410389819A814A
:101F50002817390738F489819A8190936600809315
:101F600065003CC08D819E8102960E947F04ED81B8
:101F7000FE8184899589009729F08D819E810C9638
:101F80000E947F04ED81FE81968980914303891729
:101F900028F4ED81FE81868980934303ED81FE81E3
:101FA0008689282F30E0C901880F991F880F991F53
:101FB000880F991F820F931FAC01465B5C4F8D8188
:101FC0009E819C012E5F3F4FCA01B9010E94C70349
:101FD0009ACF809146038F5F8093460326960FB673
:101FE000F894DEBF0FBECDBFCF91DF910895DF9390
:101FF000CF9300D0CDB7DEB780914503882349F059
:1020000081E08093470354C08091430381508093C3
:10201000430380914303282F30E0C901880F991FA3
:10202000880F991F880F991F820F931FFC01E65B91
:10203000FC4F8081882341F380914303282F30E0B7
:10204000C901880F991F880F991F880F991F820F48
:10205000931F865B9C4F9A838983E981FA81018073
:10206000F281E02D82819381E981FA8192838183DB
:10207000E981FA812181328189819A810396281729
:10208000390759F4E981FA810180F281E02D8281DA
:102090009381E981FA8192838183E981FA810180C8
:1020A000F281E02D8681978190933D0380933C03DC
:1020B0000F900F90CF91DF910895DF93CF9300D0D1
:1020C00000D000D0CDB7DEB79C838B837E836D8339
:1020D0004B815C8180913C0390913D039C01245F86
:1020E0003F4FCA01B9010E94130480913C039091B3
:1020F0003D0302960E947F042091400330914103EA
:102100008D819E81820F931F9A83898389819A8111
:102110000E94571226960FB6F894DEBF0FBECDBFB1
:10212000CF91DF910895DF93CF9300D000D00F922D
:10213000CDB7DEB79D838C83EC81FD810580F68170
:10214000E02D868197819B838A838A819B810C966F
:102150000E947F0480914503882361F58A819B81D9
:1021600002960E947F04EA81FB8196898091430355
:10217000891728F4EA81FB81868980934303EA81E9
:10218000FB818689282F30E0C901880F991F880FAD
:10219000991F880F991F820F931FAC01465B5C4FFC
:1021A0008A819B819C012E5F3F4FCA01B9010E9429
:1021B000C7030AC08A819B819C01245F3F4F8DE841
:1021C00093E0B9010E94C703EA81FB819689E091FF
:1021D0003C03F0913D038689981718F081E08983CC
:1021E00001C0198289810F900F900F900F900F906E
:1021F000CF91DF910895DF93CF9300D0CDB7DEB7B5
:102200009A83898380914803E981FA818083809150
:10221000400390914103E981FA81928381830F9079
:102220000F90CF91DF910895DF93CF9300D000D02E
:102230000F92CDB7DEB79B838A837D836C830FB605
:10224000F8940F92EA81FB8190818091480398175E
:1022500071F0EA81FB81218132818091400390916C
:1022600041038217930718F081E089832FC02091E2
:10227000400330914103EA81FB8181819281281BD7
:10228000390BEC81FD818081918128173907E0F4B9
:10229000EC81FD8140815181EA81FB812181328184
:1022A0008091400390914103B901681B790BCB01E8
:1022B000840F951FEC81FD81918380838A819B81AE
:1022C0000E94FB10198202C081E089830F900FBE2B
:1022D00089810F900F900F900F900F90CF91DF9109
:1022E0000895DF93CF93CDB7DEB781E080934703A6
:1022F000CF91DF910895DF93CF9300D0CDB7DEB7B4
:102300009A8389830E941912FDCF0F931F93DF9345
:10231000CF93CDB7DEB729970FB6F894DEBF0FBEC7
:10232000CDBF9A8389837C836B834D833F832E83C8
:102330001987088789819A8149962B813C81B90147
:1023400048E050E00E94C619E981FA8110A28D810F
:10235000853010F084E08D83E981FA818D81868B50
:1023600089819A8102960E94B70389819A810C968D
:102370000E94B703E981FA8189819A8191878087D8
:102380008D81282F30E085E090E0821B930BE9815E
:10239000FA8195878487E981FA8189819A81938B73
:1023A000828B29960FB6F894DEBF0FBECDBFCF91BA
:1023B000DF911F910F910895DF93CF930F92CDB7C7
:1023C000DEB7198213C08981282F30E0C901880F38
:1023D000991F880F991F880F991F820F931F865B83
:1023E0009C4F0E948D0389818F5F8983898185300D
:1023F00050F387E793E00E948D0380E893E00E940A
:102400008D038DE893E00E948D0386E993E00E949E
:102410008D0387E793E090938A038093890380E894
:1024200093E090938C0380938B030F90CF91DF9177
:102430000895DF93CF9300D00F92CDB7DEB7809190
:102440003E03882371F10E94570E809196031B82F0
:10245000882311F481E08B830E94630E8B81882393
:1024600001F50FB6F8940F92E0919B03F0919C0355
:10247000868197819A83898389819A8102960E94B5
:102480007F0480913F03815080933F0380913E03FE
:10249000815080933E030F900FBE89819A810E94E4
:1024A000F0120F900F900F90CF91DF910895DF936E
:1024B000CF9300D0CDB7DEB79A838983E0913C03F8
:1024C000F0913D0389819A81938382832091400317
:1024D0003091410389819A818217930770F480912A
:1024E0008B0390918C0320913C0330913D032E5F30
:1024F0003F4FB9010E9413041EC0409189035091BF
:102500008A0380913C0390913D039C012E5F3F4FD5
:10251000CA01B9010E941304209165003091660040
:1025200089819A818217930730F489819A819093E7
:102530006600809365000F900F90CF91DF91089512
:10254000DF93CF93CDB7DEB728970FB6F894DEBFF1
:102550000FBECDBF9C838B837E836D8381E290E031
:102560000E9421039A83898389819A81009769F166
:102570008D819E81009739F48B819C810E9421037B
:1025800098878F8304C08D819E8198878F83E9818E
:10259000FA818F819885908F878BE981FA8187896D
:1025A000908D009739F489819A810E9467031A827D
:1025B00019820BC0E981FA818789908D2B813C813A
:1025C00065EA70E0A9010E94BF1989819A81289665
:1025D0000FB6F894DEBF0FBECDBFCF91DF91089547
:1025E000DF93CF9300D0CDB7DEB79A838983E9819B
:1025F000FA818789908D0E94670389819A810E9460
:1026000067030F900F90CF91DF910895DF93CF93E1
:102610000F92CDB7DEB719820EC08981882F90E066
:10262000FC01E957FF4F90818981692F0E94221395
:1026300089818F5F89838981803278F30F90CF9170
:10264000DF910895DF93CF93CDB7DEB72C970FB608
:10265000F894DEBF0FBECDBF8B836C838B818695D4
:10266000869586958A838B81877089838C81282FB4
:1026700030E03C872B878B859C858130910509F460
:10268000C9C02B853C852230310509F485C18B8575
:102690009C85009709F03DC28A81282F30E03A8757
:1026A000298789859A858130910509F43EC029855D
:1026B0003A85223031052CF489859A85009771F08E
:1026C00028C229853A852230310509F455C089850B
:1026D0009A858330910509F476C01BC2AAE3B0E065
:1026E000EAE3F0E08081482F8981282F30E081E003
:1026F00090E002C0880F991F2A95E2F7842B8C93F3
:10270000ABE3B0E0EBE3F0E08081482F8981282F34
:1027100030E081E090E0022E02C0880F991F0A94F9
:10272000E2F7809584238C93F4C1A7E3B0E0E7E35C
:10273000F0E08081482F8981282F30E081E090E00F
:1027400002C0880F991F2A95E2F7842B8C93A8E387
:10275000B0E0E8E3F0E08081482F8981282F30E065
:1027600081E090E0022E02C0880F991F0A94E2F7E0
:10277000809584238C93CDC1A4E3B0E0E4E3F0E042
:102780008081482F8981282F30E081E090E002C0CD
:10279000880F991F2A95E2F7842B8C93A5E3B0E06C
:1027A000E5E3F0E08081482F8981282F30E081E047
:1027B00090E0022E02C0880F991F0A94E2F78095DC
:1027C00084238C93A6C1A1E3B0E0E1E3F0E0808133
:1027D000482F8981282F30E081E090E002C0880FE7
:1027E000991F2A95E2F7842B8C93A2E3B0E0E2E3F1
:1027F000F0E08081482F8981282F30E081E090E04F
:10280000022E02C0880F991F0A94E2F78095842354
:102810008C937FC18A81282F30E038872F838F8166
:1028200098858130910509F43FC02F813885223089
:1028300031052CF48F819885009771F06AC12F8142
:1028400038852230310509F457C08F81988583304F
:10285000910509F479C05DC1AAE3B0E0EAE3F0E0D4
:102860008081482F8981282F30E081E090E002C0EC
:10287000880F991F2A95E2F7809584238C93ABE308
:10288000B0E0EBE3F0E08081482F8981282F30E031
:1028900081E090E0022E02C0880F991F0A94E2F7AF
:1028A000809584238C9335C1A7E3B0E0E7E3F0E0A3
:1028B0008081482F8981282F30E081E090E002C09C
:1028C000880F991F2A95E2F7809584238C93A8E3BB
:1028D000B0E0E8E3F0E08081482F8981282F30E0E4
:1028E00081E090E0022E02C0880F991F0A94E2F75F
:1028F000809584238C930DC1A4E3B0E0E4E3F0E081
:102900008081482F8981282F30E081E090E002C04B
:10291000880F991F2A95E2F7809584238C93A5E36D
:10292000B0E0E5E3F0E08081482F8981282F30E096
:1029300081E090E0022E02C0880F991F0A94E2F70E
:10294000809584238C93E5C0A1E3B0E0E1E3F0E05F
:102950008081482F8981282F30E081E090E002C0FB
:10296000880F991F2A95E2F7809584238C93A2E320
:10297000B0E0E2E3F0E08081482F8981282F30E049
:1029800081E090E0022E02C0880F991F0A94E2F7BE
:10299000809584238C93BDC08A81282F30E03E83AC
:1029A0002D838D819E818130910509F43EC02D815A
:1029B0003E81223031052CF48D819E81009771F08B
:1029C000A8C02D813E812230310509F455C08D818A
:1029D0009E818330910509F476C09BC0AAE3B0E0E4
:1029E000EAE3F0E08081482F8981282F30E081E000
:1029F00090E002C0880F991F2A95E2F78095842302
:102A00008C93ABE3B0E0EBE3F0E08081482F898169
:102A1000282F30E081E090E0022E02C0880F991F3D
:102A20000A94E2F7842B8C9374C0A7E3B0E0E7E349
:102A3000F0E08081482F8981282F30E081E090E00C
:102A400002C0880F991F2A95E2F7809584238C9302
:102A5000A8E3B0E0E8E3F0E08081482F8981282FE7
:102A600030E081E090E0022E02C0880F991F0A94A6
:102A7000E2F7842B8C934DC0A4E3B0E0E4E3F0E0F4
:102A80008081482F8981282F30E081E090E002C0CA
:102A9000880F991F2A95E2F7809584238C93A5E3EC
:102AA000B0E0E5E3F0E08081482F8981282F30E015
:102AB00081E090E0022E02C0880F991F0A94E2F78D
:102AC000842B8C9326C0A1E3B0E0E1E3F0E08081A9
:102AD000482F8981282F30E081E090E002C0880FE4
:102AE000991F2A95E2F7809584238C93A2E3B0E0A6
:102AF000E2E3F0E08081482F8981282F30E081E0F7
:102B000090E0022E02C0880F991F0A94E2F7842BEE
:102B10008C932C960FB6F894DEBF0FBECDBFCF912D
:102B2000DF910895DF93CF93CDB7DEB728970FB627
:102B3000F894DEBF0FBECDBF8B836C838B818695EF
:102B4000869586958A838B81877089838C8188237B
:102B500009F074C08A81282F30E038872F838F8155
:102B600098858130910559F12F81388522303105C2
:102B70002CF48F819885009769F0D2C02F81388519
:102B80002230310589F18F8198858330910509F4D0
:102B900040C0C6C0ABE3B0E0EBE3F0E08081482F7B
:102BA0008981282F30E081E090E0022E02C0880F5A
:102BB000991F0A94E2F7809584238C93B1C0A8E30F
:102BC000B0E0E8E3F0E08081482F8981282F30E0F1
:102BD00081E090E0022E02C0880F991F0A94E2F76C
:102BE000809584238C939CC0A5E3B0E0E5E3F0E0FE
:102BF0008081482F8981282F30E081E090E0022EEB
:102C000002C0880F991F0A94E2F7809584238C9361
:102C100087C0A2E3B0E0E2E3F0E08081482F898141
:102C2000282F30E081E090E0022E02C0880F991F2B
:102C30000A94E2F7809584238C9372C08C81813052
:102C400009F06EC08A81282F30E03E832D838D816C
:102C50009E818130910549F12D813E8122303105DF
:102C60002CF48D819E81009761F05AC02D813E81A8
:102C70002230310571F18D819E8183309105E9F11A
:102C80004FC0ABE3B0E0EBE3F0E08081482F8981F7
:102C9000282F30E081E090E0022E02C0880F991FBB
:102CA0000A94E2F7842B8C933BC0A8E3B0E0E8E3FE
:102CB000F0E08081482F8981282F30E081E090E08A
:102CC000022E02C0880F991F0A94E2F7842B8C937E
:102CD00027C0A5E3B0E0E5E3F0E08081482F8981DB
:102CE000282F30E081E090E0022E02C0880F991F6B
:102CF0000A94E2F7842B8C9313C0A2E3B0E0E2E3E2
:102D0000F0E08081482F8981282F30E081E090E039
:102D1000022E02C0880F991F0A94E2F7842B8C932D
:102D200028960FB6F894DEBF0FBECDBFCF91DF91CE
:102D30000895DF93CF9300D000D000D0CDB7DEB799
:102D40008C831B828C818695869586958A838C815F
:102D5000877089838A81282F30E03E832D834D81BF
:102D60005E814130510541F18D819E818230910516
:102D700034F42D813E812115310561F052C04D8121
:102D80005E814230510551F18D819E8183309105E4
:102D9000B9F147C0E9E3F0E08081282F30E0898174
:102DA000882F90E0A90102C0559547958A95E2F7D2
:102DB000CA0181708B8335C0E6E3F0E08081282F63
:102DC00030E08981882F90E0A90102C05595479590
:102DD0008A95E2F7CA0181708B8323C0E3E3F0E0B8
:102DE0008081282F30E08981882F90E0A90102C0DE
:102DF000559547958A95E2F7CA0181708B8311C07A
:102E0000E0E3F0E08081282F30E08981882F90E096
:102E1000A90102C0559547958A95E2F7CA018170CC
:102E20008B838B8126960FB6F894DEBF0FBECDBF85
:102E3000CF91DF910895DF93CF9300D000D00F9210
:102E4000CDB7DEB78B838B818695869586958A83F1
:102E50008B81877089838A81282F30E03D832C8382
:102E60008C819D818130910549F12C813D812230F9
:102E700031052CF48C819D81009761F05AC02C8122
:102E80003D812230310571F18C819D818330910526
:102E9000E9F14FC0ABE3B0E0EBE3F0E08081482F15
:102EA0008981282F30E081E090E0022E02C0880F57
:102EB000991F0A94E2F784278C933BC0A8E3B0E003
:102EC000E8E3F0E08081482F8981282F30E081E01D
:102ED00090E0022E02C0880F991F0A94E2F784271F
:102EE0008C9327C0A5E3B0E0E5E3F0E08081482FB4
:102EF0008981282F30E081E090E0022E02C0880F07
:102F0000991F0A94E2F784278C9313C0A2E3B0E0E0
:102F1000E2E3F0E08081482F8981282F30E081E0D2
:102F200090E0022E02C0880F991F0A94E2F78427CE
:102F30008C930F900F900F900F900F90CF91DF9187
:102F40000895DF93CF9300D000D0CDB7DEB789834B
:102F50006A838981282F30E03C832B838B819C817D
:102F600081309105D1F02B813C81223031052CF448
:102F70008B819C81009761F01EC02B813C812230A7
:102F8000310581F08B819C818330910581F013C0E4
:102F9000EBE3F0E08A8180830EC0E8E3F0E08A8111
:102FA000808309C0E5E3F0E08A81808304C0E2E326
:102FB000F0E08A8180830F900F900F900F90CF9157
:102FC000DF910895DF93CF9300D000D0CDB7DEB767
:102FD0009C838B8388E161E00E94921589E161E026
:102FE0000E9492158AE161E00E9492158BE161E0F6
:102FF0000E9492158FEF80939F031A8234C08A81BA
:10300000885E60E00E949215198222C08981805FEB
:103010000E9499168823C9F48A81482F50E089813B
:10302000282F30E0CA01880F991F880F991F820F3F
:10303000931FFC01E959FF4F808180939F03898191
:10304000805F0E9499168823D1F389818F5F8983DD
:1030500089818430D8F28A81885E61E00E9492156D
:103060008A818F5F8A838A81843048F288EC90E07D
:103070000E94DF0DBFCFDF93CF93CDB7DEB7809136
:103080009F03CF91DF910895DF93CF93CDB7DEB744
:103090001092A2031092A3031092A403CF91DF9188
:1030A0000895DF93CF9300D000D0CDB7DEB78A83E9
:1030B00019828091A103282F30E03C832B838B81E0
:1030C0009C8181309105E9F02B813C8122303105D2
:1030D00001F18B819C81009759F58AE060E00E94A4
:1030E000921588E061E00E94921580E06A810E945A
:1030F000A11788E060E00E94921581E08093A1030F
:1031000017C088E061E00E94921582E08093A103DD
:103110000FC08091A0038F5F8093A0038091A003D4
:10312000823031F41092A0031092A10381E08983D0
:1031300089810F900F900F900F90CF91DF9108959C
:10314000DF93CF93CDB7DEB78AE061E00E9492159E
:1031500088E061E00E9492159091A50380E0692FBC
:103160000E94A11788E060E00E949215CF91DF9144
:103170000895DF93CF93CDB7DEB788E061E00E947A
:103180009215CF91DF910895DF93CF9300D000D0B7
:103190000F92CDB7DEB79B838A838091A203282F3D
:1031A00030E03D832C838C819D8182309105B1F18B
:1031B0002C813D812330310554F48C819D81009711
:1031C000B9F02C813D8121303105E9F051C08C816D
:1031D0009D8186309105D9F12C813D8127303105C3
:1031E00009F43FC08C819D818330910511F140C06D
:1031F00088E30E945118898389818130C9F581E073
:103200008093A20335C08CE00E9451188983898184
:10321000813071F582E08093A2032AC081E00E9490
:10322000511889838981813019F583E08093A20345
:103230001FC086E00E945118898389818130C1F4C2
:1032400086E08093A20381E08093A40311C0809163
:10325000A303813069F40E94A01887E08093A20341
:1032600007C00E94B91886E08093A2031092A303BE
:1032700085E090E00E94DF0D90CFDF93CF9300D0E8
:10328000CDB7DEB789838091A403813061F480914A
:10329000A303882341F481E08093A3038981809371
:1032A000A5031A8202C081E08A838A810F900F9061
:1032B000CF91DF910895DF93CF9300D00F92CDB7D8
:1032C000DEB79B838A830E943B18898389818F3F65
:1032D00019F089810E943D1988EC90E00E94DF0D71
:1032E000F2CFAF92BF92CF92DF92EF92FF920F9305
:1032F000DF93CF93CDB7DEB70E9406130E94441828
:1033000082EE97E160E070E045E550E020E030E0DB
:1033100001E0EE24FF24CC24DD24AA24BB240E9457
:103320001B0C8BE599E160E070E045E550E020E0A2
:1033300030E002E0EE24FF24CC24DD24AA24BB24C8
:103340000E941B0C84EC98E160E070E045E550E0E1
:1033500020E030E003E0EE24FF24CC24DD24AA2486
:10336000BB240E941B0C0E94140EFFCFFB01DC014A
:1033700002C001900D9241505040D8F70895DC01F1
:1033800001C06D9341505040E0F70895FB01DC010E
:103390004150504048F001900D920020C9F701C003
:0E33A0001D9241505040E0F70895F894FFCF81
:1033AE0049444C4500FFFF3738392F3435362A3122
:1033BE0032332D63303D2B3738392F3435362A31A1
:1033CE0032332D63303D2B00000000000000000062
:1033DE0000000000000100020202020000000200D4
:0833EE000000000000010000D6
:00000001FF
