:100000000C942A000C9447000C9447000C94470071
:100010000C9405070C94DC060C9447000C94B30672
:100020000C9447000C948A060C9461060C943806D4
:100030000C9447000C9424080C9447000C944D0831
:100040000C9447000C9447000C9447000C94470014
:100050000C94470011241FBECFE5D8E0DEBFCDBF12
:1000600011E0A0E6B0E0E0E0F1E102C005900D9201
:10007000A436B107D9F721E0A4E6B1E001C01D9292
:10008000A737B207E1F70E948D040C947E080C9408
:100090000000809165018F5F8093650108950E9443
:1000A000890483E790E00E94640460E081E00E949C
:1000B000770481E890E00E9464040895CF93DF9371
:1000C000CDB7DEB72B970FB6F894DEBF0FBECDBF0E
:1000D0008BE0E8E6F0E0DE01119601900D928A9542
:1000E000E1F7CE0101960E942E0761E089E490E0DD
:1000F0000E94C7072B960FB6F894DEBF0FBECDBF88
:10010000DF91CF9108950E945E000E94890481E9E9
:1001100090E00E946404809165018F30E1F71092B5
:1001200065010E94890481EA90E00E946404809144
:1001300065018330E1F7109265010E94890481EB2B
:1001400090E00E946404809165018F30E1F7109285
:10015000650181E00E94DC070E9489040895809176
:1001600064018F5F809364010E94890481EC90E0B8
:100170000E9464042FED83E994E021508040904078
:10018000E1F700C0000080916401833099F40E947F
:100190005E000E9489048CEC90E00E9464048091CF
:1001A00065018C33E1F7109264011092650181E0E2
:1001B0000E94DC070E94890408950F931F93CF9338
:1001C000DF938C01C0E017C00E946303D0EDD80F0D
:1001D000DA3038F48AE20E946104F801EC0FF11D74
:1001E000D0832FE986E891E0215080409040E1F7EC
:1001F00000C00000CF5FC53038F30E9463038D3329
:10020000E1F7DF91CF911F910F9108950E9489042A
:100210008CED90E00E94640460E081E00E9477042D
:1002200082E791E00E94DD0008950F931F93CF9322
:100230008C01C0E00DC0F801EC0FF11D80810E941F
:10024000760883EC99E00197F1F700C00000CF5FDA
:10025000C53088F3CF911F910F910895CF93C82F88
:1002600083EF0E9476080E947A08843FE1F78C2F82
:100270000E9476080E947A08853FE1F7CF910895A1
:100280000E947A08833FE1F784EF0E9476080E947B
:100290007A088093710185EF0E9476088091710140
:1002A0000895109266014EC00E9489048CEE90E081
:1002B0000E9464042FED83E994E021508040904037
:1002C000E1F700C000000E9489048DEF90E00E94D9
:1002D000640460E081E00E94770482E791E00E947C
:1002E000DD0086EF0E942E0182E791E00E94150159
:1002F0000E9489048BEF90E00E94640460E081E03A
:100300000E94770482E791E00E94DD0087EF0E945F
:100310002E0182E791E00E9415010E944001809326
:10032000660181110FC00E9489048CE091E00E9457
:1003300064042FED83E994E0215080409040E1F780
:1003400000C0000080916601882309F4ADCF0895B4
:100350000E94920478940E9412080E940C020E944B
:10036000300464E080E00E9477048AE191E00E941A
:10037000640460E081E00E94770482E291E00E94E0
:1003800064042FED83E994E0215080409040E1F730
:1003900000C000000E94890408950E9451010E943B
:1003A0004F000E9463038B3219F08D32D9F0F7CFE2
:1003B0000E94060188EF0E942E0182E791E00E94D0
:1003C00015018BE20E942E010E944001809366017C
:1003D000803F19F40E948300E2CF813F01F70E9421
:1003E000AF00DDCF0E94060188EF0E942E0182E758
:1003F00091E00E9415018DE20E942E010E944001B1
:1004000080936601823F19F40E945101C8CF813F59
:1004100031F60E94AF00C3CFCF93DF93C4E6D0E0A4
:1004200061E088810E94830561E089810E948305E3
:1004300061E08A810E94830561E08B810E948305CF
:10044000C0E6D0E061E088810E94830561E0898197
:100450000E94830561E08A810E94830561E08B81AF
:100460000E948305DF91CF910895DF92EF92FF9272
:100470000F931F93CF93DF930F2EFFE0DF2EF02D0E
:1004800010E015C1C0E6D0E061E088810E948305DC
:1004900061E089810E94830561E08A810E94830571
:1004A00061E08B810E948305E12EF12CF701E05A77
:1004B000FF4F60E080810E94830583EC99E0019703
:1004C000F1F700C0000000E0EEC0C02FD0E0FE0158
:1004D000EC59FF4F80810E9405068111E3C0FE01A7
:1004E000EC59FF4F80810E9405068823C1F311302B
:1004F000E9F138F0123009F46EC0133009F49FC0EE
:10050000D1C001110BC0FE01EE0FFF1FEE0FFF1F48
:10051000ED5CFE4FEE0DFF1DD080C4C0013059F4DC
:10052000FE01EE0FFF1FEE0FFF1FED5CFE4FEE0D05
:10053000FF1DD080B7C0023059F4FE01EE0FFF1F3F
:10054000EE0FFF1FED5CFE4FEE0DFF1DD080AAC029
:10055000033009F0A7C0FE01EE0FFF1FEE0FFF1FD3
:10056000ED5CFE4FEE0DFF1DD0809CC001110BC055
:10057000FE01EE0FFF1FEE0FFF1FED5CFE4FEE0DB5
:10058000FF1DD0808FC0013059F4FE01EE0FFF1F18
:10059000EE0FFF1FED5CFE4FEE0DFF1DD08082C001
:1005A000023059F4FE01EE0FFF1FEE0FFF1FED5C4E
:1005B000FE4FEE0DFF1DD08075C0033009F072C0F4
:1005C000FE01EE0FFF1FEE0FFF1FED5CFE4FEE0D65
:1005D000FF1DD08067C001110BC0FE01EE0FFF1F91
:1005E000EE0FFF1FED5CFE4FEE0DFF1DD0805AC0D9
:1005F000013059F4FE01EE0FFF1FEE0FFF1FED5CFF
:10060000FE4FEE0DFF1DD0804DC0023059F4FE01AB
:10061000EE0FFF1FEE0FFF1FED5CFE4FEE0DFF1DF7
:10062000D08040C00330F1F5FE01EE0FFF1FEE0F4A
:10063000FF1FED5CFE4FEE0DFF1DD08033C001119A
:100640000BC0FE01EE0FFF1FEE0FFF1FED5CFE4F14
:10065000EE0DFF1DD08026C0013059F4FE01EE0FD3
:10066000FF1FEE0FFF1FED5CFE4FEE0DFF1DD08054
:1006700019C0023059F4FE01EE0FFF1FEE0FFF1FED
:10068000ED5CFE4FEE0DFF1DD0800CC0033051F429
:10069000FE01EE0FFF1FEE0FFF1FED5CFE4FEE0D94
:1006A000FF1DD0800F5F043008F40FCF1F5F1430A0
:1006B00008F4E8CE8D2DDF91CF911F910F91FF901F
:1006C000EF90DF9008950E9435028F30E1F3089596
:1006D000CF93C82F60E080E00E94830560E081E056
:1006E0000E948305C4FB662760F98CE00E948305A5
:1006F000C5FB662760F98DE00E948305C6FB66276F
:1007000060F98EE00E9483056C2F661F6627661FC6
:100710008FE00E94830561E082E00E94830583EF01
:1007200091E00197F1F700C0000060E082E00E94D4
:10073000830583EF91E00197F1F700C000006C2F73
:1007400061708CE00E948305C1FB662760F98DE033
:100750000E948305C2FB662760F98EE00E94830534
:10076000C3FB662760F98FE00E94830561E082E0A9
:100770000E94830583EF91E00197F1F700C000002C
:1007800060E082E00E94830583EF91E00197F1F73A
:1007900000C00000CF910895CF93C82F61E080E0A2
:1007A0000E94830560E081E00E948305C4FB662708
:1007B00060F98CE00E948305C5FB662760F98DE037
:1007C0000E948305C6FB662760F98EE00E948305C0
:1007D0006C2F661F6627661F8FE00E94830561E00D
:1007E00082E00E94830583EF91E00197F1F700C05A
:1007F000000060E082E00E94830583EF91E00197B2
:10080000F1F700C000006C2F61708CE00E9483053E
:10081000C1FB662760F98DE00E948305C2FB662755
:1008200060F98EE00E948305C3FB662760F98FE0C4
:100830000E94830561E082E00E94830583EF91E0DE
:100840000197F1F700C0000060E082E00E9483059C
:1008500083EF91E00197F1F700C00000CF91089578
:1008600083ED90E30197F1F700C0000082E00E9461
:10087000680389EF90E00197F1F700C0000088E27B
:100880000E94680389EF90E00197F1F700C0000033
:100890008CE00E94680389EF90E00197F1F700C0B7
:1008A000000081E00E94680387E893E10197F1F777
:1008B00000C0000086E00E94680380E80E94680390
:1008C00008950E94CC0308950F931F93CF938C013A
:1008D000C0E003C00E94CC03CF5FF801EC0FF11D14
:1008E00080818111F7CFCF911F910F9108958111D0
:1008F00007C0603168F480E8860F0E94680308959D
:10090000813031F4603120F480EC860F0E9468035E
:10091000089581E00E94680308950E94A8010E9442
:10092000CD01FFCF80E0EBC0E82FF0E0ED5BFE4FA4
:100930009081282F269526952695382F377091304F
:1009400009F441C020F0923009F48DC0D7C02130A5
:1009500099F028F02230E9F0233041F1CFC09AB36A
:1009600041E050E0BA0102C0660F771F3A95E2F706
:100970009B01292B2ABBC2C097B341E050E0BA01CA
:1009800002C0660F771F3A95E2F79B01292B27BB20
:10099000B5C094B341E050E0BA0102C0660F771FC2
:1009A0003A95E2F79B01292B24BBA8C091B341E003
:1009B00050E0BA0102C0660F771F3A95E2F79B013B
:1009C000292B21BB9BC02130C1F028F0223039F106
:1009D0002330B9F193C09AB341E050E0BA0102C0AC
:1009E000660F771F3A95E2F79B01362F30959323D8
:1009F0009ABB9BB3292B2BBB81C097B341E050E03E
:100A0000BA0102C0660F771F3A95E2F79B01362FB5
:100A10003095932397BB98B3292B28BB6FC094B311
:100A200041E050E0BA0102C0660F771F3A95E2F745
:100A30009B01362F3095932394BB95B3292B25BB6F
:100A40005DC091B341E050E0BA0102C0660F771F6C
:100A50003A95E2F79B01362F3095932391BB92B3E1
:100A6000292B22BB4BC02130B9F028F0223029F1CC
:100A70002330A1F143C09AB341E050E0BA0102C073
:100A8000660F771F3A95E2F79B01209592239ABB58
:100A90009BB329232BBB32C097B341E050E0BA018E
:100AA00002C0660F771F3A95E2F79B0120959223CB
:100AB00097BB98B3292328BB21C094B341E050E0F1
:100AC000BA0102C0660F771F3A95E2F79B012095A5
:100AD000922394BB95B3292325BB10C091B341E069
:100AE00050E0BA0102C0660F771F3A95E2F79B010A
:100AF0002095922391BB92B3292322BB8F5F803232
:100B000008F412CF0895982F97708695869586954C
:100B1000813021F130F08230F1F1833009F458C096
:100B20000895613069F44BB321E030E0B90102C0AF
:100B3000660F771F9A95E2F7CB01842B8BBB089544
:100B40004BB321E030E0B90102C0660F771F9A95E0
:100B5000E2F7CB01809584238BBB0895613069F463
:100B600048B321E030E0B90102C0660F771F9A95C3
:100B7000E2F7CB01842B88BB089548B321E030E035
:100B8000B90102C0660F771F9A95E2F7CB018095F5
:100B9000842388BB0895613069F445B321E030E0D7
:100BA000B90102C0660F771F9A95E2F7CB01842B3B
:100BB00085BB089545B321E030E0B90102C0660F5E
:100BC000771F9A95E2F7CB018095842385BB089522
:100BD000613069F442B321E030E0B90102C0660F30
:100BE000771F9A95E2F7CB01842B82BB089542B31D
:100BF00021E030E0B90102C0660F771F9A95E2F755
:100C0000CB018095842382BB0895282F2770869579
:100C100086958695813079F028F08230A9F083306E
:100C2000E1F024C089B390E002C0959587952A959C
:100C3000E2F78170089586B390E002C0959587959C
:100C40002A95E2F78170089583B390E002C09595EC
:100C500087952A95E2F78170089580B390E002C0ED
:100C6000959587952A95E2F78170089580E008951B
:100C70001F920F920FB60F9211242F933F934F9311
:100C80005F936F937F938F939F93AF93BF93EF93F4
:100C9000FF93E0916B01F0916C01309709F0099599
:100CA000FF91EF91BF91AF919F918F917F916F9144
:100CB0005F914F913F912F910F900FBE0F901F901A
:100CC00018951F920F920FB60F9211242F933F93F6
:100CD0004F935F936F937F938F939F93AF93BF9344
:100CE000EF93FF93E0916B01F0916C01309709F065
:100CF0000995FF91EF91BF91AF919F918F917F9156
:100D00006F915F914F913F912F910F900FBE0F9078
:100D10001F9018951F920F920FB60F9211242F93C8
:100D20003F934F935F936F937F938F939F93AF9373
:100D3000BF93EF93FF93E0916901F0916A013097BF
:100D400009F00995FF91EF91BF91AF919F918F911C
:100D50007F916F915F914F913F912F910F900FBEB7
:100D60000F901F9018951F920F920FB60F9211249B
:100D70002F933F934F935F936F937F938F939F93A3
:100D8000AF93BF93EF93FF93E0916901F0916A01F4
:100D9000309709F00995FF91EF91BF91AF919F9125
:100DA0008F917F916F915F914F913F912F910F9014
:100DB0000FBE0F901F9018951F920F920FB60F92B3
:100DC00011242F933F934F935F936F937F938F9350
:100DD0009F93AF93BF93EF93FF93E0916701F091DF
:100DE0006801309709F00995FF91EF91BF91AF919C
:100DF0009F918F917F916F915F914F913F912F9133
:100E00000F900FBE0F901F9018951F920F920FB664
:100E10000F9211242F933F934F935F936F937F9380
:100E20008F939F93AF93BF93EF93FF93E0916701ED
:100E3000F0916801309709F00995FF91EF91BF910A
:100E4000AF919F918F917F916F915F914F913F9162
:100E50002F910F900FBE0F901F901895FC0180816D
:100E60008130C1F120F0823009F45FC0089583B76A
:100E7000806883BF23B79181892F90E0880F991FE5
:100E8000880F991F880F991F922F977F892B83BFF7
:100E900083B79681887F892B83BF29B781E090E053
:100EA000018002C0880F991F0A94E2F7822B89BF44
:100EB000828182BF8181813031F487818CBF89B783
:100EC000826089BF0895813009F060C089B7816070
:100ED00089BF08958CE08FBD86818EBD2EB591812E
:100EE000892F90E0880F991F880F991F880F991FED
:100EF000922F977F892B8EBD82819381A481B581AA
:100F00009DBD8CBD8181813051F487819085A18503
:100F1000B2859BBD8ABD89B7806189BF0895813044
:100F2000A9F589B7846089BF089583B7806883BFB6
:100F300025B59181892F90E0880F991F880F991FFF
:100F4000880F991F922F977F892B85BD85B5968134
:100F5000887F892B85BD29B781E090E0018002C0A0
:100F6000880F991F0A94E2F7822B89BF828184BD82
:100F70008181813031F487818CBF89B7806889BFD6
:100F80000895813019F489B7806489BF089561306C
:100F900049F018F0623059F0089590936C018093F5
:100FA0006B01089590936A0180936901089590936D
:100FB0006801809367010895813089F018F08230CC
:100FC00021F1089583B713BE82B712BE8CB71CBE41
:100FD00089B7827089BF89B7817089BF08958FB53D
:100FE0001FBC8EB51EBC8CB59DB51DBC1CBC8AB586
:100FF0009BB51BBC1ABC89B7807189BF89B7887043
:1010000089BF89B7847089BF089585B515BC84B53B
:1010100014BC83B513BC89B7807889BF89B7807445
:1010200089BF08958BB18D7F8BB98AB18B7F8AB9C7
:1010300086E880BD10BC83E389B98AB180618AB932
:101040008AB188608AB908951F920F920FB60F92E5
:1010500011242F933F934F935F936F937F938F93BD
:101060009F93AF93BF93EF93FF93E0916F01F09144
:101070007001309709F00995FF91EF91BF91AF9101
:101080009F918F917F916F915F914F913F912F91A0
:101090000F900FBE0F901F9018951F920F920FB6D2
:1010A0000F9211242F933F934F935F936F937F93EE
:1010B0008F939F93AF93BF93EF93FF93E0916D0155
:1010C000F0916E01309709F00995FF91EF91BF9172
:1010D000AF919F918F917F916F915F914F913F91D0
:1010E0002F910F900FBE0F901F9018955D9BFECF14
:1010F0008CB908955F9BFECF8CB10895F894FFCF13
:1011000014151617101112130101000000000585B7
:101110001E0000282B293A4F70656E20446F6F72B5
:1011200000282D293A4368616E676520506173730A
:1011300000446F6F72206973206F70656E696E670F
:1011400000446F6F72206973206F6E20686F6C644B
:1011500000446F6F7220697320636C6F73696E67F0
:101160000057726F6E672050617373002121212038
:101170005761726E696E672021212100456E74658A
:10118000722070617373776F72643A00204E6577D6
:101190002050617373776F726420005265456E74DE
:1011A00065722070617373776F7264004D49534D9F
:1011B0004154434820504153530057656C636F6D51
:1011C000650055736520283D2920617320656E7484
:1011D0006572003738392F3435362A3132332D6174
:1011E000303D2B0000000000000000000000000067
:1011F00000000002020202000000000200010100E3
:0412000000000000EA
:00000001FF
