:100000000C942A000C9447000C9447000C94470071
:100010000C9447000C9447000C94A1110C943B11D4
:100020000C946E110C9408110C940A0E0C94D70DBC
:100030000C9447000C9447000C9447000C94470024
:100040000C9447000C9447000C9447000C94470014
:100050000C94470011241FBECFE5D8E0DEBFCDBF12
:1000600010E0A0E6B0E0EAE1F4E202C005900D92F3
:10007000A838B107D9F710E0A8E8B0E001C01D9298
:10008000A539B107E1F70E94A3050C940B120C945B
:100090000000EF92FF920F931F937B018C0120E0F1
:1000A00030E040E05FE40E94490388238CF0C801FF
:1000B000B70120E030E040E05FE40E94C1010E940F
:1000C000A9039B01AC01205030404040504806C07D
:1000D000C801B7010E94A9039B01AC01B901CA0183
:1000E0001F910F91FF90EF900895A0E0B0E0EBE733
:1000F000F0E00C94D411DC012B01FA019C919230B8
:1001000008F439C1EB018881823008F433C194309E
:1001100069F4843009F02FC111969C91119789815F
:10012000981709F428C1A0E6B0E025C1843009F48D
:1001300021C18230A9F4923009F01DC19A01AD01AC
:1001400088E0EA010990AE01E90109929E0181501F
:10015000C1F7E201898111969C918923818308C1AD
:10016000923009F407C112962D903C901397EB0141
:100170008A819B811496AD90BD90CD90DC901797AD
:10018000EC80FD800E811F819101281B390BB90184
:1001900037FF04C066277727621B730B6032710537
:1001A0000CF061C0121613066CF537014801062EDB
:1001B00004C096948794779467940A94D2F721E0C8
:1001C00030E040E050E004C0220F331F441F551FB1
:1001D0006A95D2F721503040404050402E213F21B7
:1001E00040235123211531054105510521F021E01E
:1001F00030E040E050E079018A01E628F72808293C
:1002000019293CC0232BD1F1260E371E350146019A
:10021000062E04C096948794779467940A94D2F734
:1002200021E030E040E050E004C0220F331F441FC3
:10023000551F6A95D2F721503040404050402A2146
:100240003B214C215D21211531054105510521F04E
:1002500021E030E040E050E059016A01A628B728CB
:10026000C828D9280BC0821593052CF01C01AA249C
:10027000BB24650103C0EE24FF24870111969C91E5
:10028000D20111968C91981709F445C0992339F041
:10029000A80197012A193B094C095D0906C0A6016E
:1002A00095012E193F09400B510B57FD08C01182D3
:1002B0003382228224833583468357831DC081E0A5
:1002C00081833382228288279927DC01821B930B4A
:1002D000A40BB50B84839583A683B7830DC0220F2F
:1002E000331F441F551F24833583468357838281E0
:1002F000938101979383828324813581468157813D
:10030000DA01C9010197A109B1098F5F9F4FAF4F72
:10031000BF4328F30BC0918333822282EA0CFB1C7B
:100320000C1D1D1DE482F5820683178383E0808304
:10033000248135814681578157FF1AC0C901AA27F8
:1003400097FDA095BA2F81709070A070B0705695EF
:10035000479537952795822B932BA42BB52B848318
:100360009583A683B7838281938101969383828349
:10037000DF0101C0D201CD01CDB7DEB7E2E10C94BF
:10038000F011A0E2B0E0E7ECF1E00C94E011698339
:100390007A838B839C832D833E834F835887E9E048
:1003A000EE2EF12CEC0EFD1ECE010196B7010E943F
:1003B000D2048E010F5E1F4FCE010596B8010E9438
:1003C000D2048A8991E089278A8BC701B801AE01DE
:1003D000475E5F4F0E9475000E94FD03A096E6E015
:1003E0000C94FC11A0E2B0E0E8EFF1E00C94E01115
:1003F00069837A838B839C832D833E834F835887C5
:10040000F9E0EF2EF12CEC0EFD1ECE010196B701A6
:100410000E94D2048E010F5E1F4FCE010596B801D7
:100420000E94D204C701B801AE01475E5F4F0E942F
:1004300075000E94FD03A096E6E00C94FC11A0E27A
:10044000B0E0E5E2F2E00C94D41169837A838B8307
:100450009C832D833E834F835887CE010196BE0136
:10046000675F7F4F0E94D204CE010596BE016F5E8A
:100470007F4F0E94D2049985923088F0898982301A
:10048000C8F0943019F4823051F404C0843029F457
:10049000923081F480E690E0C6C0923049F420E0CA
:1004A0009A858A89981321E02A87CE010996BBC0D4
:1004B000823049F420E09A858A89981321E02A8BBA
:1004C000CE014196B0C02D843E844F8458886D88FB
:1004D0007E888F88988CEE24FF248701AA24BB2471
:1004E000650140E050E060E070E0E0E0F0E0C10174
:1004F00081709070892BE9F0E60CF71C081D191D1E
:100500009A01AB012A0D3B1D4C1D5D1D80E090E062
:10051000A0E0B0E0E614F7040805190520F481E036
:1005200090E0A0E0B0E0BA01A901480F591F6A1F8E
:100530007B1FAA0CBB1CCC1CDD1C97FE08C081E0F5
:1005400090E0A0E0B0E0A82AB92ACA2ADB2A3196B6
:10055000E032F10549F0660C771C881C991C569412
:10056000479437942794C3CFFA85EA892B893C892D
:100570008B859C85280F391F2E5F3F4F17C0CA01FE
:1005800081709070892B61F016950795F794E79428
:1005900080E090E0A0E0B0E8E82AF92A0A2B1B2BC3
:1005A00076956795579547952F5F3F4F77FDE7CF36
:1005B0000CC0440F551F661F771F17FD4160EE0CDE
:1005C000FF1C001F111F21503040403090E05907A0
:1005D00090E0690790E4790760F32B8F3C8FDB0193
:1005E000CA018F779070A070B07080349105A1051A
:1005F000B10561F447FD0AC0E114F10401051105DC
:1006000029F0405C5F4F6F4F7F4F40781A8EFE1786
:1006100011F081E08A8F4D8F5E8F6F8F78A383E01A
:10062000898FCE0149960E94FD03A096E2E10C94C9
:10063000F011A8E1B0E0EFE1F3E00C94E011698380
:100640007A838B839C832D833E834F83588789E0F5
:10065000E82EF12CEC0EFD1ECE010196B7010E9492
:10066000D2048E010F5E1F4FCE010596B8010E9485
:10067000D2048985823040F08989823028F0C70110
:10068000B8010E944A0501C08FEF6896E6E00C941D
:10069000FC11A8E1B0E0EFE4F3E00C94E011698311
:1006A0007A838B839C832D833E834F83588789E095
:1006B000E82EF12CEC0EFD1ECE010196B7010E9432
:1006C000D2048E010F5E1F4FCE010596B8010E9425
:1006D000D2048985823040F08989823028F0C701B0
:1006E000B8010E944A0501C08FEF6896E6E00C94BD
:1006F000FC11A8E1B0E0EFE7F3E00C94E0116983AE
:100700007A838B839C832D833E834F83588789E034
:10071000E82EF12CEC0EFD1ECE010196B7010E94D1
:10072000D2048E010F5E1F4FCE010596B8010E94C4
:10073000D2048985823040F08989823028F0C7014F
:10074000B8010E944A0501C081E06896E6E00C9479
:10075000FC11ACE0B0E0EFEAF3E00C94E411698343
:100760007A838B839C83CE010196BE016B5F7F4FA2
:100770000E94D2048D81823061F1823050F1843048
:1007800021F48E81882351F12EC02F81388537FDC9
:1007900020C06E812F3131051CF06623F9F023C093
:1007A0008EE190E0821B930B29853A854B855C8511
:1007B00004C056954795379527958A95D2F76623B5
:1007C000B1F050954095309521953F4F4F4F5F4F79
:1007D0000EC020E030E040E050E009C02FEF3FEFD6
:1007E0004FEF5FE704C020E030E040E050E8B9019F
:1007F000CA012C96E2E00C940012DF92EF92FF9275
:100800000F931F93FC01E480F58006811781D1804E
:100810008081823048F480E090E0A0E1B0E0E82AF6
:10082000F92A0A2B1B2BA5C0843009F49FC0823003
:1008300021F4EE24FF24870105C0E114F104010531
:10084000110519F4E0E0F0E096C0628173819FEF3A
:10085000623879070CF05BC022E83FEF261B370BAC
:100860002A3131052CF020E030E040E050E02AC091
:10087000B801A701022E04C0769567955795479554
:100880000A94D2F781E090E0A0E0B0E004C0880FC5
:10089000991FAA1FBB1F2A95D2F70197A109B10979
:1008A0008E219F21A023B1230097A105B10521F03E
:1008B00081E090E0A0E0B0E09A01AB01282B392B59
:1008C0004A2B5B2BDA01C9018F779070A070B07052
:1008D00080349105A105B10539F427FF09C0205CDA
:1008E0003F4F4F4F5F4F04C0215C3F4F4F4F5F4F13
:1008F000E0E0F0E02030A0E03A07A0E04A07A0E402
:100900005A0710F0E1E0F0E079018A0127C0603871
:10091000710564F5FB01E158FF4FD801C7018F77DE
:100920009070A070B07080349105A105B10539F4C4
:10093000E7FE0DC080E490E0A0E0B0E004C08FE3EB
:1009400090E0A0E0B0E0E80EF91E0A1F1B1F17FFA1
:1009500005C016950795F794E794319687E01695AC
:100960000795F794E7948A95D1F705C0EE24FF2404
:100970008701EFEFF0E06E2F679566276795902F60
:100980009F77D794DD24D7948E2F8695492F462BB9
:10099000582F5D29B701CA011F910F91FF90EF9069
:1009A000DF900895FC01DB01408151812281622F9B
:1009B0006F7770E0221F2227221F9381892F880FD3
:1009C000822B282F30E0991F9927991F11969C930D
:1009D000119721153105A9F54115510561057105DD
:1009E00011F482E037C082E89FEF13969C938E93B8
:1009F00012979A01AB0167E0220F331F441F551F66
:100A00006A95D1F783E08C930DC0220F331F441FEA
:100A1000551F12968D919C911397019713969C9355
:100A20008E931297203080E0380780E0480780E4FA
:100A3000580758F314962D933D934D935C93179755
:100A400008952F3F310579F4411551056105710570
:100A500019F484E08C93089564FF03C081E08C93C3
:100A600012C01C9210C02F57304013963C932E9307
:100A7000129783E08C9387E0440F551F661F771F02
:100A80008A95D1F7706414964D935D936D937C9322
:100A9000179708951F93DC01FB019C91923008F495
:100AA00047C08081823008F443C0943051F41196DD
:100AB0001C91843099F58181682F70E0611B710968
:100AC0003FC0843021F0923031F48230B9F181811D
:100AD000882389F12DC011961C9111978230F1F075
:100AE00081811817D9F412962D913C911397828128
:100AF00093818217930794F028173907BCF0149656
:100B00008D919D910D90BC91A02D248135814681C0
:100B10005781281739074A075B0718F4112341F05A
:100B20000AC082179307A407B50740F4112319F0F0
:100B300061E070E005C06FEF7FEF02C060E070E041
:100B4000CB011F910895DF93CF93CDB7DEB70E94FD
:100B5000AC050E94B705FDCFDF93CF93CDB7DEB7CD
:100B60000E94D00810929400CF91DF910895DF93F6
:100B7000CF93CDB7DEB760970FB6F894DEBF0FBE48
:100B8000CDBF80919400282F30E0388B2F878F8540
:100B900098898130910579F02F8538892230310587
:100BA00009F47FC08F859889009709F080C081E0A3
:100BB000809394007CC080E090E0AAEFB3E48B8740
:100BC0009C87AD87BE876B857C858D859E8520E063
:100BD00030E04AEF54E40E941F02DC01CB018F8316
:100BE0009887A987BA876F81788589859A8520E05B
:100BF00030E040E85FE30E94790388232CF481E031
:100C000090E09E838D833FC06F81788589859A852A
:100C100020E03FEF4FE757E40E94190318164CF508
:100C20006B857C858D859E8520E030E040E251E437
:100C30000E941F02DC01CB01BC01CD010E944900D2
:100C4000DC01CB019E838D830FC088EC90E09C83F8
:100C50008B838B819C810197F1F79C838B838D81A2
:100C60009E8101979E838D838D819E81009769F778
:100C700014C06F81788589859A850E944900DC01BE
:100C8000CB019E838D838D819E819A838983898107
:100C90009A810197F1F79A83898382E08093940087
:100CA00006C080E00E94750A81E0809394006096FF
:100CB0000FB6F894DEBF0FBECDBFCF91DF91089580
:100CC000DF93CF93CDB7DEB72C970FB6F894DEBF86
:100CD0000FBECDBF8B836C838B8186958695869561
:100CE0008A838B81877089838C81282F30E03C87B1
:100CF0002B878B859C858130910509F4C9C02B8594
:100D00003C852230310509F485C18B859C8500978F
:100D100009F03DC28A81282F30E03A8729878985EA
:100D20009A858130910509F43EC029853A852230A3
:100D300031052CF489859A85009771F028C22985A0
:100D40003A852230310509F455C089859A8583306A
:100D5000910509F476C01BC2AAE3B0E0EAE3F0E033
:100D60008081482F8981282F30E081E090E002C007
:100D7000880F991F2A95E2F7842B8C93ABE3B0E0A0
:100D8000EBE3F0E08081482F8981282F30E081E07B
:100D900090E0022E02C0880F991F0A94E2F7809516
:100DA00084238C93F4C1A7E3B0E0E7E3F0E0808113
:100DB000482F8981282F30E081E090E002C0880F21
:100DC000991F2A95E2F7842B8C93A8E3B0E0E8E31F
:100DD000F0E08081482F8981282F30E081E090E089
:100DE000022E02C0880F991F0A94E2F7809584238F
:100DF0008C93CDC1A4E3B0E0E4E3F0E08081482F20
:100E00008981282F30E081E090E002C0880F991F8F
:100E10002A95E2F7842B8C93A5E3B0E0E5E3F0E0BC
:100E20008081482F8981282F30E081E090E0022ED8
:100E300002C0880F991F0A94E2F7809584238C934F
:100E4000A6C1A1E3B0E0E1E3F0E08081482F898111
:100E5000282F30E081E090E002C0880F991F2A958A
:100E6000E2F7842B8C93A2E3B0E0E2E3F0E0808130
:100E7000482F8981282F30E081E090E0022E02C0C7
:100E8000880F991F0A94E2F7809584238C937FC181
:100E90008A81282F30E038872F838F819885813091
:100EA000910509F43FC02F813885223031052CF49B
:100EB0008F819885009771F06AC12F813885223023
:100EC000310509F457C08F8198858330910509F465
:100ED00079C05DC1AAE3B0E0EAE3F0E08081482F89
:100EE0008981282F30E081E090E002C0880F991FAF
:100EF0002A95E2F7809584238C93ABE3B0E0EBE393
:100F0000F0E08081482F8981282F30E081E090E057
:100F1000022E02C0880F991F0A94E2F7809584235D
:100F20008C9335C1A7E3B0E0E7E3F0E08081482F80
:100F30008981282F30E081E090E002C0880F991F5E
:100F40002A95E2F7809584238C93A8E3B0E0E8E348
:100F5000F0E08081482F8981282F30E081E090E007
:100F6000022E02C0880F991F0A94E2F7809584230D
:100F70008C930DC1A4E3B0E0E4E3F0E08081482F5E
:100F80008981282F30E081E090E002C0880F991F0E
:100F90002A95E2F7809584238C93A5E3B0E0E5E3FE
:100FA000F0E08081482F8981282F30E081E090E0B7
:100FB000022E02C0880F991F0A94E2F780958423BD
:100FC0008C93E5C0A1E3B0E0E1E3F0E08081482F3D
:100FD0008981282F30E081E090E002C0880F991FBE
:100FE0002A95E2F7809584238C93A2E3B0E0E2E3B4
:100FF000F0E08081482F8981282F30E081E090E067
:10100000022E02C0880F991F0A94E2F7809584236C
:101010008C93BDC08A81282F30E03E832D838D8143
:101020009E818130910509F43EC02D813E812230A0
:1010300031052CF48D819E81009771F0A8C02D811F
:101040003E812230310509F455C08D819E81833067
:10105000910509F476C09BC0AAE3B0E0EAE3F0E0B2
:101060008081482F8981282F30E081E090E002C004
:10107000880F991F2A95E2F7809584238C93ABE320
:10108000B0E0EBE3F0E08081482F8981282F30E049
:1010900081E090E0022E02C0880F991F0A94E2F7C7
:1010A000842B8C9374C0A7E3B0E0E7E3F0E0808189
:1010B000482F8981282F30E081E090E002C0880F1E
:1010C000991F2A95E2F7809584238C93A8E3B0E0DA
:1010D000E8E3F0E08081482F8981282F30E081E02B
:1010E00090E0022E02C0880F991F0A94E2F7842B29
:1010F0008C934DC0A4E3B0E0E4E3F0E08081482F9E
:101100008981282F30E081E090E002C0880F991F8C
:101110002A95E2F7809584238C93A5E3B0E0E5E37C
:10112000F0E08081482F8981282F30E081E090E035
:10113000022E02C0880F991F0A94E2F7842B8C9329
:1011400026C0A1E3B0E0E1E3F0E08081482F89818F
:10115000282F30E081E090E002C0880F991F2A9587
:10116000E2F7809584238C93A2E3B0E0E2E3F0E021
:101170008081482F8981282F30E081E090E0022E85
:1011800002C0880F991F0A94E2F7842B8C932C9647
:101190000FB6F894DEBF0FBECDBFCF91DF9108959B
:1011A000DF93CF930F92CDB7DEB719820EC089813E
:1011B000882F90E0FC01E859FF4F90818981692FC9
:1011C0000E94600689818F5F89838981803278F3EC
:1011D0000F90CF91DF910895DF93CF93CDB7DEB716
:1011E00028970FB6F894DEBF0FBECDBF8B836C83FC
:1011F0008B818695869586958A838B818770898376
:101200008C81882309F074C08A81282F30E03887C8
:101210002F838F8198858130910559F12F813885F1
:10122000223031052CF48F819885009769F0D2C067
:101230002F8138852230310589F18F81988583305F
:10124000910509F440C0C6C0ABE3B0E0EBE3F0E0C9
:101250008081482F8981282F30E081E090E0022EA4
:1012600002C0880F991F0A94E2F7809584238C931B
:10127000B1C0A8E3B0E0E8E3F0E08081482F8981C5
:10128000282F30E081E090E0022E02C0880F991FE5
:101290000A94E2F7809584238C939CC0A5E3B0E088
:1012A000E5E3F0E08081482F8981282F30E081E05C
:1012B00090E0022E02C0880F991F0A94E2F78095F1
:1012C00084238C9387C0A2E3B0E0E2E3F0E0808166
:1012D000482F8981282F30E081E090E0022E02C063
:1012E000880F991F0A94E2F7809584238C9372C02B
:1012F0008C81813009F06EC08A81282F30E03E83D6
:101300002D838D819E818130910549F12D813E8112
:10131000223031052CF48D819E81009761F05AC0F6
:101320002D813E812230310571F18D819E81833086
:101330009105E9F14FC0ABE3B0E0EBE3F0E0808171
:10134000482F8981282F30E081E090E0022E02C0F2
:10135000880F991F0A94E2F7842B8C933BC0A8E373
:10136000B0E0E8E3F0E08081482F8981282F30E069
:1013700081E090E0022E02C0880F991F0A94E2F7E4
:10138000842B8C9327C0A5E3B0E0E5E3F0E08081F7
:10139000482F8981282F30E081E090E0022E02C0A2
:1013A000880F991F0A94E2F7842B8C9313C0A2E351
:1013B000B0E0E2E3F0E08081482F8981282F30E01F
:1013C00081E090E0022E02C0880F991F0A94E2F794
:1013D000842B8C9328960FB6F894DEBF0FBECDBF3A
:1013E000CF91DF910895DF93CF9300D000D000D04C
:1013F000CDB7DEB78C831B828C81869586958695CA
:101400008A838C81877089838A81282F30E03E838C
:101410002D834D815E814130510541F18D819E8149
:101420008230910534F42D813E812115310561F022
:1014300052C04D815E814230510551F18D819E81B6
:1014400083309105B9F147C0E9E3F0E08081282FAE
:1014500030E08981882F90E0A90102C05595479519
:101460008A95E2F7CA0181708B8335C0E6E3F0E02C
:101470008081282F30E08981882F90E0A90102C067
:10148000559547958A95E2F7CA0181708B8323C0F1
:10149000E3E3F0E08081282F30E08981882F90E01D
:1014A000A90102C0559547958A95E2F7CA01817056
:1014B0008B8311C0E0E3F0E08081282F30E0898148
:1014C000882F90E0A90102C0559547958A95E2F7CB
:1014D000CA0181708B838B8126960FB6F894DEBF8C
:1014E0000FBECDBFCF91DF910895DF93CF9300D092
:1014F00000D00F92CDB7DEB78B838B818695869512
:1015000086958A838B81877089838A81282F30E032
:101510003D832C838C819D818130910549F12C8103
:101520003D81223031052CF48C819D81009761F042
:101530005AC02C813D812230310571F18C819D8111
:1015400083309105E9F14FC0ABE3B0E0EBE3F0E0AD
:101550008081482F8981282F30E081E090E0022EA1
:1015600002C0880F991F0A94E2F784278C933BC02E
:10157000A8E3B0E0E8E3F0E08081482F8981282FDC
:1015800030E081E090E0022E02C0880F991F0A949B
:10159000E2F784278C9327C0A5E3B0E0E5E3F0E011
:1015A0008081482F8981282F30E081E090E0022E51
:1015B00002C0880F991F0A94E2F784278C9313C006
:1015C000A2E3B0E0E2E3F0E08081482F8981282F98
:1015D00030E081E090E0022E02C0880F991F0A944B
:1015E000E2F784278C930F900F900F900F900F903D
:1015F000CF91DF910895DF93CF9300D000D0CDB786
:10160000DEB789836A838981282F30E03C832B836E
:101610008B819C8181309105D1F02B813C812230DE
:1016200031052CF48B819C81009761F01EC02B81C9
:101630003C812230310581F08B819C818330910582
:1016400081F013C0EBE3F0E08A8180830EC0E8E311
:10165000F0E08A81808309C0E5E3F0E08A8180833D
:1016600004C0E2E3F0E08A8180830F900F900F9036
:101670000F90CF91DF910895DF93CF9300D000D0EA
:101680000F92CDB7DEB789836A834B838981282F78
:1016900030E03D832C838C819D818130910559F10F
:1016A0002C813D81223031052CF48C819D81009765
:1016B00069F05FC02C813D812230310589F18C8138
:1016C0009D818330910509F440C053C0ABE3B0E085
:1016D000EBE3F0E08081982F8B81809589238C93B8
:1016E000ABE3B0E0EBE3F0E020819A818B818923CA
:1016F000822B8C933EC0A8E3B0E0E8E3F0E0808169
:10170000982F8B81809589238C93A8E3B0E0E8E340
:10171000F0E020819A818B818923822B8C9329C0D0
:10172000A5E3B0E0E5E3F0E08081982F8B81809520
:1017300089238C93A5E3B0E0E5E3F0E020819A8172
:101740008B818923822B8C9314C0A2E3B0E0E2E367
:10175000F0E08081982F8B81809589238C93A2E380
:10176000B0E0E2E3F0E020819A818B818923822B33
:101770008C930F900F900F900F900F90CF91DF915F
:101780000895DF93CF9300D000D0CDB7DEB7898323
:101790006A838A818295807F8A838981282F30E0BD
:1017A0003C832B838B819C818130910529F12B8196
:1017B0003C81223031052CF48B819C81009761F0B3
:1017C0004AC02B813C812230310531F18B819C81D3
:1017D0008330910589F13FC0ABE3B0E0EBE3F0E08B
:1017E00080818F708C93ABE3B0E0EBE3F0E090810D
:1017F0008A81892B8C932FC0A8E3B0E0E8E3F0E066
:1018000080818F708C93A8E3B0E0E8E3F0E09081F2
:101810008A81892B8C931FC0A5E3B0E0E5E3F0E05B
:1018200080818F708C93A5E3B0E0E5E3F0E09081D8
:101830008A81892B8C930FC0A2E3B0E0E2E3F0E051
:1018400080818F708C93A2E3B0E0E2E3F0E09081BE
:101850008A81892B8C930F900F900F900F90CF91CE
:10186000DF910895DF93CF9300D000D0CDB7DEB7DE
:1018700089836A838A818F708A838981282F30E0E7
:101880003C832B838B819C818130910529F12B81B5
:101890003C81223031052CF48B819C81009761F0D2
:1018A0004AC02B813C812230310531F18B819C81F2
:1018B0008330910589F13FC0ABE3B0E0EBE3F0E0AA
:1018C0008081807F8C93ABE3B0E0EBE3F0E090812C
:1018D0008A81892B8C932FC0A8E3B0E0E8E3F0E085
:1018E0008081807F8C93A8E3B0E0E8E3F0E0908112
:1018F0008A81892B8C931FC0A5E3B0E0E5E3F0E07B
:101900008081807F8C93A5E3B0E0E5E3F0E09081F7
:101910008A81892B8C930FC0A2E3B0E0E2E3F0E070
:101920008081807F8C93A2E3B0E0E2E3F0E09081DD
:101930008A81892B8C930F900F900F900F90CF91ED
:10194000DF910895DF93CF93CDB7DEB727970FB61A
:10195000F894DEBF0FBECDBF89836A834B83898134
:10196000282F30E03F832E838E819F818130910527
:1019700021F12E813F81223031052CF48E819F810F
:10198000009761F046C02E813F812230310521F160
:101990008E819F818330910571F13BC0A3E5B0E05A
:1019A000E3E5F0E080818F7B8C93A3E5B0E0E3E595
:1019B000F0E08081877F8C932CC0A3E5B0E0E3E565
:1019C000F0E0808180648C93A3E5B0E0E3E5F0E093
:1019D0008081877F8C931DC0A3E5B0E0E3E5F0E054
:1019E00080818F7B8C93A3E5B0E0E3E5F0E080811C
:1019F00088608C930EC0A3E5B0E0E3E5F0E0808161
:101A000080648C93A3E5B0E0E3E5F0E0808188603A
:101A10008C93A3E5B0E0E3E5F0E08081887F8C93D0
:101A2000A3E5B0E0E3E5F0E090818A81892B8C9317
:101A30008B81282F30E03D832C838C819D818130E8
:101A4000910521F12C813D81223031052CF48C81CE
:101A50009D81009761F046C02C813D812230310587
:101A600021F18C819D818330910571F13BC0A3E50B
:101A7000B0E0E3E5F0E080818F7E8C93A3E5B0E0F9
:101A8000E3E5F0E080818F7D8C932CC0A3E5B0E08E
:101A9000E3E5F0E0808180618C93A3E5B0E0E3E5CD
:101AA000F0E080818F7D8C931DC0A3E5B0E0E3E57D
:101AB000F0E080818F7E8C93A3E5B0E0E3E5F0E079
:101AC000808180628C930EC0A3E5B0E0E3E5F0E096
:101AD000808180618C93A3E5B0E0E3E5F0E0808154
:101AE00080628C9327960FB6F894DEBF0FBECDBFF1
:101AF000CF91DF910895DF93CF93CDB7DEB7A9E5FE
:101B0000B0E0E9E5F0E0808181608C93CF91DF91D6
:101B10000895DF93CF93CDB7DEB7A9E5B0E0E9E54F
:101B2000F0E080818E7F8C93CF91DF910895DF93D9
:101B3000CF93CDB7DEB7A9E5B0E0E9E5F0E080816D
:101B400082608C93CF91DF910895DF93CF93CDB7CF
:101B5000DEB7A9E5B0E0E9E5F0E080818D7F8C9308
:101B6000CF91DF910895DF93CF9300D0CDB7DEB74B
:101B70009A83898389819A819093910080939000C0
:101B80000F900F90CF91DF910895DF93CF9300D006
:101B9000CDB7DEB79A83898389819A819093930028
:101BA000809392000F900F90CF91DF9108951F9234
:101BB0000F920FB60F9211242F933F934F935F9381
:101BC0006F937F938F939F93AF93BF93EF93FF9305
:101BD000DF93CF93CDB7DEB78091900090919100C5
:101BE000009729F0E0919000F09191000995CF9134
:101BF000DF91FF91EF91BF91AF919F918F917F9175
:101C00006F915F914F913F912F910F900FBE0F9069
:101C10001F9018951F920F920FB60F9211242F93B9
:101C20003F934F935F936F937F938F939F93AF9364
:101C3000BF93EF93FF93DF93CF93CDB7DEB7809140
:101C4000920090919300009729F0E0919200F0911A
:101C500093000995CF91DF91FF91EF91BF91AF91E3
:101C60009F918F917F916F915F914F913F912F91B4
:101C70000F900FBE0F901F901895DF93CF93CDB7A5
:101C8000DEB72A970FB6F894DEBF0FBECDBF8983AB
:101C90006A834B832C838981282F30E03A872987F8
:101CA00089859A858330910509F47FC029853A8515
:101CB0002430310584F489859A8581309105D9F1E4
:101CC00029853A85223031050CF052C089859A85E4
:101CD0000097A1F0DDC029853A852530310509F44A
:101CE0009EC089859A85853091050CF47BC0298535
:101CF0003A852630310509F4AFC0CAC0AFE4B0E080
:101D0000EFE4F0E080818E7F8C93AFE4B0E0EFE40D
:101D1000F0E080818D7F8C93AEE4B0E0EEE4F0E003
:101D20008081877F8C93AEE4B0E0EEE4F0E08081C8
:101D30008F7E8C93ADC0AFE4B0E0EFE4F0E0808143
:101D40008E7F8C93AFE4B0E0EFE4F0E080818D7F94
:101D50008C93AEE4B0E0EEE4F0E0808188608C9398
:101D6000AEE4B0E0EEE4F0E0808180618C9390C05E
:101D7000AFE4B0E0EFE4F0E080818E7F8C93AFE4DD
:101D8000B0E0EFE4F0E080818D7F8C93AEE4B0E0D2
:101D9000EEE4F0E0808188608C93AEE4B0E0EEE4A5
:101DA000F0E080818F7E8C9373C0AFE4B0E0EFE40D
:101DB000F0E080818E7F8C93AFE4B0E0EFE4F0E060
:101DC000808182608C93AEE4B0E0EEE4F0E080814C
:101DD00088608C93AEE4B0E0EEE4F0E08081806156
:101DE0008C9356C0AFE4B0E0EFE4F0E08081816016
:101DF0008C93AFE4B0E0EFE4F0E0808182608C93FC
:101E0000AEE4B0E0EEE4F0E0808188608C93AEE474
:101E1000B0E0EEE4F0E0808180618C9339C0AFE403
:101E2000B0E0EFE4F0E080818E7F8C93AFE4B0E02F
:101E3000EFE4F0E0808182608C93AEE4B0E0EEE409
:101E4000F0E08081877F8C93AEE4B0E0EEE4F0E0D8
:101E5000808180618C931CC0AFE4B0E0EFE4F0E0DF
:101E6000808181608C93AFE4B0E0EFE4F0E08081AA
:101E700082608C93AEE4B0E0EEE4F0E08081877F96
:101E80008C93AEE4B0E0EEE4F0E0808180618C936E
:101E90008B81282F30E038872F838F819885813080
:101EA000910521F12F813885223031052CF48F8165
:101EB0009885009761F046C02F8138852230310522
:101EC00021F18F8198858330910571F13BC0AFE49A
:101ED000B0E0EFE4F0E080818F7B8C93AFE4B0E082
:101EE000EFE4F0E080818F778C932CC0AFE4B0E01A
:101EF000EFE4F0E0808180648C93AFE4B0E0EFE445
:101F0000F0E080818F778C931DC0AFE4B0E0EFE408
:101F1000F0E080818F7B8C93AFE4B0E0EFE4F0E001
:101F2000808180688C930EC0AFE4B0E0EFE4F0E015
:101F3000808180648C93AFE4B0E0EFE4F0E08081D6
:101F400080688C938C81282F30E03E832D838D8197
:101F50009E818130910521F12D813E812230310514
:101F60002CF48D819E81009761F046C02D813E81C9
:101F70002230310521F18D819E818330910571F1EF
:101F80003BC0AFE4B0E0EFE4F0E080818F7E8C9363
:101F9000AFE4B0E0EFE4F0E080818F7D8C932CC063
:101FA000AFE4B0E0EFE4F0E0808180618C93AFE4D7
:101FB000B0E0EFE4F0E080818F7D8C931DC0AFE452
:101FC000B0E0EFE4F0E080818F7E8C93AFE4B0E08E
:101FD000EFE4F0E0808180628C930EC0AFE4B0E06B
:101FE000EFE4F0E0808180618C93AFE4B0E0EFE457
:101FF000F0E0808180628C93AEE4B0E0EEE4F0E04B
:102000008081887F8C93AEE4B0E0EEE4F0E09081D4
:102010008A81892B8C932A960FB6F894DEBF0FBE67
:10202000CDBFCF91DF910895DF93CF930F92CDB7BE
:10203000DEB789838981882341F4AEE4B0E0EEE421
:10204000F0E0808180648C930AC08981813039F40A
:10205000AEE4B0E0EEE4F0E080818F7B8C930F90F3
:10206000CF91DF910895DF93CF9300D0CDB7DEB746
:102070009A838983ECE4F0E089819A81918380835B
:102080000F900F90CF91DF910895DF93CF93CDB74D
:10209000DEB7ECE4F0E080819181CF91DF9108958B
:1020A000DF93CF93CDB7DEB7A9E5B0E0E9E5F0E087
:1020B000808180628C93CF91DF910895DF93CF93DD
:1020C000CDB7DEB7A9E5B0E0E9E5F0E080818F7D2E
:1020D0008C93CF91DF910895DF93CF93CDB7DEB787
:1020E000A9E5B0E0E9E5F0E0808184608C93CF91D0
:1020F000DF910895DF93CF93CDB7DEB7A9E5B0E0C8
:10210000E9E5F0E080818B7F8C93CF91DF9108959A
:10211000DF93CF93CDB7DEB7A9E5B0E0E9E5F0E016
:10212000808180618C93CF91DF910895DF93CF936D
:10213000CDB7DEB7A9E5B0E0E9E5F0E080818F7EBC
:102140008C93CF91DF910895DF93CF93CDB7DEB716
:10215000A9E5B0E0E9E5F0E0808188608C93CF915B
:10216000DF910895DF93CF93CDB7DEB7A9E5B0E057
:10217000E9E5F0E08081877F8C93CF91DF9108952E
:10218000DF93CF9300D0CDB7DEB79A83898389815F
:102190009A8190938900809388000F900F90CF913F
:1021A000DF910895DF93CF9300D0CDB7DEB79A8348
:1021B000898389819A8190938B0080938A000F9004
:1021C0000F90CF91DF910895DF93CF9300D0CDB7DB
:1021D000DEB79A83898389819A8190938D00809359
:1021E0008C000F900F90CF91DF910895DF93CF93E4
:1021F00000D0CDB7DEB79A83898389819A81909385
:102200008F0080938E000F900F90CF91DF910895F3
:102210001F920F920FB60F9211242F933F934F935B
:102220005F936F937F938F939F93AF93BF93EF933E
:10223000FF93DF93CF93CDB7DEB780918800909165
:102240008900009729F0E0918800F09189000995B4
:10225000CF91DF91FF91EF91BF91AF919F918F91BE
:102260007F916F915F914F913F912F910F900FBE92
:102270000F901F9018951F920F920FB60F92112476
:102280002F933F934F935F936F937F938F939F937E
:10229000AF93BF93EF93FF93DF93CF93CDB7DEB7A9
:1022A00080918A0090918B00009729F0E0918A003C
:1022B000F0918B000995CF91DF91FF91EF91BF9144
:1022C000AF919F918F917F916F915F914F913F91CE
:1022D0002F910F900FBE0F901F9018951F920F9285
:1022E0000FB60F9211242F933F934F935F936F93E9
:1022F0007F938F939F93AF93BF93EF93FF93DF935E
:10230000CF93CDB7DEB780918C0090918D00009770
:1023100029F0E0918C00F0918D000995CF91DF912B
:10232000FF91EF91BF91AF919F918F917F916F91AD
:102330005F914F913F912F910F900FBE0F901F9083
:1023400018951F920F920FB60F9211242F933F935F
:102350004F935F936F937F938F939F93AF93BF93AD
:10236000EF93FF93DF93CF93CDB7DEB780918E00CD
:1023700090918F00009729F0E0918E00F0918F00EE
:102380000995CF91DF91FF91EF91BF91AF919F910F
:102390008F917F916F915F914F913F912F910F900E
:1023A0000FBE0F901F9018952F923F924F925F9201
:1023B0006F927F928F929F92AF92BF92CF92DF9255
:1023C000EF92FF920F931F93CF93DF93CDB7DEB7BA
:1023D000CA1BDB0B0FB6F894DEBF0FBECDBF09944E
:1023E0002A88398848885F846E847D848C849B84A5
:1023F000AA84B984C884DF80EE80FD800C811B81B3
:10240000AA81B981CE0FD11D0FB6F894DEBF0FBEE1
:0A241000CDBFED010895F894FFCF51
:10241A0000000000000000000000000000000000B2
:10242A000000020000000100000202020000000099
:08243A00020001000000000097
:00000001FF
