:100000000C942A000C9447000C9447000C94470071
:100010000C9447000C9447000C9447000C946D031B
:100020000C9447000C9447000C9447000C94470034
:100030000C9447000C94A7110C9447000C94D01119
:100040000C9447000C9447000C9447000C94470014
:100050000C94470011241FBECFE5D8E0DEBFCDBF12
:1000600011E0A0E6B0E0E2E0F6E202C005900D92F9
:10007000A631B107D9F725E0A6E1B1E001C01D9294
:10008000A33FB207E1F70E94210F0C94FF120C94DA
:100090000000411106C068237923672B49F480E0F2
:1000A0000895862397236817790721F080E0089543
:1000B00081E0089581E00895CF93DF938BE090E095
:1000C0000E945401EC01009731F0FC011192119251
:1000D000CF010E948A01CE01DF91CF910895AF92A6
:1000E000BF92CF92DF92EF92FF920F931F93CF9325
:1000F000DF937C015B01C42ED22E0E94D107F70151
:10010000C081D1814D2DB501CE010E9449008823C7
:1001100069F0CC2009F1C501809590958C239D2331
:10012000F7019183808300E010E018C001151105EC
:10013000A9F0C11003C060E070E002C060E071E0AF
:10014000D11074606A297B29A801C70102960E9418
:10015000D609C0E0D0E002C000E010E00E949308A1
:10016000012B19F1811102C00E94B8020E945F0B9D
:10017000EC0191FD19C00FB6F8940F92F701C08100
:10018000D1814D2DB501CE010E944900882351F047
:10019000CC2041F0B501609570956C237D23F7016B
:1001A000718360830F900FBEDD27CE01DF91CF9169
:1001B0001F910F91FF90EF90DF90CF90BF90AF9085
:1001C0000895FC010FB6F8940F928081918160959B
:1001D000709568237923718360830F900FBE089513
:1001E000CF92DF92EF92FF920F931F93CF93DF9303
:1001F0007C018B01EC0125960E94D107D70117964F
:10020000ED91FC9118978D919C911197082B192BCA
:100210000D931C9300E010E02DC0C280D38080813C
:1002200091819C01332792FD09C0D7014D915C91CA
:1002300042235323452B61F440E00DC0D7014D917B
:100240005C91422353232417350721F040E003C07B
:1002500041E001C041E0442359F090FF02C0022B6D
:10026000132BD7016D917C917260CF010E94420ADD
:10027000EC2DFD2DEC17FD0781F600951095F7018B
:100280008081918108231923118300830E949308A0
:10029000D7018D919C91DF91CF911F910F91FF908C
:1002A000EF90DF90CF900895CF93DF93EC010E9401
:1002B000D1078091160190911701892B31F48BE1C0
:1002C00091E09093170180931601209118013091CD
:1002D0001901C9018C0F9D1F8B3444E0940770F401
:1002E0002817390770F4C0911601D0911701C20F79
:1002F000D31F909319018093180105C0C0E0D0E08E
:1003000002C0C0E0D0E00E949308CE01DF91CF91FF
:1003100008950895FC010396928381832FEF3FEFA8
:1003200034832383968385839087878310820895FF
:10033000FC01118610860895CF93DF939C01FB0189
:10034000DC011196CD91DC911297D383C2838C810D
:100350009D81958384838C819D81DC0113967C93A0
:100360006E9312977D836C8331872087F90180819A
:100370008F5F8083DF91CF910895CF93DF93EB015F
:10038000488159814F3F2FEF520721F4FC01A7818B
:10039000B0850DC0DC01139601C0DF011296ED910E
:1003A000FC9113972081318142175307B0F71296C1
:1003B000ED91FC911397FB83EA83D583C483BD83BE
:1003C000AC831396DC93CE93129799878887FC01B0
:1003D00020812F5F2083DF91CF910895CF93DF930A
:1003E000FC01A085B185C281D381848195819D83E3
:1003F0008C83C481D581828193819B838A8311966A
:100400008D919C911297E817F90731F484819581B9
:1004100012969C938E931197118610868C91815021
:100420008C93DF91CF9108951BBC8CE78ABD8BE044
:100430008EBD89B7806189BF089531E1FC013083A9
:10044000319722E220833197A3E3A0833197608321
:100450003197708331971082319760E860833197CC
:100460001082319762E06083319763E06083319757
:1004700064E06083319765E06083319766E0608374
:10048000319767E06083319768E06083319769E076
:100490006083319760E1608331973083319732E137
:1004A0003083319733E13083319734E130833197B2
:1004B00035E13083319736E13083319737E130834E
:1004C000319738E13083319739E13083319730E229
:1004D0003083319731E2308331972083319723E2A3
:1004E00020833197408331975083319726E22083D0
:1004F000319727E22083319728E22083319729E240
:100500002083319720E32083319721E3208386974E
:1005100008950E941402A091E105B091E205CD91E9
:10052000CDBFDD91DEBFFF91EF91DF91CF91BF9104
:10053000AF919F918F917F916F915F914F913F917B
:100540002F911F910F91FF90EF90DF90CF90BF9070
:10055000AF909F908F907F906F905F904F903F9063
:100560002F901F900F900FBE0F90089581E0089577
:100570000F920FB6F8940F921F9211242F923F9270
:100580004F925F926F927F928F929F92AF92BF92A3
:10059000CF92DF92EF92FF920F931F932F933F938F
:1005A0004F935F936F937F938F939F93AF93BF937B
:1005B000CF93DF93EF93FF93A091E105B091E20514
:1005C0000DB60D920EB60D920E945D09A091E10547
:1005D000B091E205CD91CDBFDD91DEBFFF91EF91EE
:1005E000DF91CF91BF91AF919F918F917F916F914B
:1005F0005F914F913F912F911F910F91FF90EF903D
:10060000DF90CF90BF90AF909F908F907F906F9032
:100610005F904F903F902F901F900F900FBE0F90C4
:1006200008950F920FB6F8940F921F9211242F92F3
:100630003F924F925F926F927F928F929F92AF9272
:10064000BF92CF92DF92EF92FF920F931F932F935F
:100650003F934F935F936F937F938F939F93AF934A
:10066000BF93CF93DF93EF93FF93A091E105B091F8
:10067000E2050DB60D920EB60D920E94D7078111BC
:100680000E945D09A091E105B091E205CD91CDBF39
:10069000DD91DEBFFF91EF91DF91CF91BF91AF91DF
:1006A0009F918F917F916F915F914F913F912F918A
:1006B0001F910F91FF90EF90DF90CF90BF90AF9080
:1006C0009F908F907F906F905F904F903F902F9072
:1006D0001F900F900FBE0F9008950E941103189560
:1006E0000FB6F8940F92FC01828D811102C081E057
:1006F00001C080E00F900FBE08950FB6F8940F92DE
:10070000FC01228D838D281302C081E001C080E0AE
:100710000F900FBE08951F93CF93DF93EC01142F1A
:100720004C8D41110CC088819981892B09F045C0FD
:100730008A819B810E941F0B1B821A8245C0111166
:1007400017C050E08C819D810E94F6122C8D8C8107
:100750009D81820F911D9D838C832A813B8182170D
:10076000930768F1888199819D838C8380E02CC0F8
:1007700050E08E819F810E94F6128C8D90E09195C1
:10078000819591092E813F81280F391F3F832E8348
:10079000488159812417350730F42A813B81820F23
:1007A000931F9F838E83123061F48A8D882359F0C2
:1007B0008A8D81508A8F80E007C080E005C080E08C
:1007C00003C080E001C080E09A8D9F5F9A8FDF9127
:1007D000CF911F910895FC01448D4423A9F050E06E
:1007E00026813781240F351F3783268382819381A9
:1007F0002817390720F08081918197838683CB0168
:10080000668177810E94F6120895CF93DF93EC0101
:100810000FB6F8940F920DC08989882369F0CE0134
:1008200041960E94FA0981110E94B90A8E8D815069
:100830008E8F8E8D181684F38FEF8E8F0F900FBED4
:100840000FB6F8940F920DC08885882369F0CE0109
:1008500008960E94FA0981110E94B90A8D8D815073
:100860008D8F8D8D181684F38FEF8D8F0F900FBEA7
:10087000DF91CF910895CF93DF93EC010FB6F894F9
:100880000F92E881F9818B8D90E02C8D30E0829F72
:10089000A001839F500D929F500D11244E0F5F1F9A
:1008A0005B834A831A8EFD83EC830197289FA00106
:1008B000299F500D389F500D1124CF01840F951F93
:1008C0009F838E838FEF8D8F8E8F61110CC08885F3
:1008D000882389F0CE0108960E94FA09813059F4E4
:1008E0000E94B80208C0CE0108960E948A01CE017B
:1008F00041960E948A010F900FBE81E0DF91CF9157
:1009000008950F931F93CF93DF93882301F1062F50
:10091000182F8FE190E00E945401EC01892BC9F05F
:10092000109FC001112401960E945401998388836D
:10093000892B39F01B8F0C8F61E0CE010E943B04A4
:1009400008C0CE010E948901C0E0D0E002C0C0E032
:10095000D0E0CE01DF91CF911F910F910895CF92FA
:10096000DF92EF92FF920F931F93CF93DF9300D00C
:1009700000D01F92CDB7DEB78C017B015D834C8325
:10098000C22ED12C0FB6F8940F92F801928D838D60
:10099000981718F0F2E0CF1219C04C2DB701C8011A
:1009A0000E948B03F8019189992349F0C80141966F
:1009B0000E94FA09813031F40E94B80203C081110B
:1009C0000E94B8020F900FBE81E04DC08C819D81C6
:1009D000892B21F40F900FBE80E045C0D11006C0D6
:1009E000CE0101960E947C0ADD24D3940F900FBEA5
:1009F0000E94D1070FB6F8940F92F801858D8F3FB2
:100A000009F4158EF801868D8F3F09F4168E0F902C
:100A10000FBEBE016C5F7F4FCE0101960E94870A18
:100A200081111BC0C8010E947D03882381F06C8165
:100A30007D81C80108960E94B909C8010E94050479
:100A40000E94930881119ECF0E94B8029BCFC801DB
:100A50000E9405040E94930895CFC8010E940504D6
:100A60000E94930880E00F900F900F900F900F90CE
:100A7000DF91CF911F910F91FF90EF90DF90CF907A
:100A80000895AF92BF92CF92DF92EF92FF920F93B1
:100A90001F93CF93DF9300D000D01F92CDB7DEB766
:100AA0008C016B015D834C83E22EF12C0FB6F89420
:100AB0000F92F801828D882399F1A680B780B60144
:100AC000C8010E94EB03E1101AC0F801828D815029
:100AD000828F80819181892B29F40E94760BF80105
:100AE00093838283F80180858823B1F0C80108963A
:100AF0000E94FA09813081F40E94B8020DC0F80109
:100B0000B782A6828189882339F0C80141960E9464
:100B1000FA0981110E94B8020F900FBE81E05BC0FC
:100B20008C819D81892B21F40F900FBE80E053C0F2
:100B3000F11006C0CE0101960E947C0AFF24F394B6
:100B40000F900FBE0E94D1070FB6F8940F92F801D4
:100B5000858D8F3F09F4158EF801868D8F3F09F43E
:100B6000168E0F900FBEBE016C5F7F4FCE010196B7
:100B70000E94870A811129C0C8010E94700388233E
:100B8000F1F0F80180819181892B49F40FB6F89436
:100B90000F92828193810E94BD0A0F900FBE6C81DB
:100BA0007D81C80141960E94B909C8010E940504CF
:100BB0000E94930881117ACF0E94B80277CFC801B2
:100BC0000E9405040E94930871CFC8010E94050489
:100BD0000E94930880E00F900F900F900F900F905D
:100BE000DF91CF911F910F91FF90EF90DF90CF9009
:100BF000BF90AF900895E0918505F09186058081C2
:100C0000811107C08FEF9FEF909361008093600088
:100C10000895E0918505F09186050580F681E02D27
:100C20000680F781E02D828193819093610080930B
:100C300060000895EF92FF920F931F93CF93DF937D
:100C40007C01EB018FE290E00E9454018C01892B22
:100C500089F0209721F4C7010E94540101C0CE0100
:100C6000F801908F878B892B29F4C8010E94890194
:100C700000E010E0C801DF91CF911F910F91FF902C
:100C8000EF900895CF93DF93EC018F89988D0E94A8
:100C90008901CE010E948901DF91CF9108951F93B0
:100CA000CF93DF93EC01142F20E00FC0822F90E050
:100CB000FB01E80FF91F3081DE01A80FB91F59961B
:100CC0003C938081882319F02F5F243178F31CA690
:100CD000183008F017E01E8B1DA71EA6CE01029645
:100CE0000E949801CE010C960E949801D987C8876E
:100CF00088E090E0811B91099D878C87DB8BCA8BF4
:100D0000DF91CF911F910895CF93C0E010C08C2F39
:100D100090E09C01220F331F220F331F220F331F3D
:100D2000820F931F87569A4F0E948A01CF5FC83067
:100D300070F380E995E00E948A0187E895E00E94BF
:100D40008A018AE795E00E948A0181E795E00E9486
:100D50008A0180E995E0909386058093850587E870
:100D600095E09093840580938305CF910895CF9368
:100D7000DF93EC01E091E105F091E205938382833A
:100D800080916D0590916E05C817D90768F4609140
:100D9000E1057091E20580918305909184056E5F75
:100DA0007F4F0E94BD0117C06091E1057091E2057F
:100DB00080918505909186056E5F7F4F0E94BD01F1
:100DC0008091600090916100C817D90720F4D093FA
:100DD0006100C0936000DF91CF9108952F923F9200
:100DE0004F925F927F928F929F92AF92BF92CF92DB
:100DF000DF92EF92FF920F931F93CF93DF9300D078
:100E000000D0CDB7DEB79A8389834B015C834B83D7
:100E10001901702EB6012501CA010E941A065C0153
:100E2000009709F46AC0FC01C788D08C8B819C8133
:100E30000197C80ED91E0B811C819201472DB40168
:100E4000C5010E944F06A10169817A81C6010E94F5
:100E50001D02F50191838083E114F10419F0F7017B
:100E6000B182A0820FB6F8940F9280916F058F5FC8
:100E700080936F058091E1059091E205892B59F4EB
:100E8000B092E205A092E10580916F05813091F466
:100E90000E9484060FC080916B0581110BC0E09108
:100EA000E105F091E2058689781620F0B092E2051E
:100EB000A092E105809167058F5F80936705F5013A
:100EC000868990916C05981710F480936C0590E0DA
:100ED000B5016E5F7F4F9C01220F331F220F331F1E
:100EE000220F331F820F931F87569A4F0E949C0137
:100EF0000F900FBEF1E0F98302C08FEF8983E98183
:100F0000E13069F480916B05882349F0E091E105B7
:100F1000F091E2058689871510F40E94B802898154
:100F20000F900F900F900F90DF91CF911F910F9125
:100F3000FF90EF90DF90CF90BF90AF909F908F90F9
:100F40007F905F904F903F902F900895AF92BF9207
:100F5000CF92DF92EF92FF920F93A12CB12CC12C74
:100F6000D12CE12CF12C00E020E030E045E550E010
:100F700062E670E084E599E00E94EE06813049F473
:100F8000F89480936B0510926E0510926D050E9487
:100F900089020F91FF90EF90DF90CF90BF90AF90BC
:100FA0000895809166058F5F809366050895DF92AE
:100FB000EF92FF920F931F93CF93DF93809166057B
:100FC000811199C080916D0590916E050196909365
:100FD0006E0580936D05E0906D05F0906E05E1144F
:100FE000F104B9F4809185059091860520918305DF
:100FF0003091840530938605209385059093840570
:1010000080938305809168058F5F809368050E94B7
:10101000FB058091600090916100E816F90628F4C4
:10102000D12C53C0DD24D39401C0D12CE09185058F
:10103000F09186058081811107C08FEF9FEF90931B
:1010400061008093600041C0E0918505F0918605C4
:101050000580F681E02DC681D7818A819B81E816C3
:10106000F90628F490936100809360002EC08E01F1
:101070000E5F1F4FC8010E94EE018C899D89892B4C
:1010800021F0CE010C960E94EE018E8990916C05A4
:10109000981710F480936C0590E09C01220F331F89
:1010A000220F331F220F331F820F931FB801875661
:1010B0009A4F0E949C019E89E091E105F091E20522
:1010C0008689981708F0AECFB1CFE091E105F09195
:1010D000E205868990E0FC01EE0FFF1FEE0FFF1F77
:1010E000EE0FFF1F8E0F9F1FFC01E756FA4F808106
:1010F000823040F409C080916A058F5F80936A0551
:10110000D12C02C0DD24D39480916905882311F08D
:10111000DD24D3948D2DDF91CF911F910F91FF90FE
:10112000EF90DF9008950F931F93CF93DF930FB647
:10113000F8940F92809166058150809366058091A6
:101140006605811157C080916F05811132C055C06D
:10115000E0917F05F0918005C681D781CE010C9684
:101160000E94EE018E010E5F1F4FC8010E94EE012A
:101170008E8990916C05981710F480936C0590E01F
:101180009C01220F331F220F331F220F331F820FA8
:10119000931FB80187569A4F0E949C019E89E09147
:1011A000E105F091E2058689981718F081E08093B7
:1011B000690580917A058111CBCF80916A058111F3
:1011C0000DC010C00E94D707882319F081E08093DA
:1011D000690580916A05815080936A0580916A054E
:1011E0008111F0CF80916905813031F40E94B802FD
:1011F00081E003C080E001C080E00F900FBEDF916E
:10120000CF911F910F910895CF93DF93EC01892B1C
:10121000A9F00E94D10780916D0590916E05C80FCD
:10122000D91F8091E1059091E20502960E94EE019E
:10123000CE010E94B7060E94930801C080E0811190
:1012400002C00E94B802DF91CF910895CF93DF933F
:1012500024C00E94D107C09171050E949308CC233D
:10126000E1F00FB6F8940F92E0917605F0917705D2
:10127000C681D781CE0102960E94EE0180916F0552
:10128000815080936F058091700581508093700527
:101290000F900FBECE010E94420680917005811111
:1012A000D8CFDF91CF9108950E94260980919905AA
:1012B0008230D0F30E94B802F7CF80916605882370
:1012C00021F081E08093690508951092690505C0B9
:1012D00080916C05815080936C0580916C0590E045
:1012E000FC01EE0FFF1FEE0FFF1FEE0FFF1F8E0F13
:1012F0009F1FFC01E756FA4F8081882349F38091B4
:101300006C0590E09C01220F331F220F331F220F28
:10131000331F280F391FD901A756BA4F1196ED91E7
:10132000FC9112970280F381E02D1296FC93EE93CC
:10133000119724563A4FE217F30729F4228133819B
:10134000FD0132832183FC01EE0FFF1FEE0FFF1F13
:10135000EE0FFF1F8E0F9F1FFC01E756FA4F018013
:10136000F281E02D868197819093E2058093E105DB
:101370000895CF93DF93EB016091E1057091E20551
:10138000645F7F4F0E94BD018091E1059091E2056D
:1013900002960E94EE0180916D0590916E058C0F72
:1013A0009D1F0E94B706DF91CF910895CF93DF93E1
:1013B000EA01E091E105F091E205706875876487C4
:1013C0006091E1057091E205645F7F4F0E949C018E
:1013D0008091E1059091E20502960E94EE018091D4
:1013E0006D0590916E058C0F9D1F0E94B706DF91D1
:1013F000CF9108950F931F93CF93DF93DC01159640
:10140000ED91FC911697C681D7818E01045F1F4F25
:10141000C8010E94EE018091660581111CC00A502E
:101420001109C8010E94EE018E8990916C059817F0
:1014300010F480936C0590E09C01220F331F220F63
:10144000331F220F331F820F931FB80187569A4F05
:101450000E949C0105C0B8018AE795E00E949C01AA
:101460009E89E091E105F091E2058689891720F4D3
:1014700081E08093690501C080E0DF91CF911F91E9
:101480000F9108950F931F93CF93DF937068FC0122
:1014900071836083C681D7810E94EE018E010E5F49
:1014A0001F4FC8010E94EE018E8990916C0598171C
:1014B00010F480936C0590E09C01220F331F220FE3
:1014C000331F220F331F820F931FB80187569A4F85
:1014D0000E949C019E89E091E105F091E2058689D8
:1014E000891720F481E08093690501C080E0DF91D5
:1014F000CF911F910F91089520916805FC012083E1
:1015000020916D0530916E05328321830895CF932C
:10151000DF93FC010FB6F8940F9240916D05509146
:101520006E05908180916805981729F081819281DC
:1015300048175907B0F421813281CA01821B930BED
:10154000EB01A881B9818A179B0768F4CF01241B9E
:10155000350B2A0F3B1F398328830E947C0A80E0C9
:1015600003C081E001C081E00F900FBEDF91CF91F9
:10157000089581E08093690508950F931F93CF9399
:10158000DF93FC01892B09F455C02689A091E10560
:10159000B091E20556968C91281708F04BC08485CF
:1015A0009585992364F0A091E105B091E2055696E6
:1015B0003C9188E090E0831B910995878487828520
:1015C000938530E0A901440F551F440F551F440F68
:1015D000551F240F351F27563A4F8217930719F5C9
:1015E0008F01EF012296CE010E94EE01E091E1050C
:1015F000F091E2058689F801868B90916C05981729
:1016000010F480936C0590E09C01220F331F220F91
:10161000331F220F331F820F931FBE0187569A4F2D
:101620000E949C0107C0A091E105B091E205569689
:101630008C91868BDF91CF911F910F9108950F931D
:101640001F93CF93DF93FC01892B79F186A58150FD
:1016500086A7268995A5291751F181112AC0EF0186
:101660008F010E5F1F4FC8010E94EE018DA58E8B6A
:1016700028E030E0281B31093D872C8790916C05CC
:10168000981710F480936C0590E09C01220F331F93
:10169000220F331F220F331F820F931FB80187566B
:1016A0009A4F0E949C0181E005C080E003C080E069
:1016B00001C080E0DF91CF911F910F910895E091DB
:1016C000E105F091E20584859585E091E105F091D1
:1016D000E205A091E105B091E20556964C9128E013
:1016E00030E0241B31093587248708958091E10576
:1016F0009091E205892B39F0E091E105F091E20546
:1017000086A58F5F86A78091E1059091E2050895F7
:10171000CF93C82F60E081E00E94CF106C2F661F2E
:101720006627661F86E00E94CF10C6FB662760F919
:1017300085E00E94CF10C5FB662760F984E00E9417
:10174000CF10C4FB662760F983E00E94CF1061E0F0
:1017500082E00E94CF108FE99FE00197F1F700C06F
:10176000000060E082E00E94CF108FE99FE00197C7
:10177000F1F700C00000C3FB662760F986E00E9415
:10178000CF10C2FB662760F985E00E94CF10C1FB35
:10179000662760F984E00E94CF106C2F617083E0AF
:1017A0000E94CF1061E082E00E94CF108FE99FE09D
:1017B0000197F1F700C0000060E082E00E94CF10C6
:1017C0008FE99FE00197F1F700C00000CF910895E5
:1017D000CF93C82F61E081E00E94CF106C2F661F6D
:1017E0006627661F86E00E94CF10C6FB662760F959
:1017F00085E00E94CF10C5FB662760F984E00E9457
:10180000CF10C4FB662760F983E00E94CF1061E02F
:1018100082E00E94CF108FE99FE00197F1F700C0AE
:10182000000060E082E00E94CF108FE99FE0019706
:10183000F1F700C00000C3FB662760F986E00E9454
:10184000CF10C2FB662760F985E00E94CF10C1FB74
:10185000662760F984E00E94CF106C2F617083E0EE
:101860000E94CF1061E082E00E94CF108FE99FE0DC
:101870000197F1F700C0000060E082E00E94CF1005
:101880008FE99FE00197F1F700C00000CF91089524
:101890002FE788E391E0215080409040E1F700C0BD
:1018A000000082E00E94880B8FEC97E00197F1F72F
:1018B00000C0000088E20E94880B8FEC97E001973F
:1018C000F1F700C000008CE00E94880B8FEC97E0DD
:1018D0000197F1F700C0000081E00E94880B8FE3C0
:1018E0009CE90197F1F700C0000086E00E94880B98
:1018F00080E80E94880B08950E94E80B08950F93DA
:101900001F93CF938C01C0E003C00E94E80BCF5F10
:10191000F801EC0FF11D80818111F7CFCF911F915C
:101920000F9108952F923F924F925F926F927F9204
:101930008F929F92AF92BF92CF92DF92EF92FF92DF
:101940000F931F93CF93DF93CDB7DEB767970FB693
:10195000F894DEBF0FBECDBF2D8B3E8B742E652E4F
:10196000562E472E382E292EA0E00E94EA1219F496
:1019700080E30E94E80B2D893E89472D562D652D69
:10198000742D832D922DA0E00E94EA126CF40E9427
:10199000A3122D8B3E8B742E652E562E472E382E7D
:1019A000292E8DE20E94E80B812C34C081E0880D45
:1019B0008F8B912C0F2EFAE0AF2EF02DB12CC12C75
:1019C000D12CE12CF12C00E010E02D893E89472D2F
:1019D000562D652D742D832D922D0E941312E1E05A
:1019E000F0E0EC0FFD1FE80DF91D205D20832D892F
:1019F0003E89472D562D652D742D832D922D0E94E5
:101A000015122D8B3E8B742E652E562E472E382E9A
:101A1000292E8F882D893E89472D562D652D742DB1
:101A2000832D922DA0E00E94EA1209F0BFCF0DC0D5
:101A3000E82DF0E0319781E090E08C0F9D1FE80FDA
:101A4000F91F80810E94E80B8A948110F1CF67967C
:101A50000FB6F894DEBF0FBECDBFDF91CF911F91BF
:101A60000F91FF90EF90DF90CF90BF90AF909F903D
:101A70008F907F906F905F904F903F902F90089540
:101A8000811107C0603168F480E8860F0E94880BDE
:101A90000895813031F4603120F480EC860F0E948B
:101AA000880B0895CF93DF93EA010E94400DCE0189
:101AB0000E947F0CDF91CF91089580E00E94A50FD6
:101AC0000895CF93DF931F92CDB7DEB7198200E060
:101AD00010E0CE0101960E94FD11882309F49DC0FB
:101AE0008091EF058130D1F120F0823009F449C0B6
:101AF00094C08981833481F482E08093EF05109251
:101B0000EE0564E070E08091E5059091E6050E94A5
:101B1000F00000E010E081C0843509F07EC08091C3
:101B2000F205853421F484E48093F20503C085E452
:101B30008093F20560E470E08091E5059091E60500
:101B40000E94F00020E040E050E060E070E0809112
:101B5000EB059091EC050E94AF045FC0898183354D
:101B600009F05BC084E48093F20520E040E050E09F
:101B700060E070E08091EB059091EC050E94AF046D
:101B80004CC089818F34C1F4EFEEF5E002831082FE
:101B900062E670E08091E5059091E6050E94F00014
:101BA00020E040E050E060E070E08091EB05909133
:101BB000EC050E94AF0431C0833459F41092EF0554
:101BC00062E670E08091E5059091E6050E94F000E4
:101BD00024C090ED980F9A3000F59091EE05933067
:101BE000E0F49F5F9093EE059801220F331F000FE2
:101BF000111F000F111F000F111F020F131F080FDD
:101C0000111D005311098093ED0560E870E080918B
:101C1000E5059091E6050E94F0008AE090E00E94C0
:101C2000040957CF0E945D0D2091F00530E0821726
:101C3000930721F0EFEEF5E08183108284E690E0D7
:101C40000E940409EFCF20E04FEF5FEF60E070E00B
:101C50008091EB059091EC050E944105882399F352
:101C60008091EF0581111EC0EFEEF5E02181928198
:101C70002917C0F09091F2059534A1F481E080938A
:101C8000EF0561E070E08091E5059091E6050E9426
:101C9000F00068E070E08091E5059091E6050E9413
:101CA000F000D1CF813079F6EFEEF5E091818281BD
:101CB000981720F08091F205843429F61092EF05F0
:101CC00061E070E08091E5059091E6050E94E100F9
:101CD00062E670E08091E5059091E6050E94F000D3
:101CE000B2CF0FEF1FEF20E041E06FE770E080918F
:101CF000E5059091E6050E946F008093E3059093BF
:101D0000E40581FF0CC047E650E060E080E00E94FF
:101D1000520D4CE750E060E081E00E94520D80914E
:101D2000E30583FF0CC041E950E060E080E00E94E1
:101D3000520D46EA50E060E081E00E94520D809131
:101D4000E30582FF0CC04BEB50E060E080E00E94B6
:101D5000520D40ED50E060E081E00E94520D809114
:101D6000E30584FF0FC063E080E00E94400D2091F6
:101D7000F00530E040E050E060E070E080E090E0AE
:101D80000E94920C8091E30585FF0FC069E080E01E
:101D90000E94400D2091F10530E040E050E060E00D
:101DA00070E080E090E00E94920C8091E30587FF54
:101DB0000AC06091EE05675F80E00E94400D80914F
:101DC000ED050E947C0C8091E30586FF8ACF60E1DF
:101DD00080E00E94400D8091F2050E947C0C81CF32
:101DE0000FEF1FEF20E040E061E070E08091E5053B
:101DF0009091E6050E946F008093E3059093E405BF
:101E000080FFEECF86E00E94541184EF91E00E94A3
:101E10000409E6CFEFEEF5E0108285E483831182BA
:101E20008EE182830E94BF100E9495110E94480C8F
:101E300066E081E00E94720F85EE90E00E9406123B
:101E400008950E940A0FA12CB12CC12CD12CE12C99
:101E5000F12C01E020E030E046E950E060E070E085
:101E600081E79EE00E94EE0602E020E030E046E9D5
:101E700050E060E070E082E19EE00E94EE0603E048
:101E800020E030E046E950E060E070E081E69DE06F
:101E90000E94EE0604E020E030E046E950E060E019
:101EA00070E083E29EE00E94EE0605E020E030E074
:101EB00044E650E060E070E080EF9EE00E94EE06B5
:101EC0000E945C009093E6058093E50543E060E0A6
:101ED00081E00E9481049093EC058093EB050E94C1
:101EE000A607FFCF813059F018F0823079F014C086
:101EF00087B18F7B87B987B18F7787B90DC087B1DD
:101F0000806487B987B18F7787B906C087B180644D
:101F100087B987B1806887B986B1887F86B986B16D
:101F2000682B66B987B18F7D87B986B1806886B91D
:101F3000089597B1907E892B87B986B1806486B960
:101F40003699FECF84B195B108950E94990FAC01E6
:101F500060E070E0DB01CA01880F991FAA1FBB1F58
:101F6000880F991FAA1FBB1F840F951FA61FB71F9D
:101F7000072E7AE0B695A795979587957A95D1F72C
:101F8000702D0895982F9695969596958770613047
:101F900009F455C020F0623009F4A1C008959130D1
:101FA000C1F028F0923039F19330B9F108954AB375
:101FB00021E030E0B90102C0660F771F8A95E2F791
:101FC000CB01942F982B9ABB9BB3809589238BBB15
:101FD000089547B321E030E0B90102C0660F771FD2
:101FE0008A95E2F7CB01942F982B97BB98B38095F5
:101FF000892388BB089544B321E030E0B90102C0D1
:10200000660F771F8A95E2F7CB01942F982B94BB2C
:1020100095B38095892385BB089541B321E030E0D5
:10202000B90102C0660F771F8A95E2F7CB01942FA2
:10203000982B91BB92B38095892382BB08959130F0
:10204000C1F028F0923039F19330B9F108954AB3D4
:1020500021E030E0B90102C0660F771F8A95E2F7F0
:10206000CB018095942F98239ABB9BB389238BBB7C
:10207000089547B321E030E0B90102C0660F771F31
:102080008A95E2F7CB018095942F982397BB98B35C
:10209000892388BB089544B321E030E0B90102C030
:1020A000660F771F8A95E2F7CB018095942F9823CE
:1020B00094BB95B3892385BB089541B321E030E0FB
:1020C000B90102C0660F771F8A95E2F7CB018095B0
:1020D000942F982391BB92B3892382BB08959130AA
:1020E000C1F028F0923039F19330B9F108954AB334
:1020F00021E030E0B90102C0660F771F8A95E2F750
:10210000CB01962F909594239ABB9BB3892B8BBBC5
:10211000089547B321E030E0B90102C0660F771F90
:102120008A95E2F7CB01962F9095942397BB98B3AD
:10213000892B88BB089544B321E030E0B90102C087
:10214000660F771F8A95E2F7CB01962F909594231F
:1021500094BB95B3892B85BB089541B321E030E052
:10216000B90102C0660F771F8A95E2F7CB01962F5F
:102170009095942391BB92B3892B82BB0895CF9302
:10218000C0E009C0EC2FF0E0EB50FF4F60818C2FD6
:102190000E94C20FCF5FC032A8F3CF910895982F4D
:1021A0009695969596958770611140C09130A1F0F3
:1021B00028F09230F9F0933059F108954BB321E0B3
:1021C00030E0B90102C0660F771F8A95E2F7CB01B4
:1021D000809584238BBB089548B321E030E0B9019A
:1021E00002C0660F771F8A95E2F7CB0180958423A2
:1021F00088BB089545B321E030E0B90102C0660F05
:10220000771F8A95E2F7CB018095842385BB0895DB
:1022100042B321E030E0B90102C0660F771F8A9512
:10222000E2F7CB018095842382BB08956130D9F514
:10223000913099F028F09230E9F0933041F108950F
:102240004BB321E030E0B90102C0660F771F8A95D9
:10225000E2F7CB01842B8BBB089548B321E030E03B
:10226000B90102C0660F771F8A95E2F7CB01842B74
:1022700088BB089545B321E030E0B90102C0660F84
:10228000771F8A95E2F7CB01842B85BB089542B373
:1022900021E030E0B90102C0660F771F8A95E2F7AE
:1022A000CB01842B82BB0895982F96959695969591
:1022B0008770913099F028F09230E9F0933041F135
:1022C00008954BB321E030E0B90102C0660F771FDB
:1022D0008A95E2F7CB0184278BBB089548B321E0B0
:1022E00030E0B90102C0660F771F8A95E2F7CB0193
:1022F000842788BB089545B321E030E0B90102C0CE
:10230000660F771F8A95E2F7CB01842785BB089576
:1023100042B321E030E0B90102C0660F771F8A9511
:10232000E2F7CB01842782BB08958BB18D7F8BB9F7
:102330008AB18B7F8AB986E880BD10BC83E389B9F6
:102340008AB180618AB98AB188608AB908951F927A
:102350000F920FB60F9211242F933F934F935F93D9
:102360006F937F938F939F93AF93BF93EF93FF935D
:10237000E091E905F091EA05309709F00995FF91A0
:10238000EF91BF91AF919F918F917F916F915F91ED
:102390004F913F912F910F900FBE0F901F90189566
:1023A0001F920F920FB60F9211242F933F934F93CA
:1023B0005F936F937F938F939F93AF93BF93EF93AD
:1023C000FF93E091E705F091E805309709F0099552
:1023D000FF91EF91BF91AF919F918F917F916F91FD
:1023E0005F914F913F912F910F900FBE0F901F90D3
:1023F00018955D9BFECF8CB908955F9B05C02CB1ED
:10240000FC01208381E0089580E00895CF93DF935D
:10241000EC0103C00E94F911219688818111FACF45
:10242000DF91CF910895689401C0E894F92FF12BC2
:1024300012F00C944712A0E0B0E0E1E2F2E10C945B
:10244000B912092E059422F40E94A312112392F4CA
:10245000F0E80F26FFEFE094F09400951095B0940B
:10246000C094D094A194BF0ACF0ADF0AEF0AFF0AF2
:102470000F0B1F0B0E94521207FC0E94A312CDB734
:10248000DEB7ECE00C94D512689401C0E8948F920A
:102490009F92CF93DF930E945212DF91CF919F9032
:1024A0008F90089588249924F401E401B0E49F9367
:1024B000AA279A158B049C04ED05FE05CF05D007CD
:1024C000A10798F4AD2FDC2FCF2FFE2FE92D982CEC
:1024D000892E982F872F762F652F542F432F322F39
:1024E0002227B85031F7BF9127C01B2EBF91BB27C1
:1024F000220F331F441F551F661F771F881F991F08
:10250000881C991CEE1FFF1FCC1FDD1FAA1FBB1FBD
:102510008A149B04EC05FD05CE05DF05A007B10775
:1025200048F08A189B08EC09FD09CE09DF09A00BC9
:10253000B10B21601A94E1F62EF49401AF01BE01B3
:10254000CD01000C0895609570958095909530951B
:102550004095509521953F4F4F4F5F4F6F4F7F4FA5
:102560008F4F9F4F08952F923F924F925F926F929D
:102570007F928F929F92AF92BF92CF92DF92EF9213
:10258000FF920F931F93CF93DF93CDB7DEB7CA1B94
:10259000DB0B0FB6F894DEBF0FBECDBF09942A88BF
:1025A000398848885F846E847D848C849B84AA8467
:1025B000B984C884DF80EE80FD800C811B81AA81F4
:1025C000B981CE0FD11D0FB6F894DEBF0FBECDBFBF
:1025D000ED0108950024A7FD00942A173005400559
:1025E000500560057005800590050895FB01DC012C
:1025F00002C001900D9241505040D8F70895F894D0
:02260000FFCF0A
:10260200FFFF49444C4500433A202020202020541B
:102612003A20202020202041533A200020205443F9
:102622003A43202020202020202041543A542020C8
:10263200002020212121414C41524D494E47212168
:102642002120202020002020202020202020415353
:102652003A5320202020202020200020202020204B
:10266200202020543A20202020202020202020003A
:1026720020204F4B3A4F2020202020202020434E64
:102682003A4320200053797374656D20737461722C
:1026920074200D0A00000000000000000002000289
:1026A200000000010002020202000000020100021A
:0626B20000000001000021
:00000001FF
