:100000000C942A000C9447000C9447000C94470071
:100010000C9447000C9447000C94920E0C942C0EF8
:100020000C945F0E0C94F90D0C94FB0A0C94C80A06
:100030000C9447000C9447000C9447000C94470024
:100040000C9447000C9447000C9447000C94470014
:100050000C94470011241FBECFE5D8E0DEBFCDBF12
:1000600010E0A0E6B0E0ECE2F3E202C005900D92F1
:10007000A038B107D9F710E0A0E8B0E001C01D92A8
:10008000AE3AB107E1F70E940C110C9494110C9454
:100090000000DF93CF93CDB7DEB72C970FB6F8945F
:1000A000DEBF0FBECDBF8B836C838B81869586951B
:1000B00086958A838B81877089838C81282F30E095
:1000C0003C872B878B859C858130910509F4C9C0BD
:1000D0002B853C852230310509F485C18B859C85B3
:1000E000009709F03DC28A81282F30E03A8729879E
:1000F00089859A858130910509F43EC029853A8524
:10010000223031052CF489859A85009771F028C238
:1001100029853A852230310509F455C089859A85AB
:100120008330910509F476C01BC2AAE3B0E0EAE38C
:10013000F0E08081482F8981282F30E081E090E035
:1001400002C0880F991F2A95E2F7842B8C93ABE3AA
:10015000B0E0EBE3F0E08081482F8981282F30E088
:1001600081E090E0022E02C0880F991F0A94E2F706
:10017000809584238C93F4C1A7E3B0E0E7E3F0E03B
:100180008081482F8981282F30E081E090E002C0F3
:10019000880F991F2A95E2F7842B8C93A8E3B0E08F
:1001A000E8E3F0E08081482F8981282F30E081E06A
:1001B00090E0022E02C0880F991F0A94E2F7809502
:1001C00084238C93CDC1A4E3B0E0E4E3F0E080812C
:1001D000482F8981282F30E081E090E002C0880F0D
:1001E000991F2A95E2F7842B8C93A5E3B0E0E5E311
:1001F000F0E08081482F8981282F30E081E090E075
:10020000022E02C0880F991F0A94E2F7809584237A
:100210008C93A6C1A1E3B0E0E1E3F0E08081482F38
:100220008981282F30E081E090E002C0880F991F7B
:100230002A95E2F7842B8C93A2E3B0E0E2E3F0E0AE
:100240008081482F8981282F30E081E090E0022EC4
:1002500002C0880F991F0A94E2F7809584238C933B
:100260007FC18A81282F30E038872F838F8198853E
:100270008130910509F43FC02F8138852230310546
:100280002CF48F819885009771F06AC12F81388591
:100290002230310509F457C08F819885833091054C
:1002A00009F479C05DC1AAE3B0E0EAE3F0E080813F
:1002B000482F8981282F30E081E090E002C0880F2C
:1002C000991F2A95E2F7809584238C93ABE3B0E0E5
:1002D000EBE3F0E08081482F8981282F30E081E036
:1002E00090E0022E02C0880F991F0A94E2F78095D1
:1002F00084238C9335C1A7E3B0E0E7E3F0E080818D
:10030000482F8981282F30E081E090E002C0880FDB
:10031000991F2A95E2F7809584238C93A8E3B0E097
:10032000E8E3F0E08081482F8981282F30E081E0E8
:1003300090E0022E02C0880F991F0A94E2F7809580
:1003400084238C930DC1A4E3B0E0E4E3F0E080816A
:10035000482F8981282F30E081E090E002C0880F8B
:10036000991F2A95E2F7809584238C93A5E3B0E04A
:10037000E5E3F0E08081482F8981282F30E081E09B
:1003800090E0022E02C0880F991F0A94E2F7809530
:1003900084238C93E5C0A1E3B0E0E1E3F0E0808149
:1003A000482F8981282F30E081E090E002C0880F3B
:1003B000991F2A95E2F7809584238C93A2E3B0E0FD
:1003C000E2E3F0E08081482F8981282F30E081E04E
:1003D00090E0022E02C0880F991F0A94E2F78095E0
:1003E00084238C93BDC08A81282F30E03E832D83E7
:1003F0008D819E818130910509F43EC02D813E8121
:10040000223031052CF48D819E81009771F0A8C0B7
:100410002D813E812230310509F455C08D819E81A8
:100420008330910509F476C09BC0AAE3B0E0EAE30B
:10043000F0E08081482F8981282F30E081E090E032
:1004400002C0880F991F2A95E2F7809584238C9328
:10045000ABE3B0E0EBE3F0E08081482F8981282F07
:1004600030E081E090E0022E02C0880F991F0A94CC
:10047000E2F7842B8C9374C0A7E3B0E0E7E3F0E0ED
:100480008081482F8981282F30E081E090E002C0F0
:10049000880F991F2A95E2F7809584238C93A8E30F
:1004A000B0E0E8E3F0E08081482F8981282F30E038
:1004B00081E090E0022E02C0880F991F0A94E2F7B3
:1004C000842B8C934DC0A4E3B0E0E4E3F0E08081A2
:1004D000482F8981282F30E081E090E002C0880F0A
:1004E000991F2A95E2F7809584238C93A5E3B0E0C9
:1004F000E5E3F0E08081482F8981282F30E081E01A
:1005000090E0022E02C0880F991F0A94E2F7842B14
:100510008C9326C0A1E3B0E0E1E3F0E08081482FB6
:100520008981282F30E081E090E002C0880F991F78
:100530002A95E2F7809584238C93A2E3B0E0E2E36E
:10054000F0E08081482F8981282F30E081E090E021
:10055000022E02C0880F991F0A94E2F7842B8C9315
:100560002C960FB6F894DEBF0FBECDBFCF91DF91B2
:100570000895DF93CF930F92CDB7DEB719820EC0E7
:100580008981882F90E0FC01E05AFF4F908189819A
:10059000692F0E94490089818F5F89838981803218
:1005A00078F30F90CF91DF910895DF93CF93CDB77C
:1005B000DEB728970FB6F894DEBF0FBECDBF8B8392
:1005C0006C838B818695869586958A838B818770CF
:1005D00089838C81882309F074C08A81282F30E0B8
:1005E00038872F838F8198858130910559F12F812C
:1005F0003885223031052CF48F819885009769F079
:10060000D2C02F8138852230310589F18F819885BC
:100610008330910509F440C0C6C0ABE3B0E0EBE322
:10062000F0E08081482F8981282F30E081E090E040
:10063000022E02C0880F991F0A94E2F78095842346
:100640008C93B1C0A8E3B0E0E8E3F0E08081482FEC
:100650008981282F30E081E090E0022E02C0880FCF
:10066000991F0A94E2F7809584238C939CC0A5E39C
:10067000B0E0E5E3F0E08081482F8981282F30E069
:1006800081E090E0022E02C0880F991F0A94E2F7E1
:10069000809584238C9387C0A2E3B0E0E2E3F0E08E
:1006A0008081482F8981282F30E081E090E0022E60
:1006B00002C0880F991F0A94E2F7809584238C93D7
:1006C00072C08C81813009F06EC08A81282F30E0A1
:1006D0003E832D838D819E818130910549F12D814D
:1006E0003E81223031052CF48D819E81009761F08E
:1006F0005AC02D813E812230310571F18D819E815C
:1007000083309105E9F14FC0ABE3B0E0EBE3F0E0FB
:100710008081482F8981282F30E081E090E0022EEF
:1007200002C0880F991F0A94E2F7842B8C933BC078
:10073000A8E3B0E0E8E3F0E08081482F8981282F2A
:1007400030E081E090E0022E02C0880F991F0A94E9
:10075000E2F7842B8C9327C0A5E3B0E0E5E3F0E05B
:100760008081482F8981282F30E081E090E0022E9F
:1007700002C0880F991F0A94E2F7842B8C9313C050
:10078000A2E3B0E0E2E3F0E08081482F8981282FE6
:1007900030E081E090E0022E02C0880F991F0A9499
:1007A000E2F7842B8C9328960FB6F894DEBF0FBE29
:1007B000CDBFCF91DF910895DF93CF9300D000D0CC
:1007C00000D0CDB7DEB78C831B828C818695869551
:1007D00086958A838C81877089838A81282F30E06F
:1007E0003E832D834D815E814130510541F18D81E4
:1007F0009E818230910534F42D813E812115310591
:1008000061F052C04D815E814230510551F18D81C0
:100810009E8183309105B9F147C0E9E3F0E0808122
:10082000282F30E08981882F90E0A90102C05595DA
:1008300047958A95E2F7CA0181708B8335C0E6E35C
:10084000F0E08081282F30E08981882F90E0A90195
:1008500002C0559547958A95E2F7CA0181708B834E
:1008600023C0E3E3F0E08081282F30E08981882FE6
:1008700090E0A90102C0559547958A95E2F7CA0113
:1008800081708B8311C0E0E3F0E08081282F30E09D
:100890008981882F90E0A90102C0559547958A95D6
:1008A000E2F7CA0181708B838B8126960FB6F8948C
:1008B000DEBF0FBECDBFCF91DF910895DF93CF9301
:1008C00000D000D00F92CDB7DEB78B838B81869599
:1008D000869586958A838B81877089838A81282F64
:1008E00030E03D832C838C819D818130910549F1DD
:1008F0002C813D81223031052CF48C819D81009723
:1009000061F05AC02C813D812230310571F18C811A
:100910009D8183309105E9F14FC0ABE3B0E0EBE39B
:10092000F0E08081482F8981282F30E081E090E03D
:10093000022E02C0880F991F0A94E2F784278C9335
:100940003BC0A8E3B0E0E8E3F0E08081482F898174
:10095000282F30E081E090E0022E02C0880F991F1E
:100960000A94E2F784278C9327C0A5E3B0E0E5E37F
:10097000F0E08081482F8981282F30E081E090E0ED
:10098000022E02C0880F991F0A94E2F784278C93E5
:1009900013C0A2E3B0E0E2E3F0E08081482F898158
:1009A000282F30E081E090E0022E02C0880F991FCE
:1009B0000A94E2F784278C930F900F900F900F907A
:1009C0000F90CF91DF910895DF93CF9300D000D0A7
:1009D000CDB7DEB789836A838981282F30E03C83D5
:1009E0002B838B819C8181309105D1F02B813C81BF
:1009F000223031052CF48B819C81009761F01EC060
:100A00002B813C812230310581F08B819C818330A8
:100A1000910581F013C0EBE3F0E08A8180830EC082
:100A2000E8E3F0E08A81808309C0E5E3F0E08A81B1
:100A3000808304C0E2E3F0E08A8180830F900F900E
:100A40000F900F90CF91DF910895DF93CF9300D057
:100A500000D00F92CDB7DEB789836A834B8389813B
:100A6000282F30E03D832C838C819D81813091053E
:100A700059F12C813D81223031052CF48C819D81EE
:100A8000009769F05FC02C813D812230310589F1EA
:100A90008C819D818330910509F440C053C0ABE344
:100AA000B0E0EBE3F0E08081982F8B818095892383
:100AB0008C93ABE3B0E0EBE3F0E020819A818B8193
:100AC0008923822B8C933EC0A8E3B0E0E8E3F0E0FA
:100AD0008081982F8B81809589238C93A8E3B0E047
:100AE000E8E3F0E020819A818B818923822B8C932B
:100AF00029C0A5E3B0E0E5E3F0E08081982F8B8189
:100B0000809589238C93A5E3B0E0E5E3F0E02081B4
:100B10009A818B818923822B8C9314C0A2E3B0E04D
:100B2000E2E3F0E08081982F8B81809589238C937C
:100B3000A2E3B0E0E2E3F0E020819A818B81892397
:100B4000822B8C930F900F900F900F900F90CF915E
:100B5000DF910895DF93CF9300D000D0CDB7DEB7FB
:100B600089836A838A818295807F8A838981282FFD
:100B700030E03C832B838B819C818130910529F16E
:100B80002B813C81223031052CF48B819C81009794
:100B900061F04AC02B813C812230310531F18B81DB
:100BA0009C818330910589F13FC0ABE3B0E0EBE37A
:100BB000F0E080818F708C93ABE3B0E0EBE3F0E08A
:100BC00090818A81892B8C932FC0A8E3B0E0E8E361
:100BD000F0E080818F708C93A8E3B0E0E8E3F0E070
:100BE00090818A81892B8C931FC0A5E3B0E0E5E357
:100BF000F0E080818F708C93A5E3B0E0E5E3F0E056
:100C000090818A81892B8C930FC0A2E3B0E0E2E34C
:100C1000F0E080818F708C93A2E3B0E0E2E3F0E03B
:100C200090818A81892B8C930F900F900F900F9059
:100C3000CF91DF910895DF93CF9300D000D0CDB74F
:100C4000DEB789836A838A818F708A838981282F9E
:100C500030E03C832B838B819C818130910529F18D
:100C60002B813C81223031052CF48B819C810097B3
:100C700061F04AC02B813C812230310531F18B81FA
:100C80009C818330910589F13FC0ABE3B0E0EBE399
:100C9000F0E08081807F8C93ABE3B0E0EBE3F0E0A9
:100CA00090818A81892B8C932FC0A8E3B0E0E8E380
:100CB000F0E08081807F8C93A8E3B0E0E8E3F0E08F
:100CC00090818A81892B8C931FC0A5E3B0E0E5E376
:100CD000F0E08081807F8C93A5E3B0E0E5E3F0E075
:100CE00090818A81892B8C930FC0A2E3B0E0E2E36C
:100CF000F0E08081807F8C93A2E3B0E0E2E3F0E05B
:100D000090818A81892B8C930F900F900F900F9078
:100D1000CF91DF910895DF93CF9300D00F92CDB79D
:100D2000DEB789838981282F30E03B832A838A813B
:100D30009B818130910571F02A813B812230310500
:100D400071F08A819B81009771F488E061E00E94D4
:100D5000D50209C089E061E00E94D50204C08AE0A2
:100D600061E00E94D5020F900F900F90CF91DF911C
:100D70000895DF93CF9300D00F92CDB7DEB789836C
:100D80008981282F30E03B832A838A819B818130AF
:100D9000910571F02A813B812230310571F08A8101
:100DA0009B81009771F488E060E00E94D50209C041
:100DB00089E060E00E94D50204C08AE060E00E9401
:100DC000D5020F900F900F90CF91DF910895DF9390
:100DD000CF9300D0CDB7DEB780918000282F30E0D0
:100DE0003A83298389819A8181309105B1F02981E3
:100DF0003A8122303105F1F089819A81009729F5F5
:100E000080E00E948B0681E00E94B90682E00E9489
:100E1000B90681E08093800018C080E00E94B90686
:100E200081E00E948B0682E00E94B90682E08093F6
:100E300080000BC080E00E94B90681E00E94B906E4
:100E400082E00E948B06109280000F900F90CF914D
:100E5000DF910895DF93CF9300D00F92CDB7DEB727
:100E600089838981282F30E03B832A838A819B8173
:100E7000009731F02A813B812130310531F009C0E2
:100E800084E060E00E94D50204C085E060E00E943A
:100E9000D5020F900F900F90CF91DF910895DF93BF
:100EA000CF9300D00F92CDB7DEB789838981282FE9
:100EB00030E03B832A838A819B81009731F02A812D
:100EC0003B812130310531F009C084E061E00E94AE
:100ED000D50204C085E061E00E94D5020F900F901A
:100EE0000F90CF91DF910895DF93CF930F92CDB7FD
:100EF000DEB789838981982F917080E0692F0E94E5
:100F0000D50289818695982F917081E0692F0E9482
:100F1000D502898186958695982F917082E0692FF8
:100F20000E94D5028981869586958695982F917025
:100F300083E0692F0E94D5020F90CF91DF91089531
:100F4000DF93CF9300D0CDB7DEB780E00E944F078C
:100F500081E00E944F0780918200282F30E03A8381
:100F6000298389819A81009731F029813A81213042
:100F7000310581F01DC0809181009AE0692F0E94A7
:100F800052110E94740780E00E942A0781E080933A
:100F900082000EC0809181009AE0692F0E94521158
:100FA000892F0E94740781E00E942A071092820014
:100FB0000F900F90CF91DF910895DF93CF93CDB72E
:100FC000DEB70E94A007CF91DF910895DF93CF9302
:100FD0000F92CDB7DEB789838981809381000F900E
:100FE000CF91DF910895DF93CF930F92CDB7DEB706
:100FF000198298C08981282F30E0C901880F991F74
:10100000880F991F880F991F821B930BFC01E757CC
:10101000FF4F8081813009F082C08981282F30E024
:10102000C901880F991F880F991F880F991F821B6C
:10103000930BFC01EB57FF4F80819181009709F0E2
:101040004CC08981282F30E0C901880F991F880F73
:10105000991F880F991F821B930BFC01E957FF4FC3
:1010600080819181009799F08981282F30E0C90112
:10107000880F991F880F991F880F991F821B930B48
:10108000FC01E957FF4F0190F081E02D099589811E
:10109000482F50E08981282F30E0C901880F991F1F
:1010A000880F991F880F991F821B930BFC01ED5726
:1010B000FF4F808191819C0121503040CA01880FEF
:1010C000991F880F991F880F991F841B950BFC018E
:1010D000EB57FF4F3183208322C08981282F30E0D6
:1010E000C901880F991F880F991F880F991F821BAC
:1010F000930BFC01EB57FF4F80819181AC01415074
:101100005040C901880F991F880F991F880F991F98
:10111000821B930BFC01EB57FF4F51834083898166
:101120008F5F89838981833008F464CF0F90CF91DA
:10113000DF910895DF93CF93CDB7DEB723EF37E08C
:1011400081E090E0B9010E9489107894CF91DF91FD
:101150000895DF93CF93CDB7DEB728970FB6F894F5
:10116000DEBF0FBECDBF8A837C836B835E834D83DE
:1011700038872F8319828B819C81009709F45FC087
:101180008A81282F30E0C901880F991F880F991F85
:10119000880F991F821B930BFC01E957FF4F808139
:1011A0009181009709F04DC08A81282F30E0C90154
:1011B000880F991F880F991F880F991F821B930B07
:1011C000FC01ED57FF4F8D819E81918380838A8141
:1011D000282F30E0C901880F991F880F991F880FA9
:1011E000991F821B930BFC01E957FF4F8B819C8158
:1011F000918380838A81282F30E0C901880F991F4D
:10120000880F991F880F991F821B930BFC01E757CA
:10121000FF4F81E080838A81282F30E0C901880F49
:10122000991F880F991F880F991F821B930BFC0130
:10123000EB57FF4F8F8198859183808302C081E0B7
:101240008983898128960FB6F894DEBF0FBECDBF83
:10125000CF91DF910895DF93CF930F92CDB7DEB793
:1012600089838981282F30E0C901880F991F880F51
:10127000991F880F991F821B930BFC01E757FF4FA3
:1012800082E080830F90CF91DF910895DF93CF9319
:101290000F92CDB7DEB789838981282F30E0C9014D
:1012A000880F991F880F991F880F991F821B930B16
:1012B000FC01E757FF4F81E080830F90CF91DF91D2
:1012C0000895DF93CF930F92CDB7DEB789838981DD
:1012D000282F30E0C901880F991F880F991F880FA8
:1012E000991F821B930BFC01E957FF4F118210825B
:1012F0000F90CF91DF910895DF93CF93CDB7DEB7F5
:10130000809198008B3330F4809198008F5F8093A8
:10131000980002C010929800809198000E94E60701
:10132000CF91DF910895DF93CF93CDB7DEB72797A5
:101330000FB6F894DEBF0FBECDBF89836A834B839F
:101340008981282F30E03F832E838E819F818130D9
:10135000910521F12E813F81223031052CF48E81BF
:101360009F81009761F046C02E813F812230310578
:1013700021F18E819F818330910571F13BC0A3E5FE
:10138000B0E0E3E5F0E080818F7B8C93A3E5B0E0F3
:10139000E3E5F0E08081877F8C932CC0A3E5B0E08B
:1013A000E3E5F0E0808180648C93A3E5B0E0E3E5C1
:1013B000F0E08081877F8C931DC0A3E5B0E0E3E57A
:1013C000F0E080818F7B8C93A3E5B0E0E3E5F0E073
:1013D000808188608C930EC0A3E5B0E0E3E5F0E087
:1013E000808180648C93A3E5B0E0E3E5F0E0808148
:1013F00088608C93A3E5B0E0E3E5F0E08081887F2E
:101400008C93A3E5B0E0E3E5F0E090818A81892B3D
:101410008C938B81282F30E03D832C838C819D81A0
:101420008130910521F12C813D81223031052CF450
:101430008C819D81009761F046C02C813D812230D6
:10144000310521F18C819D818330910571F13BC083
:10145000A3E5B0E0E3E5F0E080818F7E8C93A3E527
:10146000B0E0E3E5F0E080818F7D8C932CC0A3E5B4
:10147000B0E0E3E5F0E0808180618C93A3E5B0E02B
:10148000E3E5F0E080818F7D8C931DC0A3E5B0E0A3
:10149000E3E5F0E080818F7E8C93A3E5B0E0E3E5A7
:1014A000F0E0808180628C930EC0A3E5B0E0E3E5BC
:1014B000F0E0808180618C93A3E5B0E0E3E5F0E0AB
:1014C000808180628C9327960FB6F894DEBF0FBEA2
:1014D000CDBFCF91DF910895DF93CF93CDB7DEB726
:1014E000A9E5B0E0E9E5F0E0808181608C93CF91DF
:1014F000DF910895DF93CF93CDB7DEB7A9E5B0E0D4
:10150000E9E5F0E080818E7F8C93CF91DF910895A3
:10151000DF93CF93CDB7DEB7A9E5B0E0E9E5F0E022
:10152000808182608C93CF91DF910895DF93CF9378
:10153000CDB7DEB7A9E5B0E0E9E5F0E080818D7FC9
:101540008C93CF91DF910895DF93CF9300D0CDB7E7
:10155000DEB79A83898389819A819093A2008093D0
:10156000A1000F900F90CF91DF910895DF93CF935B
:1015700000D0CDB7DEB79A83898389819A81909311
:10158000A4008093A3000F900F90CF91DF91089556
:101590001F920F920FB60F9211242F933F934F93E8
:1015A0005F936F937F938F939F93AF93BF93EF93CB
:1015B000FF93DF93CF93CDB7DEB78091A1009091D9
:1015C000A200009729F0E091A100F091A2000995F6
:1015D000CF91DF91FF91EF91BF91AF919F918F914B
:1015E0007F916F915F914F913F912F910F900FBE1F
:1015F0000F901F9018951F920F920FB60F92112403
:101600002F933F934F935F936F937F938F939F930A
:10161000AF93BF93EF93FF93DF93CF93CDB7DEB735
:101620008091A3009091A400009729F0E091A3007D
:10163000F091A4000995CF91DF91FF91EF91BF91B7
:10164000AF919F918F917F916F915F914F913F915A
:101650002F910F900FBE0F901F901895DF93CF938F
:10166000CDB7DEB72A970FB6F894DEBF0FBECDBF59
:1016700089836A834B832C838981282F30E03A87C2
:10168000298789859A858330910509F47FC029854A
:101690003A852430310584F489859A858130910515
:1016A000D9F129853A85223031050CF052C089855F
:1016B0009A850097A1F0DDC029853A85253031054E
:1016C00009F49EC089859A85853091050CF47BC00C
:1016D00029853A852630310509F4AFC0CAC0AFE488
:1016E000B0E0EFE4F0E080818E7F8C93AFE4B0E077
:1016F000EFE4F0E080818D7F8C93AEE4B0E0EEE427
:10170000F0E08081877F8C93AEE4B0E0EEE4F0E01F
:1017100080818F7E8C93ADC0AFE4B0E0EFE4F0E069
:1017200080818E7F8C93AFE4B0E0EFE4F0E08081C5
:101730008D7F8C93AEE4B0E0EEE4F0E080818860D1
:101740008C93AEE4B0E0EEE4F0E0808180618C93B5
:1017500090C0AFE4B0E0EFE4F0E080818E7F8C9346
:10176000AFE4B0E0EFE4F0E080818D7F8C93AEE4F5
:10177000B0E0EEE4F0E0808188608C93AEE4B0E00D
:10178000EEE4F0E080818F7E8C9373C0AFE4B0E034
:10179000EFE4F0E080818E7F8C93AFE4B0E0EFE483
:1017A000F0E0808182608C93AEE4B0E0EEE4F0E0A3
:1017B000808188608C93AEE4B0E0EEE4F0E080815C
:1017C00080618C9356C0AFE4B0E0EFE4F0E080813C
:1017D00081608C93AFE4B0E0EFE4F0E08081826060
:1017E0008C93AEE4B0E0EEE4F0E0808188608C930E
:1017F000AEE4B0E0EEE4F0E0808180618C9339C02B
:10180000AFE4B0E0EFE4F0E080818E7F8C93AFE452
:10181000B0E0EFE4F0E0808182608C93AEE4B0E071
:10182000EEE4F0E08081877F8C93AEE4B0E0EEE4FC
:10183000F0E0808180618C931CC0AFE4B0E0EFE405
:10184000F0E0808181608C93AFE4B0E0EFE4F0E001
:10185000808182608C93AEE4B0E0EEE4F0E08081C1
:10186000877F8C93AEE4B0E0EEE4F0E080818061AD
:101870008C938B81282F30E038872F838F81988538
:101880008130910521F12F813885223031052CF4EA
:101890008F819885009761F046C02F81388522306E
:1018A000310521F18F8198858330910571F13BC01D
:1018B000AFE4B0E0EFE4F0E080818F7B8C93AFE4A5
:1018C000B0E0EFE4F0E080818F778C932CC0AFE440
:1018D000B0E0EFE4F0E0808180648C93AFE4B0E0AE
:1018E000EFE4F0E080818F778C931DC0AFE4B0E02F
:1018F000EFE4F0E080818F7B8C93AFE4B0E0EFE425
:10190000F0E0808180688C930EC0AFE4B0E0EFE43B
:10191000F0E0808180648C93AFE4B0E0EFE4F0E02D
:10192000808180688C938C81282F30E03E832D83CA
:101930008D819E818130910521F12D813E81223062
:1019400031052CF48D819E81009761F046C02D8178
:101950003E812230310521F18D819E8183309105B8
:1019600071F13BC0AFE4B0E0EFE4F0E080818F7E46
:101970008C93AFE4B0E0EFE4F0E080818F7D8C9356
:101980002CC0AFE4B0E0EFE4F0E0808180618C93A4
:10199000AFE4B0E0EFE4F0E080818F7D8C931DC078
:1019A000AFE4B0E0EFE4F0E080818F7E8C93AFE4B1
:1019B000B0E0EFE4F0E0808180628C930EC0AFE491
:1019C000B0E0EFE4F0E0808180618C93AFE4B0E0C0
:1019D000EFE4F0E0808180628C93AEE4B0E0EEE46E
:1019E000F0E08081887F8C93AEE4B0E0EEE4F0E03C
:1019F00090818A81892B8C932A960FB6F894DEBF4A
:101A00000FBECDBFCF91DF910895DF93CF930F929B
:101A1000CDB7DEB789838981882341F4AEE4B0E095
:101A2000EEE4F0E0808180648C930AC0898181308B
:101A300039F4AEE4B0E0EEE4F0E080818F7B8C938B
:101A40000F90CF91DF910895DF93CF9300D0CDB762
:101A5000DEB79A838983ECE4F0E089819A819183EF
:101A600080830F900F90CF91DF910895DF93CF93F4
:101A7000CDB7DEB7ECE4F0E080819181CF91DF91CA
:101A80000895DF93CF93CDB7DEB7A9E5B0E0E9E5E0
:101A9000F0E0808180628C93CF91DF910895DF9395
:101AA000CF93CDB7DEB7A9E5B0E0E9E5F0E08081FE
:101AB0008F7D8C93CF91DF910895DF93CF93CDB736
:101AC000DEB7A9E5B0E0E9E5F0E0808184608C93C1
:101AD000CF91DF910895DF93CF93CDB7DEB7A9E51E
:101AE000B0E0E9E5F0E080818B7F8C93CF91DF91CE
:101AF0000895DF93CF93CDB7DEB7A9E5B0E0E9E570
:101B0000F0E0808180618C93CF91DF910895DF9325
:101B1000CF93CDB7DEB7A9E5B0E0E9E5F0E080818D
:101B20008F7E8C93CF91DF910895DF93CF93CDB7C4
:101B3000DEB7A9E5B0E0E9E5F0E0808188608C934C
:101B4000CF91DF910895DF93CF93CDB7DEB7A9E5AD
:101B5000B0E0E9E5F0E08081877F8C93CF91DF9161
:101B60000895DF93CF9300D0CDB7DEB79A838983F2
:101B700089819A8190939A00809399000F900F9099
:101B8000CF91DF910895DF93CF9300D0CDB7DEB72B
:101B90009A83898389819A8190939C0080939B008A
:101BA0000F900F90CF91DF910895DF93CF9300D0E6
:101BB000CDB7DEB79A83898389819A8190939E00FD
:101BC00080939D000F900F90CF91DF910895DF9348
:101BD000CF9300D0CDB7DEB79A83898389819A816C
:101BE0009093A00080939F000F900F90CF91DF9172
:101BF00008951F920F920FB60F9211242F933F93C7
:101C00004F935F936F937F938F939F93AF93BF9304
:101C1000EF93FF93DF93CF93CDB7DEB78091990019
:101C200090919A00009729F0E0919900F0919A0024
:101C30000995CF91DF91FF91EF91BF91AF919F9166
:101C40008F917F916F915F914F913F912F910F9065
:101C50000FBE0F901F9018951F920F920FB60F9204
:101C600011242F933F934F935F936F937F938F93A1
:101C70009F93AF93BF93EF93FF93DF93CF93CDB732
:101C8000DEB780919B0090919C00009729F0E09135
:101C90009B00F0919C000995CF91DF91FF91EF910E
:101CA000BF91AF919F918F917F916F915F914F9174
:101CB0003F912F910F900FBE0F901F9018951F927C
:101CC0000F920FB60F9211242F933F934F935F9370
:101CD0006F937F938F939F93AF93BF93EF93FF93F4
:101CE000DF93CF93CDB7DEB780919D0090919E009A
:101CF000009729F0E0919D00F0919E000995CF9109
:101D0000DF91FF91EF91BF91AF919F918F917F9163
:101D10006F915F914F913F912F910F900FBE0F9058
:101D20001F9018951F920F920FB60F9211242F93A8
:101D30003F934F935F936F937F938F939F93AF9353
:101D4000BF93EF93FF93DF93CF93CDB7DEB780912F
:101D50009F009091A000009729F0E0919F00F091E2
:101D6000A0000995CF91DF91FF91EF91BF91AF91C5
:101D70009F918F917F916F915F914F913F912F91A3
:101D80000F900FBE0F901F901895DF93CF93CDB794
:101D9000DEB783E062E042E020E00E942E0BCF91AC
:101DA000DF910895DF93CF9300D000D0CDB7DEB799
:101DB0009C838B838B819C810097D1F088EE93E08C
:101DC0002B813C81B9010E945E11CB019A838983EA
:101DD00089819A81009741F0E6E4F0E089819A8157
:101DE00001979183808304C0E6E4F0E011821082C1
:101DF0000F900F900F900F90CF91DF910895DF9388
:101E0000CF9300D000D0CDB7DEB79C838B838B817E
:101E10009C81009709F18B819C819C0140E050E0FE
:101E200080E492E4AFE0B0E0BC01CD010E94721109
:101E3000DA01C9019A83898389819A81009741F0E7
:101E4000E6E4F0E089819A8101979183808304C060
:101E5000E6E4F0E0118210820F900F900F900F9047
:101E6000CF91DF910895EF92FF920F931F93DF932D
:101E7000CF9300D000D0CDB7DEB79C838B838B810E
:101E80009C818536910580F58B819C817C0100E0E9
:101E900010E0E6E4F0E08081918101969C0140E051
:101EA00050E0C801B7010E943311DC01CB0124E6E8
:101EB00030E040E050E0BC01CD010E947211DA0137
:101EC000C9019A83898389819A818230910540F082
:101ED000EAE4F0E089819A8101979183808304C0CC
:101EE000EAE4F0E0118210820F900F900F900F90B3
:101EF000CF91DF911F910F91FF90EF900895DF93A5
:101F0000CF93CDB7DEB78091A500882379F4E6E4BE
:101F1000F0E0808191819093A9008093A80081E0F6
:101F20000E94050D81E08093A50024C08091A5004A
:101F3000813079F4E6E4F0E0808191819093AB0008
:101F40008093AA0080E00E94050D82E08093A500A6
:101F500011C08091A500823069F4E6E4F0E0808150
:101F600091819093AD008093AC000E944F0D83E06F
:101F70008093A500CF91DF910895DF93CF93CDB7E4
:101F8000DEB78091A6009091A70001969093A700DC
:101F90008093A600CF91DF910895EF92FF920F9367
:101FA0001F93DF93CF93CDB7DEB728970FB6F89482
:101FB000DEBF0FBECDBF9E838D8378876F83109267
:101FC000A7001092A6008FE79FE00E94E70D8DEB1F
:101FD0009FE00E94B10D80E00E94050D0E94410D1E
:101FE0000E945D0D1092A5008091A5008330E0F362
:101FF0002091AA003091AB008091A8009091A90097
:102000008901081B190B8091A6009091A700CC01B3
:10201000A0E0B0E02FEF3FEF40E050E0BC01CD0189
:102020000E943311DC01CB01800F911F9C838B83B5
:102030002091AC003091AD008091AA009091AB004E
:102040008901081B190B8091A6009091A700CC0173
:10205000A0E0B0E02FEF3FEF40E050E0BC01CD0149
:102060000E943311DC01CB01800F911F9A83898379
:102070008B819C819C0140E050E089819A81CC0158
:10208000A0E0B0E0280F391F4A1F5B1F80E492E4F4
:10209000AFE0B0E0BC01CD010E947211DA01C901CC
:1020A000ED81FE8180839183A283B3838B819C81A8
:1020B000CC01A0E0B0E024E630E040E050E0BC011C
:1020C000CD010E9433117B018C018B819C819C018D
:1020D00040E050E089819A81CC01A0E0B0E0280F77
:1020E000391F4A1F5B1FC801B7010E947211DA0134
:1020F000C901EF81F885808328960FB6F894DEBF7A
:102100000FBECDBFCF91DF911F910F91FF90EF9048
:1021100008950F931F93DF93CF9300D000D0CDB7D6
:10212000DEB79A8389837C836B8389819A81009748
:10213000E9F089819A8182349105C0F482E062E0FD
:1021400040E020E00E942E0BEAE4F0E029813A8191
:1021500088EE93E0AC01249FC001259F900D349F31
:10216000900D112401979183808323C082E065E064
:1021700040E020E00E942E0B0AE410E089819A8161
:10218000CC01A0E0B0E028EE33E040E050E0BC013C
:10219000CD010E943311DC01CB01689416F8B6958D
:1021A000A795979587951694D1F70197F801918394
:1021B00080838B819C810E94C30D0E94790D0F90BA
:1021C0000F900F900F90CF91DF911F910F91089575
:1021D000DF93CF9300D000D0CDB7DEB79A83898349
:1021E0007C836B8382E062E040E020E00E942E0B63
:1021F000EAE4F0E089819A810197918380838B8161
:102200009C810E94C30D0E94790D0F900F900F903A
:102210000F90CF91DF910895DF93CF93CDB7DEB7C5
:102220000E94B90227EE36E080E0B90148EE53E0A3
:1022300020E030E00E94A9082CE739E081E0B901F4
:1022400048EE53E020E030E00E94A9082DED37E091
:1022500082E0B90145E050E020E030E00E94A908AA
:102260000E949A08FFCF629FD001739FF001829F66
:10227000E00DF11D649FE00DF11D929FF00D839F15
:10228000F00D749FF00D659FF00D9927729FB00DB2
:10229000E11DF91F639FB00DE11DF91FBD01CF01C5
:1022A00011240895991B79E004C0991F961708F02E
:1022B000961B881F7A95C9F780950895AA1BBB1BAA
:1022C00051E107C0AA1FBB1FA617B70710F0A61B36
:1022D000B70B881F991F5A95A9F780959095BC0157
:1022E000CD010895A1E21A2EAA1BBB1BFD010DC052
:1022F000AA1FBB1FEE1FFF1FA217B307E407F507B6
:1023000020F0A21BB30BE40BF50B661F771F881F91
:10231000991F1A9469F760957095809590959B0127
:0C232000AC01BD01CF010895F894FFCF7F
:10232C0000000000000000000000000000000100A0
:10233C000002020200000000020001000000000088
:00000001FF
