:100000000C9431000C944E000C944E000C944E0055
:100010000C944E000C944E000C94C9030C9477037E
:100020000C94A0030C944E030C946B020C944202AB
:100030000C944E000C944E000C944E000C944E0008
:100040000C944E000C944E000C944E000C944E00F8
:100050000C944E009E02AB02B802C502D202DF022F
:10006000EC0211241FBECFE5D8E0DEBFCDBF10E00B
:10007000A0E6B0E0E4E9F8E002C005900D92A038F7
:10008000B107D9F720E0A0E8B0E001C01D92AA397D
:10009000B207E1F70E9434020C9448040C9400006B
:1000A000982F9695969596958770613009F455C06E
:1000B00020F0623009F4A1C008959130C1F028F019
:1000C000923039F19330B9F108954AB321E030E02C
:1000D000B90102C0660F771F8A95E2F7CB01942F12
:1000E000982B9ABB9BB3809589238BBB089547B30C
:1000F00021E030E0B90102C0660F771F8A95E2F770
:10010000CB01942F982B97BB98B38095892388BBFC
:10011000089544B321E030E0B90102C0660F771FB3
:100120008A95E2F7CB01942F982B94BB95B38095D9
:10013000892385BB089541B321E030E0B90102C0B5
:10014000660F771F8A95E2F7CB01942F982B91BB0E
:1001500092B38095892382BB08959130C1F028F035
:10016000923039F19330B9F108954AB321E030E08B
:10017000B90102C0660F771F8A95E2F7CB0180951F
:10018000942F98239ABB9BB389238BBB089547B3C5
:1001900021E030E0B90102C0660F771F8A95E2F7CF
:1001A000CB018095942F982397BB98B3892388BB64
:1001B000089544B321E030E0B90102C0660F771F13
:1001C0008A95E2F7CB018095942F982394BB95B341
:1001D000892385BB089541B321E030E0B90102C015
:1001E000660F771F8A95E2F7CB018095942F9823AD
:1001F00091BB92B3892382BB08959130C1F028F05E
:10020000923039F19330B9F108954AB321E030E0EA
:10021000B90102C0660F771F8A95E2F7CB01962FCE
:10022000909594239ABB9BB3892B8BBB089547B3BE
:1002300021E030E0B90102C0660F771F8A95E2F72E
:10024000CB01962F9095942397BB98B3892B88BBAD
:10025000089544B321E030E0B90102C0660F771F72
:100260008A95E2F7CB01962F9095942394BB95B392
:10027000892B85BB089541B321E030E0B90102C06C
:10028000660F771F8A95E2F7CB01962F90959423FE
:1002900091BB92B3892B82BB0895CF93C0E009C074
:1002A000EC2FF0E0E05AFF4F60818C2F0E9450004D
:1002B000CF5FC032A8F3CF910895982F9695969569
:1002C00096958770913099F028F09230E9F093304C
:1002D00041F108954BB321E030E0B90102C0660F4F
:1002E000771F8A95E2F7CB0184278BBB089548B32B
:1002F00021E030E0B90102C0660F771F8A95E2F76E
:10030000CB01842788BB089545B321E030E0B901D3
:1003100002C0660F771F8A95E2F7CB01842785BB61
:10032000089542B321E030E0B90102C0660F771FA3
:100330008A95E2F7CB01842782BB08950F931F9320
:10034000CF93C0E051C00C2F10E0F801EE0FFF1F5B
:10035000EE0FFF1FEE0FFF1FE01BF10BE058FF4FEA
:100360008681813009F03FC0F801EE0FFF1FEE0FCC
:10037000FF1FEE0FFF1FE01BF10BE058FF4F8281C4
:100380009381009711F5F801EE0FFF1FEE0FFF1F8D
:10039000EE0FFF1FE01BF10BE058FF4F0480F581CB
:1003A000E02D309709F00995F801EE0FFF1FEE0FD1
:1003B000FF1FEE0FFF1FE01BF10BE058FF4F808186
:1003C00091810197938382830EC0F801EE0FFF1F86
:1003D000EE0FFF1FEE0FFF1FE01BF10BE058FF4F6A
:1003E000019793838283CF5FC23008F4ACCFCF9163
:1003F0001F910F9108956EE971E081E090E00E94F5
:10040000F203789408956115710531F190E0FC01D3
:10041000EE0FFF1FEE0FFF1FEE0FFF1FE81BF90B84
:10042000E058FF4F0480F581E02DEF2BB9F4FC017B
:10043000EE0FFF1FEE0FFF1FEE0FFF1FE81BF90B64
:10044000E058FF4F518340837583648381E0868346
:100450003383228380E0089581E0089580E0089549
:1004600080E00E945D0108950E944D0121E030E08E
:1004700048EE53E060E372E080E00E9403020E94D5
:10048000FB01FFCF1F920F920FB60F9211242F93F3
:100490003F934F935F936F937F938F939F93AF930C
:1004A000BF93EF93FF93E0919000F091910030970C
:1004B00009F00995FF91EF91BF91AF919F918F91B5
:1004C0007F916F915F914F913F912F910F900FBE50
:1004D0000F901F9018951F920F920FB60F92112434
:1004E0002F933F934F935F936F937F938F939F933C
:1004F000AF93BF93EF93FF93E0918E00F0918F0045
:10050000309709F00995FF91EF91BF91AF919F91BD
:100510008F917F916F915F914F913F912F910F90AC
:100520000FBE0F901F90189590E08730910508F04E
:100530005FC0FC01E65DFF4F0C9433048FB58E7FE6
:100540008FBD8FB58D7F8FBD8EB5877F8EBD8EB5EC
:100550008F7E8EBD4DC08FB58E7F8FBD8FB58D7F49
:100560008FBD8EB588608EBD8EB580618EBD40C05A
:100570008FB58E7F8FBD8FB58D7F8FBD8EB5886017
:100580008EBD8EB58F7E8EBD33C08FB58E7F8FBDF5
:100590008FB582608FBD8EB588608EBD8EB580614F
:1005A0008EBD26C08FB581608FBD8FB582608FBD37
:1005B0008EB588608EBD8EB580618EBD19C08FB539
:1005C0008E7F8FBD8FB582608FBD8EB5877F8EBDCC
:1005D0008EB580618EBD0CC08FB581608FBD8FB52B
:1005E00082608FBD8EB5877F8EBD8EB580618EBDDA
:1005F000413069F028F0423089F04330B1F01BC03F
:100600008FB58F7B8FBD8FB58F778FBD14C08FB5A2
:1006100080648FBD8FB58F778FBD0DC08FB58F7BF9
:100620008FBD8FB580688FBD06C08FB580648FBDCC
:100630008FB580688FBD213069F028F0223089F0B5
:100640002330B1F01BC08FB58F7E8FBD8FB58F7DEE
:100650008FBD14C08FB580618FBD8FB58F7D8FBD6D
:100660000DC08FB58F7E8FBD8FB580628FBD06C0E8
:100670008FB580618FBD8FB580628FBD8EB5887F4D
:100680008EBD8EB5682B6EBD089589B7806189BF18
:100690000895909397008093960008951F920F926B
:1006A0000FB60F9211242F933F934F935F936F9345
:1006B0007F938F939F93AF93BF93EF93FF93E091BB
:1006C0009800F0919900309709F00995FF91EF910A
:1006D000BF91AF919F918F917F916F915F914F915A
:1006E0003F912F910F900FBE0F901F9018951F9262
:1006F0000F920FB60F9211242F933F934F935F9356
:100700006F937F938F939F93AF93BF93EF93FF93D9
:10071000E0919600F0919700309709F00995FF91CC
:10072000EF91BF91AF919F918F917F916F915F9169
:100730004F913F912F910F900FBE0F901F901895E2
:100740001F920F920FB60F9211242F933F934F9346
:100750005F936F937F938F939F93AF93BF93EF9329
:10076000FF93E0919400F0919500309709F009957E
:10077000FF91EF91BF91AF919F918F917F916F9179
:100780005F914F913F912F910F900FBE0F901F904F
:1007900018951F920F920FB60F9211242F933F932B
:1007A0004F935F936F937F938F939F93AF93BF9379
:1007B000EF93FF93E0919200F0919300309709F04E
:1007C0000995FF91EF91BF91AF919F918F917F918B
:1007D0006F915F914F913F912F910F900FBE0F90AE
:1007E0001F9018950F931F93CF93DF938C01EB010C
:1007F00001978134910598F420E040E062E082E0C6
:100800000E94940228EE33E0029FC001039F900DE6
:10081000129F900D112401979BBD8ABD1AC020E044
:1008200040E065E082E00E9494029801A8EEB3E007
:100830000E943904DC01CB01689416F8B695A7959F
:10084000979587951694D1F7BC01615071097BBDCE
:100850006ABDCE010E9449030E944503DF91CF91FA
:100860001F910F910895EE0FFF1F0590F491E02D59
:100870000994A29FB001B39FC001A39F700D811D79
:100880001124911DB29F700D811D1124911D089599
:04089000F894FFCF0A
:100894000000000000000000000002000000010051
:1008A4000202020200000002010002000000010036
:00000001FF
