S010000054686520536166652E7372656354
S11300000C9431000C944E000C944E000C944E0051
S11300100C944E000C944E000C944E000C944E0024
S11300200C944E000C943B060C9461050C9438051A
S11300300C944E000C944E000C944E000C944E0004
S11300400C944E000C940F050C944E000C944E002E
S11300500C944E009405A105AE05BB05C805D50555
S1130060E20511241FBECFE5D8E0DEBFCDBF10E00E
S1130070A0E6B0E0EAE3FDE002C005900D92A03EE8
S1130080B107D9F720E0A0EEB0E001C01D92AC3E6C
S1130090B207E1F70E94DA010C949B060C9400006D
S11300A06FEF82E00E94B9030895CF93DF93D0E00D
S11300B06FEF82E00E944B0440E064E06D0F82E049
S11300C00E948D0483EC99E00197F1F700C00000D1
S11300D082E00E947704C82F8F3031F082E00E94C2
S11300E077048F30D9F705C0DF5FD43009F780E09B
S11300F020C0D430E9F0CB3061F018F4C73059F0A7
S11301000BC0CD3021F0CE3039F4C0E005C0C1E0E1
S113011003C0C2E001C0C3E0EC2FF0E0EE0FFF1F0C
S1130120EE0FFF1FE05AFF4FED0FF11D808101C05C
S113013080E0DF91CF9108950E9455008823E1F378
S11301400895CF93C82F60E088E00E94C90360E05F
S113015089E00E94C903C4FB662760F984E00E9419
S1130160C903C5FB662760F985E00E94C903C6FB85
S1130170662760F986E00E94C9036C2F661F662714
S1130180661F87E00E94C90361E08AE00E94C903F8
S113019083EF91E00197F1F700C0000060E08AE08E
S11301A00E94C90383EF91E00197F1F700C00000BA
S11301B06C2F617084E00E94C903C1FB662760F95B
S11301C085E00E94C903C2FB662760F986E00E94AD
S11301D0C903C3FB662760F987E00E94C90361E095
S11301E08AE00E94C90383EF91E00197F1F700C010
S11301F0000060E08AE00E94C90383EF91E0019768
S1130200F1F700C00000CF910895CF93C82F61E0AB
S113021088E00E94C90360E089E00E94C903C4FB2E
S1130220662760F984E00E94C903C5FB662760F96C
S113023085E00E94C903C6FB662760F986E00E9438
S1130240C9036C2F661F6627661F87E00E94C903D7
S113025061E08AE00E94C90383EF91E00197F1F71E
S113026000C0000060E08AE00E94C90383EF91E0CF
S11302700197F1F700C000006C2F617084E00E94C8
S1130280C903C1FB662760F985E00E94C903C2FB6C
S1130290662760F986E00E94C903C3FB662760F9FC
S11302A087E00E94C90361E08AE00E94C90383EFEA
S11302B091E00197F1F700C0000060E08AE00E943D
S11302C0C90383EF91E00197F1F700C00000CF91DB
S11302D0089583ED90E30197F1F700C0000082E0F8
S11302E00E94A10089EF90E00197F1F700C000009F
S11302F088E20E94A10089EF90E00197F1F700C025
S113030000008CE00E94A10089EF90E00197F1F7D2
S113031000C0000081E00E94A10087E893E10197FA
S1130320F1F700C0000086E00E94A10080E80E946E
S1130330A10008950E94050108950F931F93CF9380
S1130340FC018081882359F08F01C0E00E940501DF
S1130350CF5FF801EC0FF11D80818111F7CFCF91B0
S11303601F910F910895811107C0603168F480E8EE
S1130370860F0E94A1000895813031F4603120F489
S113038080EC860F0E94A100089581E00E94A100E4
S11303900895282F30E0A8EEB3E00E948C0624EBE9
S11303A030E040E050E00E94640629513C4F39BDE2
S11303B028BD08950E94E2020E9469010E94500033
S11303C022E042E062E083E00E948A058FE19EE43D
S11303D097BD86BD80E290E00E9402058F3FB9F58B
S11303E060E080E00E94B30180E790E00E949D01FC
S11303F001E210E0C9E00E949C00D82F0E949A01FB
S11304002FEF84E39CE0215080409040E1F700C04E
S113041000006C2F80E00E94B3018AE20E949A01DE
S1130420EFEFF4E32CE0E150F0402040E1F700C0AE
S113043000006D2FC8010E940705CF5F0F5F1F4F9B
S1130440CD30C9F660E080E290E00E9407050F2EEF
S1130450F3E0DF2EF02D0F2EF8EEEF2EF0E0FF2E5E
S1130460F02DDFEF9CC00E949C00F80181938F0166
S11304700E949A01FFEF24E38CE0F1502040804079
S1130480E1F700C000006C2F80E00E94B3018AE213
S11304900E949A019FEFE4E3FCE09150E040F040B9
S11304A0E1F700C00000CF5FCF30E9F681E290E0D1
S11304B00E940205F7019081891330C082E290E026
S11304C00E940205F7019181891328C083E290E01C
S11304D00E940205F7019281891320C084E290E012
S11304E00E940205F7019381891318C00E94C50177
S11304F060E080E00E94B3018AE790E00E949D01E1
S113050060E081E00E94B30185E890E00E949D01D3
S11305108AE50E94C901CD2D81E03EC0CFEFCD0D0B
S113052041F10E94C50160E080E00E94B30181E9CD
S113053090E00E949D01FFEF29E688E1F150204000
S11305408040E1F700C000000E94C5018CE990E002
S11305500E949D018FE28D0D0E949A019FEFE9E6B2
S1130560F8E19150E040F040E1F700C0000080E085
S113057013C00E94C50160E080E00E94B30181E9DC
S113058090E00E949D0160E081E00E94B30188EA4E
S113059090E00E949D0181E08111FFCFDC2EF701E4
S11305A0D083D183D283D3830E94C50160E080E0ED
S11305B00E94B30184EB90E00E949D0108EE10E0DC
S11305C0CBE051CFE0ECF0E080E041E050E09191ED
S11305D0282F269526952695382F37709130C9F106
S11305E020F0923009F47DC0BFC0213089F028F09A
S11305F02230C9F0233011F1B7C09AB3BA0102C056
S1130600660F771F3A95E2F79B01292B2ABBACC0F2
S113061097B3BA0102C0660F771F3A95E2F79B01C0
S1130620292B27BBA1C094B3BA0102C0660F771F60
S11306303A95E2F79B01292B24BB96C091B3BA01EA
S113064002C0660F771F3A95E2F79B01292B21BB65
S11306508BC02130B1F028F0223019F1233089F118
S113066083C09AB3BA0102C0660F771F3A95E2F7C6
S11306709B01362F309593239ABB9BB3292B2BBB1D
S113068073C097B3BA0102C0660F771F3A95E2F7B9
S11306909B01362F3095932397BB98B3292B28BB06
S11306A063C094B3BA0102C0660F771F3A95E2F7AC
S11306B09B01362F3095932394BB95B3292B25BBEF
S11306C053C091B3BA0102C0660F771F3A95E2F79F
S11306D09B01362F3095932391BB92B3292B22BBD8
S11306E043C02130A9F028F0223009F1233071F100
S11306F03BC09AB3BA0102C0660F771F3A95E2F77E
S11307009B01209592239ABB9BB329232BBB2CC01E
S113071097B3BA0102C0660F771F3A95E2F79B01BF
S11307202095922397BB98B3292328BB1DC094B36B
S1130730BA0102C0660F771F3A95E2F79B01209534
S1130740922394BB95B3292325BB0EC091B3BA0160
S113075002C0660F771F3A95E2F79B01209592231A
S113076091BB92B3292322BB8F5F803209F02FCF34
S11307700895813041F028F0823039F0833039F027
S113078008956BBB089568BB089565BB089562BB6B
S11307900895982F9770869586958695813021F1D6
S11307A030F08230F1F1833009F458C0089561309B
S11307B069F44BB321E030E0B90102C0660F771F42
S11307C09A95E2F7CB01842B8BBB08954BB321E0C0
S11307D030E0B90102C0660F771F9A95E2F7CB01AA
S11307E0809584238BBB0895613069F448B321E07C
S11307F030E0B90102C0660F771F9A95E2F7CB018A
S1130800842B88BB089548B321E030E0B90102C0CD
S1130810660F771F9A95E2F7CB018095842388BBF6
S11308200895613069F445B321E030E0B90102C0B4
S1130830660F771F9A95E2F7CB01842B85BB089549
S113084045B321E030E0B90102C0660F771F9A95E5
S1130850E2F7CB018095842385BB0895613069F468
S113086042B321E030E0B90102C0660F771F9A95C8
S1130870E2F7CB01842B82BB089542B321E030E040
S1130880B90102C0660F771F9A95E2F7CB018095F4
S1130890842382BB0895813079F028F08230A9F056
S11308A08330E1F008958BB38F7090E1699FB001BC
S11308B01124682B6BBB089588B38F7090E1699FF6
S11308C0B0011124682B68BB089585B38F7090E143
S11308D0699FB0011124682B65BB089582B38F70A2
S11308E090E1699FB0011124682B62BB08958130A7
S11308F049F028F0823049F0833051F00CC089B3BC
S11309008F70089586B38F70089583B38F700895A0
S113091080B38F70089580E00895813011F130F034
S11309208230D1F1833009F452C00895413059F432
S11309302BB381E090E002C0880F991F6A95E2F71B
S1130940822B8BBB089541115CC02BB381E090E0F6
S113095002C0880F991F6A95E2F7809582238BBBAA
S11309600895413059F428B381E090E002C0880F23
S1130970991F6A95E2F7822B88BB0895411141C003
S113098028B381E090E002C0880F991F6A95E2F7CE
S11309908095822388BB0895413059F425B381E0C2
S11309A090E002C0880F991F6A95E2F7822B85BBFD
S11309B00895411126C025B381E090E002C0880F5C
S11309C0991F6A95E2F78095822385BB089541308B
S11309D059F422B381E090E002C0880F991F6A9510
S11309E0E2F7822B82BB089541110BC022B381E050
S11309F090E002C0880F991F6A95E2F780958223E0
S1130A0082BB08958EBB9FBBE09A8DB308958EBBC5
S1130A109FBB6DBBE29AE19AE199FECF08951F92C4
S1130A200F920FB60F9211242F933F934F935F931E
S1130A306F937F938F939F93AF93BF93EF93FF93A2
S1130A40E091E000F091E100309709F00995FF9101
S1130A50EF91BF91AF919F918F917F916F915F9132
S1130A604F913F912F910F900FBE0F901F901895AB
S1130A701F920F920FB60F9211242F933F934F930F
S1130A805F936F937F938F939F93AF93BF93EF93F2
S1130A90FF93E091E400F091E500309709F00995A7
S1130AA0FF91EF91BF91AF919F918F917F916F9142
S1130AB05F914F913F912F910F900FBE0F901F9018
S1130AC018951F920F920FB60F9211242F933F93F4
S1130AD04F935F936F937F938F939F93AF93BF9342
S1130AE0EF93FF93E091E200F091E300309709F077
S1130AF00995FF91EF91BF91AF919F918F917F9154
S1130B006F915F914F913F912F910F900FBE0F9076
S1130B101F90189590E08730910508F05FC0FC01A4
S1130B20E65DFF4F0C9486068FB58E7F8FBD8FB523
S1130B308D7F8FBD8EB5877F8EBD8EB58F7E8EBD2A
S1130B404DC08FB58E7F8FBD8FB58D7F8FBD8EB518
S1130B5088608EBD8EB580618EBD40C08FB58E7F9E
S1130B608FBD8FB58D7F8FBD8EB588608EBD8EB5E0
S1130B708F7E8EBD33C08FB58E7F8FBD8FB5826063
S1130B808FBD8EB588608EBD8EB580618EBD26C04A
S1130B908FB581608FBD8FB582608FBD8EB5886043
S1130BA08EBD8EB580618EBD19C08FB58E7F8FBD11
S1130BB08FB582608FBD8EB5877F8EBD8EB5806107
S1130BC08EBD0CC08FB581608FBD8FB582608FBD27
S1130BD08EB5877F8EBD8EB580618EBD413069F044
S1130BE028F0423089F04330B1F01BC08FB58F7BC1
S1130BF08FBD8FB58F778FBD14C08FB580648FBDC7
S1130C008FB58F778FBD0DC08FB58F7B8FBD8FB59F
S1130C1080688FBD06C08FB580648FBD8FB5806836
S1130C208FBD213069F028F0223089F02330B1F0F3
S1130C301BC08FB58F7E8FBD8FB58F7D8FBD14C0C8
S1130C408FB580618FBD8FB58F7D8FBD0DC08FB582
S1130C508F7E8FBD8FB580628FBD06C08FB58061DA
S1130C608FBD8FB580628FBD8EB5887F8EBD8EB5EA
S1130C70682B6EBD08951F920F920FB60F92112428
S1130C802F933F934F935F936F937F938F939F9390
S1130C90AF93BF93EF93FF93E091E600F091E700E9
S1130CA0309709F00995FF91EF91BF91AF919F9112
S1130CB08F917F916F915F914F913F912F910F9001
S1130CC00FBE0F901F901895A1E21A2EAA1BBB1BF2
S1130CD0FD010DC0AA1FBB1FEE1FFF1FA217B30704
S1130CE0E407F50720F0A21BB30BE40BF50B661F1A
S1130CF0771F881F991F1A9469F7609570958095DE
S1130D0090959B01AC01BD01CF010895EE0FFF1F2B
S1130D100590F491E02D0994A29FB001B39FC00106
S1130D20A39F700D811D1124911DB29F700D811D13
S10D0D301124911D0895F894FFCFDB
S1130D3A3738392F3435362A3132332D61303D2B49
S1130D4A53657420706173733A005269676874203A
S1130D5A506173730053616665206F70656E6564D4
S1130D6A0077726F6E6720706173730074726965BD
S1130D7A73206C6566743A007361666520636C6FF0
S1130D8A73656400436865636B20506173733A004A
S1130D9A0000000000000000000000000000000045
S1130DAA020202020000000000000000000000002D
S9030000FC
