S01200004672656552544F535F312E73726563B8
S11300000C942A000C9447000C9447000C9447006D
S11300100C9447000C9447000C9447000C94620223
S11300200C9447000C9447000C9447000C94470030
S11300300C9447000C944D0E0C9447000C94760ECF
S11300400C9447000C9447000C9447000C94470010
S11300500C94470011241FBECFE5D8E0DEBFCDBF0E
S113006010E0A0E6B0E0E2E7FDE102C005900D92E9
S1130070A838B107D9F725E0A8E8B0E001C01D927F
S1130080A636B207E1F70E94050C0C94B70E0C9447
S11300900000CF93DF93EC010E94C6068091880094
S11300A090918900892B31F48DE890E09093890038
S11300B08093880020918A0030918B00C9018C0FB5
S11300C09D1F8B3444E0940770F42817390770F4AB
S11300D0C0918800D0918900C20FD31F90938B00E8
S11300E080938A0005C0C0E0D0E002C0C0E0D0E048
S11300F00E948807CE01DF91CF9108950895FC01F5
S11301000396928381832FEF3FEF34832383968377
S113011085839087878310820895FC011186108659
S11301200895CF93DF939C01FB01DC011196CD91DF
S1130130DC911297D383C2838C819D8195838483C0
S11301408C819D81DC0113967C936E9312977D8341
S11301506C8331872087F90180818F5F8083DF91F1
S1130160CF910895CF93DF93EB01488159814F3F9D
S11301702FEF520721F4FC01A781B0850DC0DC01EB
S1130180139601C0DF011296ED91FC911397208123
S1130190318142175307B0F71296ED91FC911397F2
S11301A0FB83EA83D583C483BD83AC831396DC933A
S11301B0CE93129799878887FC0120812F5F208333
S11301C0DF91CF910895CF93DF93FC01A085B18592
S11301D0C281D381848195819D838C83C481D5819F
S11301E0828193819B838A8311968D919C9112972E
S11301F0E817F90731F48481958112969C938E93C4
S11302001197118610868C9181508C93DF91CF9138
S113021008951BBC8CE78ABD8BE08EBD89B78061D5
S113022089BF089531E1FC013083319722E22083B4
S11302303197A3E3A083319760833197708331971B
S11302401082319760E8608331971082319762E0C1
S11302506083319763E06083319764E06083319712
S113026065E06083319766E06083319767E060837F
S1130270319768E06083319769E06083319760E18A
S1130280608331973083319732E13083319733E1A2
S11302903083319734E13083319735E130833197BE
S11302A036E13083319737E13083319738E1308359
S11302B0319739E13083319730E23083319731E23D
S11302C0308331972083319723E220833197408311
S11302D031975083319726E22083319727E2208398
S11302E0319728E22083319729E22083319720E354
S11302F02083319721E32083869708950E94090182
S1130300A0915305B0915405CD91CDBFDD91DEBFD1
S1130310FF91EF91DF91CF91BF91AF919F918F9119
S11303207F916F915F914F913F912F911F910F9109
S1130330FF90EF90DF90CF90BF90AF909F908F9001
S11303407F906F905F904F903F902F901F900F90F1
S11303500FBE0F90089581E008950F920FB6F894A0
S11303600F921F9211242F923F924F925F926F929D
S11303707F928F929F92AF92BF92CF92DF92EF9231
S1130380FF920F931F932F933F934F935F936F931A
S11303907F938F939F93AF93BF93CF93DF93EF9309
S11303A0FF93A0915305B09154050DB60D920EB66E
S11303B00D920E945208A0915305B0915405CD911D
S11303C0CDBFDD91DEBFFF91EF91DF91CF91BF9162
S11303D0AF919F918F917F916F915F914F913F91D9
S11303E02F911F910F91FF90EF90DF90CF90BF90CE
S11303F0AF909F908F907F906F905F904F903F90C1
S11304002F901F900F900FBE0F9008950F920FB66C
S1130410F8940F921F9211242F923F924F925F9261
S11304206F927F928F929F92AF92BF92CF92DF9200
S1130430EF92FF920F931F932F933F934F935F93EA
S11304406F937F938F939F93AF93BF93CF93DF93D8
S1130450EF93FF93A0915305B09154050DB60D92FF
S11304600EB60D920E94CC0681110E945208A091F2
S11304705305B0915405CD91CDBFDD91DEBFFF9101
S1130480EF91DF91CF91BF91AF919F918F917F9128
S11304906F915F914F913F912F911F910F91FF9019
S11304A0EF90DF90CF90BF90AF909F908F907F9010
S11304B06F905F904F903F902F901F900F900FBEC2
S11304C00F9008950E94060218950FB6F8940F92A3
S11304D0FC01828D811102C081E001C080E00F9097
S11304E00FBE08950FB6F8940F92FC01228D838DF0
S11304F0281302C081E001C080E00F900FBE089570
S11305001F93CF93DF93EC01142F4C8D41110CC03A
S113051088819981892B09F045C08A819B810E9439
S1130520B6091B821A8245C0111117C050E08C8194
S11305309D810E94AE0E2C8D8C819D81820F911D18
S11305409D838C832A813B818217930768F188817C
S113055099819D838C8380E02CC050E08E819F81A3
S11305600E94AE0E8C8D90E09195819591092E811B
S11305703F81280F391F3F832E83488159812417D7
S1130580350730F42A813B81820F931F9F838E832A
S1130590123061F48A8D882359F08A8D81508A8FB4
S11305A080E007C080E005C080E003C080E001C0B7
S11305B080E09A8D9F5F9A8FDF91CF911F9108956C
S11305C0FC01448D4423A9F050E026813781240F97
S11305D0351F37832683828193812817390720F0BA
S11305E08081918197838683CB01668177810E9484
S11305F0AE0E0895CF93DF93EC010FB6F8940F92EB
S11306000DC08989882369F0CE0141960E94CB08E8
S113061081110E9450098E8D81508E8F8E8D1816F7
S113062084F38FEF8E8F0F900FBE0FB6F8940F9256
S11306300DC08885882369F0CE0108960E94CB08F6
S113064081110E9450098D8D81508D8F8D8D1816CA
S113065084F38FEF8D8F0F900FBEDF91CF910895AC
S1130660CF93DF93EC010FB6F8940F92E881F981F0
S11306708B8D90E02C8D30E0829FA001839F500DE4
S1130680929F500D11244E0F5F1F5B834A831A8E75
S1130690FD83EC830197289FA001299F500D389F6B
S11306A0500D1124CF01840F951F9F838E838FEFEC
S11306B08D8F8E8F61110CC08885882389F0CE01BF
S11306C008960E94CB08813059F40E94AD0108C0FD
S11306D0CE0108960E947F00CE0141960E947F00C1
S11306E00F900FBE81E0DF91CF9108950F931F9378
S11306F0CF93DF93882301F1062F182F8FE190E029
S11307000E944900EC01892BC9F0109FC0011124FB
S113071001960E94490099838883892B39F01B8FA5
S11307200C8F61E0CE010E94300308C0CE010E940C
S11307307E00C0E0D0E002C0C0E0D0E0CE01DF9196
S1130740CF911F910F910895CF92DF92EF92FF9274
S11307500F931F93CF93DF9300D000D01F92CDB798
S1130760DEB78C017B015D834C83C22ED12C0FB686
S1130770F8940F92F801928D838D981718F0F2E097
S1130780CF1219C04C2DB701C8010E948002F80194
S11307909189992349F0C80141960E94CB08813080
S11307A031F40E94AD0103C081110E94AD010F908C
S11307B00FBE81E04DC08C819D81892B21F40F9067
S11307C00FBE80E045C0D11006C0CE0101960E9444
S11307D01309DD24D3940F900FBE0E94C6060FB6F2
S11307E0F8940F92F801858D8F3F09F4158EF80166
S11307F0868D8F3F09F4168E0F900FBEBE016C5F7D
S11308007F4FCE0101960E941E0981111BC0C801B1
S11308100E947202882381F06C817D81C801089650
S11308200E94AE08C8010E94FA020E948807811142
S11308309ECF0E94AD019BCFC8010E94FA020E9484
S1130840880795CFC8010E94FA020E94880780E0B9
S11308500F900F900F900F900F90DF91CF911F91F9
S11308600F91FF90EF90DF90CF900895AF92BF92D9
S1130870CF92DF92EF92FF920F931F93CF93DF9368
S113088000D000D01F92CDB7DEB78C016B015D8321
S11308904C83E22EF12C0FB6F8940F92F801828D5E
S11308A0882399F1A680B780B601C8010E94E002AE
S11308B0E1101AC0F801828D8150828F808191816C
S11308C0892B29F40E94F609F80193838283F801A5
S11308D080858823B1F0C80108960E94CB08813036
S11308E081F40E94AD010DC0F801B782A68281890E
S11308F0882339F0C80141960E94CB0881110E94D7
S1130900AD010F900FBE81E05BC08C819D81892B6E
S113091021F40F900FBE80E053C0F11006C0CE0149
S113092001960E941309FF24F3940F900FBE0E94B6
S1130930C6060FB6F8940F92F801858D8F3F09F41F
S1130940158EF801868D8F3F09F4168E0F900FBE19
S1130950BE016C5F7F4FCE0101960E941E0981117A
S113096029C0C8010E9465028823F1F0F801808142
S11309709181892B49F40FB6F8940F928281938167
S11309800E9454090F900FBE6C817D81C80141966D
S11309900E94AE08C8010E94FA020E9488078111D1
S11309A07ACF0E94AD0177CFC8010E94FA020E945B
S11309B0880771CFC8010E94FA020E94880780E06C
S11309C00F900F900F900F900F90DF91CF911F9188
S11309D00F91FF90EF90DF90CF90BF90AF9008956C
S11309E0E091F704F091F8048081811107C08FEF42
S11309F09FEF90936100809360000895E091F70465
S1130A00F091F8040580F681E02D0680F781E02D51
S1130A108281938190936100809360000895EF92A6
S1130A20FF920F931F93CF93DF937C01EB018FE22F
S1130A3090E00E9449008C01892B89F0209721F4D1
S1130A40C7010E94490001C0CE01F801908F878B35
S1130A50892B29F4C8010E947E0000E010E0C8013F
S1130A60DF91CF911F910F91FF90EF900895CF9355
S1130A70DF93EC018F89988D0E947E00CE010E9445
S1130A807E00DF91CF9108951F93CF93DF93EC0104
S1130A90142F20E00FC0822F90E0FB01E80FF91F14
S1130AA03081DE01A80FB91F59963C9380818823B9
S1130AB019F02F5F243178F31CA6183008F017E0E2
S1130AC01E8B1DA71EA6CE0102960E948D00CE018C
S1130AD00C960E948D00D987C88788E090E0811B1E
S1130AE091099D878C87DB8BCA8BDF91CF911F91F6
S1130AF00895CF93C0E010C08C2F90E09C01220F8A
S1130B00331F220F331F220F331F820F931F855F62
S1130B109A4F0E947F00CF5FC83070F382E095E067
S1130B200E947F0089EF94E00E947F008CEE94E0A5
S1130B300E947F0083EE94E00E947F0082E095E0B3
S1130B409093F8048093F70489EF94E09093F6046B
S1130B508093F504CF910895CF93DF93EC01E09156
S1130B605305F0915405938382838091DF0490911F
S1130B70E004C817D90768F46091530570915405CF
S1130B808091F5049091F6046E5F7F4F0E94B2004D
S1130B9017C060915305709154058091F7049091AA
S1130BA0F8046E5F7F4F0E94B200809160009091C4
S1130BB06100C817D90720F4D0936100C093600086
S1130BC0DF91CF9108952F923F924F925F927F923F
S1130BD08F929F92AF92BF92CF92DF92EF92FF9249
S1130BE00F931F93CF93DF9300D000D0CDB7DEB720
S1130BF09A8389834B015C834B831901702EB60160
S1130C002501CA010E940F055C01009709F46AC01E
S1130C10FC01C788D08C8B819C810197C80ED91E9A
S1130C200B811C819201472DB401C5010E9444052A
S1130C30A10169817A81C6010E941201F5019183A3
S1130C408083E114F10419F0F701B182A0820FB698
S1130C50F8940F928091E1048F5F8093E104809176
S1130C60530590915405892B59F4B0925405A092E0
S1130C7053058091E104813091F40E9479050FC0FD
S1130C808091DD0481110BC0E0915305F09154056E
S1130C908689781620F0B0925405A092530580916D
S1130CA0D9048F5F8093D904F50186899091DE047D
S1130CB0981710F48093DE0490E0B5016E5F7F4FC7
S1130CC09C01220F331F220F331F220F331F820F69
S1130CD0931F855F9A4F0E9491000F900FBEF1E021
S1130CE0F98302C08FEF8983E981E13069F480914F
S1130CF0DD04882349F0E0915305F0915405868979
S1130D00871510F40E94AD0189810F900F900F9008
S1130D100F90DF91CF911F910F91FF90EF90DF9093
S1130D20CF90BF90AF909F908F907F905F904F90A7
S1130D303F902F900895AF92BF92CF92DF92EF929F
S1130D40FF920F93A12CB12CC12CD12CE12CF12CAE
S1130D5000E020E030E045E550E062E670E089E440
S1130D6098E00E94E305813049F4F8948093DD040F
S1130D701092E0041092DF040E947E010F91FF9014
S1130D80EF90DF90CF90BF90AF9008958091D804FA
S1130D908F5F8093D8040895DF92EF92FF920F93B0
S1130DA01F93CF93DF938091D804811199C08091D0
S1130DB0DF049091E00401969093E0048093DF04B3
S1130DC0E090DF04F090E004E114F104B9F48091C0
S1130DD0F7049091F8042091F5043091F6043093CF
S1130DE0F8042093F7049093F6048093F50480911B
S1130DF0DA048F5F8093DA040E94F004809160002B
S1130E0090916100E816F90628F4D12C53C0DD2432
S1130E10D39401C0D12CE091F704F091F8048081BF
S1130E20811107C08FEF9FEF909361008093600062
S1130E3041C0E091F704F091F8040580F681E02DBB
S1130E40C681D7818A819B81E816F90628F490939C
S1130E506100809360002EC08E010E5F1F4FC80199
S1130E600E94E3008C899D89892B21F0CE010C9688
S1130E700E94E3008E899091DE04981710F4809309
S1130E80DE0490E09C01220F331F220F331F220F38
S1130E90331F820F931FB801855F9A4F0E94910000
S1130EA09E89E0915305F09154058689981708F0BE
S1130EB0AECFB1CFE0915305F0915405868990E00F
S1130EC0FC01EE0FFF1FEE0FFF1FEE0FFF1F8E0F33
S1130ED09F1FFC01E55FFA4F8081823040F409C016
S1130EE08091DC048F5F8093DC04D12C02C0DD246C
S1130EF0D3948091DB04882311F0DD24D3948D2DC9
S1130F00DF91CF911F910F91FF90EF90DF900895A3
S1130F100F931F93CF93DF930FB6F8940F928091A2
S1130F20D80481508093D8048091D804811157C08B
S1130F308091E104811132C055C0E091F104F09137
S1130F40F204C681D781CE010C960E94E3008E0183
S1130F500E5F1F4FC8010E94E3008E899091DE044A
S1130F60981710F48093DE0490E09C01220F331F45
S1130F70220F331F220F331F820F931FB801855F87
S1130F809A4F0E9491009E89E0915305F091540577
S1130F908689981718F081E08093DB048091EC0433
S1130FA08111CBCF8091DC0481110DC010C00E944F
S1130FB0CC06882319F081E08093DB048091DC0463
S1130FC081508093DC048091DC048111F0CF809106
S1130FD0DB04813031F40E94AD0181E003C080E084
S1130FE001C080E00F900FBEDF91CF911F910F9150
S1130FF00895CF93DF93EC01892BA9F00E94C606D4
S11310008091DF049091E004C80FD91F80915305AB
S11310109091540502960E94E300CE010E94AC0513
S11310200E94880701C080E0811102C00E94AD01C6
S1131030DF91CF910895CF93DF9324C00E94C60619
S1131040C091E3040E948807CC23E1F00FB6F89422
S11310500F92E091E804F091E904C681D781CE01B2
S113106002960E94E3008091E10481508093E104A0
S11310708091E20481508093E2040F900FBECE0170
S11310800E9437058091E2048111D8CFDF91CF917E
S113109008950E941B0880910B058230D0F30E94B2
S11310A0AD01F7CF8091D804882321F081E08093AB
S11310B0DB0408951092DB0405C08091DE048150A6
S11310C08093DE048091DE0490E0FC01EE0FFF1FAC
S11310D0EE0FFF1FEE0FFF1F8E0F9F1FFC01E55F3A
S11310E0FA4F8081882349F38091DE0490E09C01CB
S11310F0220F331F220F331F220F331F280F391FD4
S1131100D901A55FBA4F1196ED91FC911297028017
S1131110F381E02D1296FC93EE931197225F3A4FE0
S1131120E217F30729F422813381FD0132832183FD
S1131130FC01EE0FFF1FEE0FFF1FEE0FFF1F8E0FC0
S11311409F1FFC01E55FFA4F0180F281E02D86814B
S1131150978190935405809353050895CF93DF931B
S1131160EB016091530570915405645F7F4F0E94B9
S1131170B200809153059091540502960E94E300B9
S11311808091DF049091E0048C0F9D1F0E94AC05B8
S1131190DF91CF9108950F931F93CF93DF93DC01D9
S11311A01596ED91FC911697C681D7818E01045F47
S11311B01F4FC8010E94E3008091D80481111CC014
S11311C00A501109C8010E94E3008E899091DE043F
S11311D0981710F48093DE0490E09C01220F331FD3
S11311E0220F331F220F331F820F931FB801855F15
S11311F09A4F0E94910005C0B8018CEE94E00E94C1
S113120091009E89E0915305F091540586898917D0
S113121020F481E08093DB0401C080E0DF91CF9172
S11312201F910F9108952091DA04FC0120832091ED
S1131230DF043091E004328321830895CF93DF9358
S1131240FC010FB6F8940F924091DF045091E00432
S113125090818091DA04981729F08181928148174E
S11312605907B0F421813281CA01821B930BEB012F
S1131270A881B9818A179B0768F4CF01241B350B19
S11312802A0F3B1F398328830E94130980E003C07F
S113129081E001C081E00F900FBEDF91CF910895EE
S11312A081E08093DB0408950F931F93CF93DF9322
S11312B0FC01892B09F455C02689A0915305B091EE
S11312C0540556968C91281708F04BC08485958553
S11312D0992364F0A0915305B091540556963C911E
S11312E088E090E0831B91099587848782859385A4
S11312F030E0A901440F551F440F551F440F551FDB
S1131300240F351F255F3A4F8217930719F58F0174
S1131310EF012296CE010E94E300E0915305F09183
S113132054058689F801868B9091DE04981710F491
S11313308093DE0490E09C01220F331F220F331FA1
S1131340220F331F820F931FBE01855F9A4F0E94A5
S1131350910007C0A0915305B091540556968C9105
S1131360868BDF91CF911F910F9108950F931F9357
S1131370CF93DF93FC01892B79F186A5815086A751
S1131380268995A5291751F181112AC0EF018F01F2
S11313900E5F1F4FC8010E94E3008DA58E8B28E0CD
S11313A030E0281B31093D872C879091DE04981783
S11313B010F48093DE0490E09C01220F331F220F6F
S11313C0331F220F331F820F931FB801855F9A4F7B
S11313D00E94910081E005C080E003C080E001C06C
S11313E080E0DF91CF911F910F9108958091530573
S11313F090915405892B39F0E0915305F0915405EF
S113140086A58F5F86A78091530590915405089512
S113141088E00E94DE0D811110C020E040E050E021
S113142060E070E080916005909161050E94A403E2
S113143088E00E94DE0D8823D9F38AE00E94DE0D45
S1131440811110C020E040E050E060E070E0809145
S11314505E0590915F050E94A4038AE00E94DE0D60
S11314608823D9F389E00E94DE0D811110C020E0A9
S113147040E050E060E070E080915C0590915D0593
S11314800E94A40389E00E94DE0D8823D9F382E33D
S113149090E00E94F907BCCF20E04AE050E060E011
S11314A070E080916005909161050E943604882364
S11314B061F010925B0510925A0510925905109232
S11314C05805109257051092560520E04AE050E066
S11314D060E070E080915E0590915F050E943604A3
S11314E0882319F081E08093550520E04AE050E01C
S11314F060E070E080915C0590915D050E94360487
S11315008111109255058091550581112FC080914C
S11315105A0590915B05019690935B0580935A055B
S1131520CC9769F410925B0510925A058091580586
S1131530909159050196909359058093580580918F
S1131540580590915905CC9789F410925B05109237
S11315505A0510925905109258058091560590919C
S113156057050196909357058093560588EE93E0AE
S11315700E94F90791CF60E080E00E94590D60E07D
S113158082E00E94590D60E083E00E94590D60E002
S113159084E00E94590D60E085E00E94590D61E0ED
S11315A081E00E94590D40915A0550915B059A01C2
S11315B0ADECBCEC0E949F0E969587959695879509
S11315C0969587959C01220F331F880F991F880FCA
S11315D0991F880F991F820F931FBA01681B790BFB
S11315E082E090E00E94160E85E090E00E94F907E8
S11315F060E081E00E94590D60E082E00E94590D94
S113160060E083E00E94590D60E084E00E94590D7F
S113161060E085E00E94590D61E080E00E94590D70
S113162020915A0530915B05ADECBCEC0E949F0EF5
S1131630BC0176956795769567957695679582E072
S113164090E00E94160E85E090E00E94F90760E0A9
S113165080E00E94590D60E081E00E94590D60E035
S113166082E00E94590D60E084E00E94590D60E020
S113167085E00E94590D61E083E00E94590D40917C
S11316805805509159059A01ADECBCEC0E949F0E8F
S11316909695879596958795969587959C01220FA3
S11316A0331F880F991F880F991F880F991F820F66
S11316B0931FBA01681B790B82E090E00E94160E1A
S11316C085E090E00E94F90760E080E00E94590DF7
S11316D060E081E00E94590D60E083E00E94590DB2
S11316E060E084E00E94590D60E085E00E94590D9D
S11316F061E082E00E94590D20915805309159050E
S1131700ADECBCEC0E949F0EBC0176956795769576
S113171067957695679582E090E00E94160E85E0C5
S113172090E00E94F90760E080E00E94590D60E0BB
S113173081E00E94590D60E082E00E94590D60E052
S113174083E00E94590D60E084E00E94590D61E03D
S113175085E00E94590D40915605509157059A0114
S1131760ADECBCEC0E949F0E969587959695879557
S1131770969587959C01220F331F880F991F880F18
S1131780991F880F991F820F931FBA01681B790B49
S113179082E090E00E94160E85E090E00E94F90736
S11317A060E080E00E94590D60E081E00E94590DE4
S11317B060E082E00E94590D60E083E00E94590DD0
S11317C060E085E00E94590D61E084E00E94590DBB
S11317D02091560530915705ADECBCEC0E949F0E4C
S11317E0BC0176956795769567957695679582E0C1
S11317F090E00E94160E85E090E00E94F907BBCEAF
S11318000E94490D0E943B0E08950E94000CA12CD9
S1131810B12CC12CD12CE12CF12C01E020E030E0E2
S113182046E950E060E070E088E09AE00E94E30559
S113183002E020E030E046E950E060E070E08CE453
S11318409AE00E94E30503E020E030E046E950E03E
S113185060E070E08BEB9AE00E94E30543E060E017
S113186081E00E947603909361058093600543E0D4
S113187060E081E00E94760390935F0580935E05AB
S113188043E060E081E00E94760390935D058093DD
S11318905C050E949B06FFCF982F9695969596958A
S11318A08770613009F455C020F0623009F4A1C09A
S11318B008959130C1F028F0923039F19330B9F1A4
S11318C008954AB321E030E0B90102C0660F771FE2
S11318D08A95E2F7CB01942F982B9ABB9BB3809502
S11318E089238BBB089547B321E030E0B90102C0DE
S11318F0660F771F8A95E2F7CB01942F982B97BB3D
S113190098B38095892388BB089544B321E030E0DF
S1131910B90102C0660F771F8A95E2F7CB01942FB5
S1131920982B94BB95B38095892385BB089541B3C7
S113193021E030E0B90102C0660F771F8A95E2F713
S1131940CB01942F982B91BB92B38095892382BBB2
S113195008959130C1F028F0923039F19330B9F103
S113196008954AB321E030E0B90102C0660F771F41
S11319708A95E2F7CB018095942F98239ABB9BB369
S113198089238BBB089547B321E030E0B90102C03D
S1131990660F771F8A95E2F7CB018095942F9823E1
S11319A097BB98B3892388BB089544B321E030E002
S11319B0B90102C0660F771F8A95E2F7CB018095C3
S11319C0942F982394BB95B3892385BB089541B381
S11319D021E030E0B90102C0660F771F8A95E2F773
S11319E0CB018095942F982391BB92B3892382BB1A
S11319F008959130C1F028F0923039F19330B9F163
S1131A0008954AB321E030E0B90102C0660F771FA0
S1131A108A95E2F7CB01962F909594239ABB9BB3BA
S1131A20892B8BBB089547B321E030E0B90102C094
S1131A30660F771F8A95E2F7CB01962F9095942332
S1131A4097BB98B3892B88BB089544B321E030E059
S1131A50B90102C0660F771F8A95E2F7CB01962F72
S1131A609095942394BB95B3892B85BB089541B37A
S1131A7021E030E0B90102C0660F771F8A95E2F7D2
S1131A80CB01962F9095942391BB92B3892B82BB63
S1131A900895CF93C0E009C0EC2FF0E0E959FF4F5F
S1131AA060818C2F0E944C0CCF5FC032A8F3CF9181
S1131AB00895982F9695969596958770611140C0D4
S1131AC09130A1F028F09230F9F0933059F1089553
S1131AD04BB321E030E0B90102C0660F771F8A954D
S1131AE0E2F7CB01809584238BBB089548B321E0B2
S1131AF030E0B90102C0660F771F8A95E2F7CB0187
S1131B008095842388BB089545B321E030E0B90172
S1131B1002C0660F771F8A95E2F7CB018095842374
S1131B2085BB089542B321E030E0B90102C0660FDD
S1131B30771F8A95E2F7CB018095842382BB0895B1
S1131B406130D9F5913099F028F09230E9F0933072
S1131B5041F108954BB321E030E0B90102C0660FB2
S1131B60771F8A95E2F7CB01842B8BBB089548B38A
S1131B7021E030E0B90102C0660F771F8A95E2F7D1
S1131B80CB01842B88BB089545B321E030E0B90133
S1131B9002C0660F771F8A95E2F7CB01842B85BBC1
S1131BA0089542B321E030E0B90102C0660F771F07
S1131BB08A95E2F7CB01842B82BB0895982F9695E2
S1131BC096959695482F4770913081F028F0923081
S1131BD0B9F09330F9F028C099B3892F90E002C08E
S1131BE0959587954A95E2F78170089526B330E07C
S1131BF0C90102C0959587954A95E2F781700895C9
S1131C0023B330E0C90102C0959587954A95E2F760
S1131C108170089520B330E0C90102C0959587957D
S1131C204A95E2F78170089580E008956F708130DD
S1131C3069F028F0823089F08330B1F008958BB3D5
S1131C40807F8BBB8BB3682B6BBB089588B3807F7D
S1131C5088BB88B3682B68BB089585B3807F85BB38
S1131C6085B3682B65BB089582B3807F82BB82B342
S1131C70682B62BB08958BB18D7F8BB98AB18B7F42
S1131C808AB986E880BD10BC83E389B98AB18061D2
S1131C908AB98AB188608AB908951F920F920FB6E3
S1131CA00F9211242F933F934F935F936F937F93DE
S1131CB08F939F93AF93BF93EF93FF93E09164054A
S1131CC0F0916505309709F00995FF91EF91BF9167
S1131CD0AF919F918F917F916F915F914F913F91C0
S1131CE02F910F900FBE0F901F9018951F920F9277
S1131CF00FB60F9211242F933F934F935F936F93DB
S1131D007F938F939F93AF93BF93EF93FF93E09150
S1131D106205F0916305309709F00995FF91EF9101
S1131D20BF91AF919F918F917F916F915F914F91EF
S1131D303F912F910F900FBE0F901F901895A29F67
S1131D40B001B39FC001A39F700D811D1124911D8B
S1131D50B29F700D811D1124911D0895FB01DC01BA
S1131D6002C001900D9241505040D8F70895F89464
S1051D70FFCF9F
S1131D72FFFF49444C45000000000000000000023F
S1131D820202000000010000000000000000020145
S10B1D92000200000001000042
S9030000FC
