S017000050726F6475637420436F756E7465722E737265632C
S11300000C942A000C94E9070C9412080C943B08F5
S11300100C9447000C9447000C9447000C94470040
S11300200C9447000C9447000C9447000C94470030
S11300300C9447000C9447000C9447000C94470020
S11300400C9447000C9439070C9447000C94470017
S11300500C94470011241FBECFE5D8E0DEBFCDBF0E
S113006010E0A0E6B0E0E2EAF1E102C005900D92F2
S1130070A83FB107D9F721E0A8EFB0E001C01D9275
S1130080A430B207E1F70E9484040C94CF080C94C6
S11300900000CF93DF93C4E6D0E061E088810E9442
S11300A0770661E089810E94770661E08A810E9477
S11300B0770661E08B810E947706C0E6D0E061E0BC
S11300C088810E94770661E089810E94770661E059
S11300D08A810E94770661E08B810E947706DF9116
S11300E0CF9108952F923F924F925F926F927F9299
S11300F08F929F92AF92BF92CF92DF92EF92FF9234
S11301000F931F93CF93DF9300D000D01F92CDB7EE
S1130110DEB70F2EF0E66F2EF0E07F2EF02DA12C2F
S1130120B12C8FE08B8343012A2C61E0F4018081A0
S11301300E94770661E0F40181810E94770661E004
S1130140F40182810E94770661E0F40183810E94B8
S11301507706BA82A98260E0F30181913F010E948F
S1130160770683EC99E00197F1F700C0000004E6FC
S113017010E0F501E859FF4F6F0133243394E12C6B
S1130180F12C09C0FFEFEF1AFF0A0F5F1F4F3394E2
S113019084E0C80ED11C27011D830C83F8018081E3
S11301A00E94F9068111A3C0EC81FD8180810E9427
S11301B0F9068823C9F3F1E02F1679F12F1648F0D8
S11301C082E0281609F44DC093E0291609F46CC0A6
S11301D08EC08E2DE11004C0F601F081FB83D2CFD6
S11301E0813021F4F601F081FB83CCCF823021F4FD
S11301F0F601F081FB83C6CF833009F078C0F201A9
S1130200EE0FFF1FEE0FFF1FE859FF4F89819A8100
S1130210E80FF91F90819B836EC08E2DE11004C0FE
S1130220F601F081FB83AECF813021F4F601F08139
S1130230FB83A8CF823021F4F601F081FB83A2CFA7
S1130240833009F054C0F201EE0FFF1FEE0FFF1FC1
S1130250E859FF4F89819A81E80FF91F90819B83A8
S11302604AC08E2DE11004C0F601F081FB838ACFD1
S1130270813021F4F601F081FB8384CF823021F4B4
S1130280F601F081FB837ECF833089F5F201EE0F16
S1130290FF1FEE0FFF1FE859FF4F89819A81E80F76
S11302A0F91F90819B8327C08E2DE11004C0F601B5
S11302B0F081FB8367CF813021F4F601F081FB8369
S11302C061CF823021F4F601F081FB835BCF833070
S11302D0D9F4C201880F991F880F991F88599F4F1D
S11302E0E981FA81E80FF91F80818B8304C093E0D0
S11302F0931508F047CFEFEFAE1ABE0AF4E0AF163D
S1130300B10409F011CF04C083E0831508F03ACF9B
S11303108B810F900F900F900F900F90DF91CF91E2
S11303201F910F91FF90EF90DF90CF90BF90AF900F
S11303309F908F907F906F905F904F903F902F9001
S113034008950E9472008F30E1F30895CF93C82F6F
S113035060E086E00E94770660E088E00E9477060D
S1130360C4FB662760F98CE00E947706C5FB66270C
S113037060F98DE00E947706C6FB662760F98EE07F
S11303800E9477066C2F661F6627661F8FE00E9407
S1130390770661E087E00E94770683EF91E001979A
S11303A0F1F700C0000060E087E00E94770683EF69
S11303B091E00197F1F700C000006C2F61708CE0B0
S11303C00E947706C1FB662760F98DE00E947706DC
S11303D0C2FB662760F98EE00E947706C3FB66279E
S11303E060F98FE00E94770661E087E00E9477065B
S11303F083EF91E00197F1F700C0000060E087E02F
S11304000E94770683EF91E00197F1F700C00000A6
S1130410CF910895CF93C82F61E086E00E947706BC
S113042060E088E00E947706C4FB662760F98CE0F0
S11304300E947706C5FB662760F98DE00E94770667
S1130440C6FB662760F98EE00E9477066C2F661F54
S11304506627661F8FE00E94770661E087E00E94AE
S1130460770683EF91E00197F1F700C0000060E0A8
S113047087E00E94770683EF91E00197F1F700C0CF
S113048000006C2F61708CE00E947706C1FB662728
S113049060F98DE00E947706C2FB662760F98EE062
S11304A00E947706C3FB662760F98FE00E947706F7
S11304B061E087E00E94770683EF91E00197F1F70E
S11304C000C0000060E087E00E94770683EF91E0BF
S11304D00197F1F700C00000CF91089583ED90E3F8
S11304E00197F1F700C0000082E00E94A60189EFA5
S11304F090E00197F1F700C0000088E20E94A60195
S113050089EF90E00197F1F700C000008CE00E94B1
S1130510A60189EF90E00197F1F700C0000081E0A7
S11305200E94A60187E893E10197F1F700C000005B
S113053086E00E94A60180E80E94A60108950E9418
S11305400A0208950F931F93CF93FC01808188239F
S113055059F08F01C0E00E940A02CF5FF801EC0F4E
S1130560F11D80818111F7CFCF911F910F910895D3
S1130570811107C06031F8F480E8860F0E94A6015B
S11305800895813039F46031B0F480EC860F0E9414
S1130590A6010895823039F4603168F484E9860F45
S11305A00E94A6010895833031F4603120F484ED73
S11305B0860F0E94A60108952F923F924F925F9258
S11305C06F927F928F929F92AF92BF92CF92DF925F
S11305D0EF92FF920F931F93CF93DF93CDB7DEB7C4
S11305E02D970FB6F894DEBF0FBECDBF2B87832E99
S11305F0742E652E562E472E382E292EA0E00E94EA
S1130600C30821F480E30E940A0244C0912C81E0D3
S113061090E08C0F9D1F890D911D9D878C870F2E57
S1130620FAE0AF2EF02DB12CC12CD12CE12CF12C01
S113063000E010E02B85382D472D562D652D742DA7
S1130640832D922D0E946408205DEC85FD85208316
S11306502B85382D472D562D652D742D832D922DE8
S11306600E9466082B87832E742E652E562E472EE5
S1130670382E292E9394A0E00E94C30841F69920B5
S113068049F0FE01E90DF11D80810E940A029A944D
S11306909110F7CF2D960FB6F894DEBF0FBECDBFE5
S11306A0DF91CF911F910F91FF90EF90DF90CF904A
S11306B0BF90AF909F908F907F906F905F904F907E
S11306C03F902F90089581E00E94A601089581E053
S11306D08093F90008951092F900089581E08093C1
S11306E0F8000895CF930E94630360E080E00E94C5
S11306F0B80288E790E00E94A2020E94A101C82FDC
S11307008D3359F06EE080E00E94B8028C2F0E9475
S11307109F02C053C0930301F0CF0E94630360E0C3
S113072080E00E94B80286E890E00E94A2026DE098
S113073080E00E94B8022091030130E040E050E0E4
S113074060E070E080E090E00E94DC0260910301D0
S113075080E190E00E94310760E080E090E00E9438
S1130760310760E080E490E00E943107809102014B
S113077060910301681B80E390E00E94310760E010
S113078081E00E94B80283E990E00E94A2026EE038
S113079081E00E94B8022091020130E040E050E084
S11307A060E070E080E090E00E94DC0260E082E0C3
S11307B00E94B80281EA90E00E94A2026EE082E008
S11307C00E94B80280E390E00E942C07282F30E0BA
S11307D040E050E060E070E080E090E00E94DC02E5
S11307E0CF910895CF9360E088E10E9477060E943C
S11307F0630360E080E00E94B8028CEA90E00E940B
S1130800A20260E081E00E94B80288E790E00E94C2
S1130810A2020E94A101C82F8D3359F06EE081E03D
S11308200E94B8028C2F0E949F02C053C093030100
S1130830F0CF0E94630360E080E00E94B80286E883
S113084090E00E94A2026DE080E00E94B802209134
S1130850030130E040E050E060E070E080E090E0D0
S11308600E94DC026091030180E190E00E94310764
S113087060E080E090E00E94310760E080E490E076
S11308800E94310780E490E00E942C0780930201CB
S11308908091020160910301681B80E390E00E9453
S11308A0310760E081E00E94B80283E990E00E9491
S11308B0A2026EE081E00E94B8022091020130E0C1
S11308C040E050E060E070E080E090E00E94DC02F4
S11308D060E082E00E94B80281EA90E00E94A202F5
S11308E06EE082E00E94B80280E390E00E942C0750
S11308F0282F30E040E050E060E070E080E090E0DD
S11309000E94DC02CF91089578940E94A0050E9471
S11309106E020E94490080E00E94770762E080E056
S11309200E9489076EE673E080E00E94620781E01E
S11309300E94770762E081E00E94890767E673E01E
S113094081E00E94620782E00E94770762E082E011
S11309500E9489076BE673E082E00E94620760E010
S113096085E00E94770660E088E10E94770680E0D7
S113097090E00E942C078F3F19F40E9472033AC042
S113098080E190E00E942C078093030180E490E0D2
S11309900E942C078093020160E080E00E94B8026C
S11309A086E890E00E94A2026DE080E00E94B80216
S11309B02091030130E040E050E060E070E080E02E
S11309C090E00E94DC0260E081E00E94B80284EBC7
S11309D090E00E94A2026FE081E00E94B8022091A0
S11309E0020130E040E050E060E070E080E090E040
S11309F00E94DC028091F800813009F068C0809187
S1130A0002018F5F809302016091020180E490E013
S1130A100E9431070E94630360E080E00E94B802F4
S1130A2084EC90E00E94A2026DE080E00E94B80293
S1130A302091030130E040E050E060E070E080E0AD
S1130A4090E00E94DC0260E081E00E94B80283E949
S1130A5090E00E94A2026FE081E00E94B80220911F
S1130A60020130E040E050E060E070E080E090E0BF
S1130A700E94DC028091020160910301681B80E303
S1130A8090E00E94310760E082E00E94B80281EAAF
S1130A9090E00E94A2026DE082E00E94B80280E32E
S1130AA090E00E942C07282F30E040E050E060E006
S1130AB070E080E090E00E94DC028091020190915D
S1130AC00301981302C00E9463031092F8009091EE
S1130AD00201809103019817C8F460E088E10E9444
S1130AE0770681E00E94F906811122C08091F90005
S1130AF0813029F461E085E00E94770619C08111F4
S1130B0017C060E085E00E94770612C00E9463036C
S1130B1060E080E00E94B80280ED90E00E94A202B2
S1130B2061E088E10E94770660E085E00E94770634
S1130B3080E00E94F90681115DCF0E94F2035ACF32
S1130B40E8EDF0E080E041E050E09191282F269517
S1130B5026952695382F37709130C9F120F09230C0
S1130B6009F47DC0BFC0213089F028F02230C9F0DB
S1130B70233011F1B7C09AB3BA0102C0660F771FD0
S1130B803A95E2F79B01292B2ABBACC097B3BA0173
S1130B9002C0660F771F3A95E2F79B01292B27BB0A
S1130BA0A1C094B3BA0102C0660F771F3A95E2F769
S1130BB09B01292B24BB96C091B3BA0102C0660FD6
S1130BC0771F3A95E2F79B01292B21BB8BC021307B
S1130BD0B1F028F0223019F1233089F183C09AB39F
S1130BE0BA0102C0660F771F3A95E2F79B01362FD0
S1130BF0309593239ABB9BB3292B2BBB73C097B31C
S1130C00BA0102C0660F771F3A95E2F79B01362FAF
S1130C103095932397BB98B3292B28BB63C094B317
S1130C20BA0102C0660F771F3A95E2F79B01362F8F
S1130C303095932394BB95B3292B25BB53C091B313
S1130C40BA0102C0660F771F3A95E2F79B01362F6F
S1130C503095932391BB92B3292B22BB43C02130FF
S1130C60A9F028F0223009F1233071F13BC09AB386
S1130C70BA0102C0660F771F3A95E2F79B012095EF
S1130C8092239ABB9BB329232BBB2CC097B3BA01E5
S1130C9002C0660F771F3A95E2F79B0120959223D5
S1130CA097BB98B3292328BB1DC094B3BA0102C0D3
S1130CB0660F771F3A95E2F79B012095922394BB28
S1130CC095B3292325BB0EC091B3BA0102C0660FA8
S1130CD0771F3A95E2F79B012095922391BB92B33B
S1130CE0292322BB8F5F803209F02FCF0895982FDC
S1130CF09770869586958695813021F130F0823003
S1130D00F1F1833009F458C00895613069F44BB3AC
S1130D1021E030E0B90102C0660F771F9A95E2F72F
S1130D20CB01842B8BBB08954BB321E030E0B90198
S1130D3002C0660F771F9A95E2F7CB018095842352
S1130D408BBB0895613069F448B321E030E0B90108
S1130D5002C0660F771F9A95E2F7CB01842B88BBFC
S1130D60089548B321E030E0B90102C0660F771F4F
S1130D709A95E2F7CB018095842388BB089561306E
S1130D8069F445B321E030E0B90102C0660F771F72
S1130D909A95E2F7CB01842B85BB089545B321E0F6
S1130DA030E0B90102C0660F771F9A95E2F7CB01D4
S1130DB08095842385BB0895613069F442B321E0B2
S1130DC030E0B90102C0660F771F9A95E2F7CB01B4
S1130DD0842B82BB089542B321E030E0B90102C004
S1130DE0660F771F9A95E2F7CB018095842382BB27
S1130DF00895282F2770869586958695813079F0F9
S1130E0028F08230A9F08330E1F024C089B390E067
S1130E1002C0959587952A95E2F78170089586B367
S1130E2090E002C0959587952A95E2F78170089520
S1130E3083B390E002C0959587952A95E2F7817077
S1130E40089580B390E002C0959587952A95E2F7BE
S1130E508170089580E008958EBB9FBBE09A8DB3A6
S1130E6008958EBB9FBB6DBBE29AE19AE199FECFD8
S1130E7008951F920F920FB60F9211242F933F9350
S1130E804F935F936F937F938F939F93AF93BF938E
S1130E90EF93FF93E091FA00F091FB00309709F093
S1130EA00995FF91EF91BF91AF919F918F917F91A0
S1130EB06F915F914F913F912F910F900FBE0F90C3
S1130EC01F901895813049F018F0823059F0089538
S1130ED0709301016093000108957093FF00609383
S1130EE0FE0008957093FD006093FC000895813026
S1130EF041F018F0823049F008958BB780648BBFBD
S1130F0008958BB780688BBF08958BB780628BBFC1
S1130F100895813049F120F0823009F449C00895E0
S1130F20613069F028F0623089F06330B1F00895DF
S1130F3085B78E7F85BF85B78D7F85BF089585B7BB
S1130F40816085BF85B78D7F85BF089585B78E7F06
S1130F5085BF85B7826085BF089585B7816085BFE9
S1130F6085B7826085BF0895613069F028F06230EA
S1130F7089F06330B1F0089585B78B7F85BF85B75D
S1130F80877F85BF089585B7846085BF85B7877FD0
S1130F9085BF089585B78B7F85BF85B7886085BF7A
S1130FA0089585B7846085BF85B7886085BF089537
S1130FB0623019F0633029F008C084B78F7B84BF96
S1130FC0089584B7806484BF089584B78F7B84BFF9
S1130FD008951F920F920FB60F9211242F933F93EF
S1130FE04F935F936F937F938F939F93AF93BF932D
S1130FF0EF93FF93E0910001F0910101309709F024
S11310000995FF91EF91BF91AF919F918F917F913E
S11310106F915F914F913F912F910F900FBE0F9061
S11310201F9018951F920F920FB60F9211242F93B1
S11310303F934F935F936F937F938F939F93AF935C
S1131040BF93EF93FF93E091FE00F091FF00309780
S113105009F00995FF91EF91BF91AF919F918F9105
S11310607F916F915F914F913F912F910F900FBEA0
S11310700F901F9018951F920F920FB60F92112484
S11310802F933F934F935F936F937F938F939F938C
S1131090AF93BF93EF93FF93E091FC00F091FD00B9
S11310A0309709F00995FF91EF91BF91AF919F910E
S11310B08F917F916F915F914F913F912F910F90FD
S11310C00FBE0F901F901895689401C0E8948F92FA
S11310D09F92CF93DF930E947208DF91CF919F90EC
S11310E08F90089588249924F401E401B0E49F9337
S11310F0AA279A158B049C04ED05FE05CF05D0079D
S1131100A10798F4AD2FDC2FCF2FFE2FE92D982CBB
S1131110892E982F872F762F652F542F432F322F08
S11311202227B85031F7BF9127C01B2EBF91BB2790
S1131130220F331F441F551F661F771F881F991FD7
S1131140881C991CEE1FFF1FCC1FDD1FAA1FBB1F8D
S11311508A149B04EC05FD05CE05DF05A007B10745
S113116048F08A189B08EC09FD09CE09DF09A00B99
S1131170B10B21601A94E1F62EF49401AF01BE0183
S1131180CD01000C08950024A7FD00942A17300512
S11311904005500560057005800590050895F89494
S10511A0FFCF7B
S11311A214151617101112133738392F3435362AFD
S11311B23132332D61303D2B5365742050726F648C
S11311C2756374733A00526571204E756D6265726F
S11311D2203D00506173732070726F647563743DB7
S11311E20052656D61696E6465723D005365747485
S11311F2696E670050726F64756374204E756D6218
S113120265723D00526571204E756D6265723D00D6
S113121246696E697368210002020202000200003C
S113122200000100000000000202020200000000AF
S10B12320000010100000000AE
S9030000FC
